:020000040800F2
:100000008806002091010008990100089B01000862
:100010009D0100089F010008A101000800000000E8
:10002000000000000000000000000000A301000824
:10003000A501000800000000A7010008A9010008B0
:10004000AB010008AB010008AB010008AB010008E0
:10005000AB010008AB010008AB010008AB010008D0
:10006000AB010008AB010008AB010008AB010008C0
:10007000AB010008AB010008AB010008AB010008B0
:10008000AB010008AB010008AB010008AB010008A0
:10009000AB010008AB010008AB010008AB01000890
:1000A000AB010008AB010008AB010008AB01000880
:1000B000AB010008AB010008AB010008AB01000870
:1000C000AB010008AB010008AB010008AB01000860
:1000D000AB010008AB010008AB010008AB01000850
:1000E000AB010008AB010008AB01000800F002F80A
:1000F00000F03FF80AA090E8000C82448344AAF183
:100100000107DA4501D100F034F8AFF2090EBAE880
:100110000F0013F0010F18BFFB1A43F0010318473B
:10012000E816000008170000103A24BF78C878C10C
:10013000FAD8520724BF30C830C144BF04680C60ED
:10014000704700000023002400250026103A28BF35
:1001500078C1FBD8520728BF30C148BF0B60704739
:10016000642900F08380002070471FB51FBD10B5C3
:1001700010BD00F038F91146FFF7F7FF00F090FBD3
:1001800000F056F903B4FFF7F2FF03BC00F05EF98C
:100190000948804709480047FEE7FEE7FEE7FEE71B
:1001A000FEE7FEE7FEE7FEE7FEE7FEE70448054957
:1001B000054A064B7047000071050008ED00000875
:1001C0008800002088060020880200208802002085
:1001D0000FB41CB50C0007AA009001D02044401EAB
:1001E000074B7B4469460190069800F0DCF8002C30
:1001F00003D06946002000F0E9F81CBC5DF814FB50
:10020000F10100002DE9F0410E4604460020206275
:100210002046E168884730B3252805D0D4E901217C
:100220009047206A401CF2E7E16820460027884793
:10023000050018D0A5F14100192802D820354FF447
:1002400000673246294620462760FFF789FF40B104
:10025000012804D0F61D26F007060836D8E7361D1B
:10026000D6E72846DAE7206ABDE8F0812DE9F041BB
:100270000646002410687529314616A510D0AFF344
:100280000080002802DA404213A507E031688A079F
:1002900001D512A502E0490704D511A5012401E00A
:1002A000AFF3008000210A2206F1240709E0B0FB29
:1002B000F2FCB0FBF2F302FB1C003030785418461D
:1002C000491C0028F3D123462A463046BDE8F041B8
:1002D00000F00BB8000000002D0000002B00000013
:1002E000200000007047704770472DE9F0470D4629
:1002F00099469246044600F124080168880604D510
:10030000E06921F01001216000E00120A84201DD38
:10031000471B00E00027A1697A1902EB0900081ABF
:10032000A0612078C00602D42046AFF300800026EA
:1003300008E0D4E901211AF806009047206A401C21
:10034000761C20624E45F4DB2078C0060AD5204694
:10035000AFF3008006E0D4E9012130209047206A05
:10036000401C2062381EA7F10107F4DC07E0D4E945
:10037000012118F805009047206A401C2062281EC1
:10038000A5F10105F3DC2046AFF3008020780006DC
:1003900002D50220BDE8F0870120FBE701694A1C75
:1003A00002610878704700B58FB0CDE901310021B6
:1003B000059105497944CDE9031011466846FFF7D8
:1003C00021FF0FB000BD0000E5FFFFFF0A6802F843
:1003D000010B0A607047D1E900239A4202D2531CF4
:1003E0000B6010707047754600F02CF8AE460500A3
:1003F0006946534620F00700854618B020B5FFF740
:10040000D5FEBDE820404FF000064FF000074FF04A
:1004100000084FF0000B21F00701AC46ACE8C00922
:10042000ACE8C009ACE8C009ACE8C0098D4670472B
:1004300010B50446AFF300802046BDE81040FFF73A
:10044000A1BE000000487047240000200149182088
:10045000ABBEFEE7260002007047000009480068B6
:100460004FF47A71B0FBF1F04FF0E02148610020C9
:10047000886100BF4FF0E020006900F48030002860
:10048000F8D070470400002010B500F001F810BD4E
:100490000CB50020019000903348006840F4803093
:1004A0003149086000BF3048006800F40030009017
:1004B0000198401C0190009818B90198B0F5A06F00
:1004C000F1D12948006800F4003010B101200090FB
:1004D00001E0002000900098012843D123480068E3
:1004E00040F01000214908600846006820F007002D
:1004F00008600846006840F0020008601A4840683A
:10050000194948600846406848600846406840F419
:10051000806048600846406820F47C1048600846C7
:10052000406840F4E81048600846006840F0807079
:10053000086000BF0C48006800F000700028F9D087
:100540000948406820F003000749486008464068B1
:1005500040F00200486000BF0348406800F00C0013
:100560000828F9D10CBD0000001002400020024014
:1005700010B51348006840F00100114908600846B2
:100580004068104908400E494860084600680E4916
:1005900008400B4908600846006820F48020086085
:1005A0000846406820F4FE0048604FF41F00886051
:1005B000FFF76AFF4FF000600449086010BD0000BB
:1005C000001002400000FFF8FFFFF6FE08ED00E01B
:1005D0002DE9F04107460D4614464FF00008012D65
:1005E00009D1082C02DA8846E6B210E0082C0EDBAE
:1005F0004046BDE8F081022D09D1022C05DA4FF00A
:10060000010804F10800C6B201E04046F1E7A1B2DA
:10061000A8B200231A4600F067F8012F1FD1214825
:10062000806940F400701F49886100201E490860FD
:100630001D482C3006600846006840F00100086044
:10064000642000F047F81848006840F0010016499F
:1006500008600846006840F00200086020E0022FB1
:100660001ED11048806940F480600E4988610020E6
:100670000E4908600D482C3006600846006840F0BE
:1006800001000860642000F025F80848006840F088
:100690000100064908600846006840F00200086052
:1006A0004046A6E700100240082401400828014007
:1006B00010B503460020012B02D1044C206803E052
:1006C000022B01D1024C206810BD00004C240140D7
:1006D0004C28014010B5044602E0FFF7BFFE641E3F
:1006E000002CFAD110BD000070B5012844D10424BB
:1006F000664DAC6108291ADA654C24688E000F2516
:10070000B540AC43624D2C602C4624688D0003FA42
:1007100005F52C435E4D2C602C462468022505EB24
:10072000810502FA05F52C43594D2C60ADE0584C7B
:10073000241D2468A1F10805AE00564DB540AC4318
:10074000534D2D1D2C602C462468A1F10805AD00E9
:1007500003FA05F52C434E4D2D1D2C602C462568C3
:10076000A1F10804022606EB840402FA04F42543EE
:10077000474C241D256088E0022844D10824434DBD
:10078000AC6108291ADA444C24688E000F25B54064
:10079000AC43414D2C602C4624688D0003FA05F5CE
:1007A0002C433D4D2C602C462468022505EB810529
:1007B00002FA05F52C43384D2C6066E0364C241DBA
:1007C0002468A1F10805AE000F25B540AC43324DB9
:1007D0002D1D2C602C462468A1F10805AD0003FAFC
:1007E00005F52C432C4D2D1D2C602C462568A1F1C0
:1007F0000804022606EB840402FA04F42543264C7E
:10080000241D256041E003283FD110241F4DAC6119
:1008100008291ADA214C24680E010F25B540AC4393
:100820001E4D2C602C4624688D0003FA05F52C43E0
:100830001A4D2C602C462468022505EB810502FA2E
:1008400005F52C43154D2C601FE0144C6468A1F194
:100850000805AE000F25B540AC43104D6C602C462A
:100860006468A1F10805AD0003FA05F52C430B4DB2
:100870006C602C466568A1F10804022606EB84042E
:1008800002FA04F42543054C656070BD0010024077
:100890000008014011110B00000C01400010014044
:1008A00008B500F087FA0221012000F053F843F662
:1008B00098220221012000F017FA0121032000F004
:1008C00085FA012211461046FFF782FE32E001222E
:1008D00011461046FFF7ECFE17490860084600680D
:1008E00000F093FD80460022144B00F009FC064600
:1008F0000022134B00F0A0FD04460022114B00F033
:1009000099FE824600F054FD80B20246022100901A
:10091000012000F0E9F9084803680BA20A210C48FD
:10092000FFF756FC0A49032000F008FB4FF47A70E9
:10093000FFF7D0FECBE70000000000200000B04031
:100940000088D3400000F03F25642C200000000008
:10095000180000202DE9F04107460D46002600242E
:1009600027B1012F7BD0022F7AD119E1D9488069B4
:1009700040F605010843D749886135B1012D0DD0F6
:10098000022D14D0032D24D11AE0012601240323C3
:10099000022208210120FFF7A7FE1AE00224032308
:1009A000022209210120FFF79FFE012611E0032406
:1009B000032302220A210120FFF796FE012608E008
:1009C00004240126032302220B210120FFF78CFEC1
:1009D00000BF00BF012E5CD1BF480068BF49B0FB1B
:1009E000F1F0401EBE49088044F61F60091D0880D2
:1009F000012C10D1BA480838008840F00100B849ED
:100A000008390880B6481038008840F06000B449C2
:100A10001039088035E0022C10D1B1480838008820
:100A200040F01000AE4908390880AD481038008801
:100A300040F4C040AA491039088022E0032C10D1AC
:100A4000A7480838008840F48070A5490839088014
:100A5000081F008840F06000091F088011E019E0BD
:100A600033E1042C0DD19E480838008840F48050B2
:100A70009B4908390880081F008840F4C040091FBE
:100A8000088097482838008840F0010094492839A8
:100A900008801AE18F48806940F005008D4988611F
:100AA0000846C06940F00100C86135B1012D0DD084
:100AB000022D14D0032D24D11AE001240126032392
:100AC000022200210120FFF70FFE1AE00224032377
:100AD000022201210846FFF707FE012611E0032448
:100AE0000323022211460120FFF7FEFD012608E044
:100AF000042401260323022219460120FFF7F4FDF6
:100B000000BF00BF012E4AD1734800687349B0FB93
:100B1000F1F0401E0906088544F61F608885012C07
:100B20000AD10846008C40F0010008840846008B7A
:100B300040F0600008832AE0022C0BD16007008C93
:100B400040F01000610708840846008B40F4C04064
:100B500008831CE0032C0DD14FF08040008C40F442
:100B600080704FF0804108840846808B40F0600020
:100B700088830CE0042C0AD12007008C40F48050BC
:100B8000210708840846808B40F4C04088834FF0DA
:100B90008040008840F001004FF08041088094E0E0
:100BA0004C48806940F00D004A4988610846C06998
:100BB00040F00200C86135B1012D0DD0022D14D0D6
:100BC000032D24D11AE00126012403230222062149
:100BD0000120FFF789FD1AE00323022207210120EB
:100BE000FFF782FD0126022411E0032302220021E7
:100BF0001046FFF779FD0126032408E001260424AE
:100C00000323022201211046FFF76EFD00BF00BF43
:100C1000012E5AD1304800683049B0FBF1F0401E37
:100C20003049088044F61F60091D0880012C10D14E
:100C30002C480838008840F001002A49083908800B
:100C400028481038008840F0600026491039088094
:100C500033E0022C10D123480838008840F01000FF
:100C60002049083908801F481038008840F4C040E7
:100C70001C491039088020E0032C0ED1194808388F
:100C8000008840F48070174908390880081F0088E0
:100C900040F06000091F08800FE0042C0DD11148BE
:100CA0000838008840F480500E4908390880081F31
:100CB000008840F4C040091F08800A48283800888E
:100CC00040F0010007492839088000BF3046BDE8E0
:100CD000F0810000001002400400002040420F009C
:100CE000282C01402804004010B50346002023B101
:100CF000012B1FD0022B54D136E031B1012908D08D
:100D000002290BD0032913D10DE00120264C2280AB
:100D10000EE00120244C241D228009E00120224CF9
:100D20000834228004E001201F4C0C34228000BFD4
:100D300000BF36E031B1012908D002290AD00329C9
:100D400010D10BE001208407A2860BE0012084076C
:100D5000228707E001208407A28703E00120134CCB
:100D6000228000BF00BF1CE031B1012908D0022958
:100D70000BD0032913D10DE001200D4C22800EE091
:100D800001200B4C241D228009E00120084C08346E
:100D9000228004E00120064C0C34228000BF00BFFA
:100DA00000BF00BF10BD0000342C014040000040D7
:100DB0003404004000204FF0E02108616FF07F40D4
:100DC00048610020886105200861704770B50546BC
:100DD0000C465648806940F0010054498861012D55
:100DE00034D10846806940F48040886103230222A0
:100DF00009210120FFF778FC002302220A210120AB
:100E0000FFF772FC24B941F646504949088005E0D5
:100E1000012C03D140F27120454908804448001D4F
:100E2000008840F008004249091D088008460088F3
:100E300040F0040008800846008840F40050088014
:100E40000846008840F0200008806EE0022D35D171
:100E50003648C06940F400303449C8610323022297
:100E600011460120FFF740FC00230222032101204C
:100E7000FFF73AFC24B940F6A3602E49088005E04C
:100E8000012C03D14FF49C702A4908802948001D89
:100E9000008840F008002749091D0880084600889E
:100EA00040F0040008800846008840F400500880A4
:100EB0000846008840F02000088036E0032D34D139
:100EC0001A48C06940F480201849C86103230222EF
:100ED0000A211046FFF708FC002302220B211046CE
:100EE000FFF702FC24B940F6A3601349088005E02F
:100EF000012C03D14FF49C700F4908800E48001D4F
:100F0000008840F008000C49091D08800846008848
:100F100040F0040008800846008840F40050088033
:100F20000846008840F02000088070BD0010024094
:100F300008380140084400400848004030B50546E4
:100F40000B46002404E0195D284600F005F8641CF7
:100F5000185D0028F7D130BD01280AD100BF114A21
:100F6000128802F04002002AF9D00E4A121D1180A8
:100F70000BE0022809D100BF0B4A128802F04002A0
:100F8000002AF9D0084A121D1180032809D100BF98
:100F9000064A128802F04002002AF9D0034A121DC4
:100FA0001180704700380140004400400048004074
:100FB00010B591EA030F48BF83F0004300F142836C
:100FC000841A71EB030C05D2121943EB0C03001BBE
:100FD00061EB0C01DFF824E14FEA1154A4EB135C40
:100FE0001EEA430F18BF9EEA445F73D023EA0E0344
:100FF000DCF1200E21EA045143F4801332D322FAAB
:101000000CFE10EB0E0023FA0CFE41EB0E01CCF1AE
:10101000200E03FA0EFE10EB0E0051F10001B1F5A7
:10102000801FCCF1200E32D201EB045112FA0EF2E5
:10103000BDE8104058BF7047401C38BF5FEA42020D
:1010400018BF7047002814BF20F0010041F10001D3
:101050004FEA410313F5001F38BF7047A1F1C041AB
:1010600000F0E2BA012A43EB0302ACF1200CDCF100
:101070001F0E32BF4FF0000E23FA0CF310EB0300EB
:1010800041EB0451B4EB115FD0D0A1EB045101F559
:10109000801149085FEA300001EB04510ED350F192
:1010A000000038BF12FA0EFE08D1BDE81040C9E7B3
:1010B000401C38BF5FEA4202CAD1C3E7BDE8104016
:1010C0004FEA410313F5001F38BF7047A1F1C0413B
:1010D00000F0AABA9EEA445F08D011EA5E0FBDE8AC
:1010E000104004BF01F0004100207047BDE81040EF
:1010F00070B500F04BFA00BF64FBBE3E0000E0FF9D
:101100002DE9C04130B4DFF8A0C23CEA111418BF89
:101110003CEA131400F0EC8081EA03051CEA111488
:1011200044EAD57418BF1CEA131500F0C780A4EB7D
:1011300005044FF0004545EAC12145EAC32341EAD1
:10114000505143EA525304F17F74994204F500343C
:101150004FEAC0204FEAC22208BF904200F09C80B4
:101160004FEA13650FF24016765D4FEA134506FB12
:1011700005F7C7F1807706FB07F74FEAD737A7FBDC
:1011800003687642C8F58038A7FB06CE38BFA8F1C1
:10119000010807FB08E64FF0000EA6FB028CE6FBF9
:1011A00003CEDCF1000CCEF1004E38BFAEF1010EE3
:1011B000A6FB0C584FF000074FF00005E6FB0E872A
:1011C000A1FB08C6A0FB07CE16EB0E0645F10005F5
:1011D000E1FB076515F1E04E7EBFA4F580345FEAC0
:1011E00046066D4116F1800745F100054FEA1727C5
:1011F0004FEA066647EA0567A6F1DE46B6F1805F6C
:101200004FEA15251FD9384624F0010C05EBC471AF
:10121000BCF1FE6F01EB0C1102D8F0BCBDE80081FF
:1012200024425CBF01F5801E9EEAC47F02D4F0BC5C
:10123000BDE80081244238D4F0BCA1F1C041BDE832
:10124000004100F0F1B94FEAD22242EA43524FEA9C
:10125000D323A7FB02864FEAD02040EA415007FB88
:1012600003661EEA0E0F4FEAD12105FB026658BF46
:10127000A6EB0056B6EB00564FEA520E4EEAC37E7E
:1012800018EB0E0E56EB530EBDD518EB02085E415F
:101290007F1C55F10005B6E74FF480154FF00007AD
:1012A0004FF000064FF00008ADE7F0BC4FF0000033
:1012B00001F1C04101F00041BDE8008111EA0C1FBD
:1012C0000CEA131500D00CE013EA0C1F00F0258087
:1012D0004FF00000F0BC81EA030101F00041BDE8DD
:1012E0000081F0BCBDE8004181EA030100F09CB937
:1012F000F0BCBDE8004170B500F048F9097EFC3E45
:1013000000F007B881EA03014FF0000001F000414E
:10131000704781EA030100F087B9F0BCBDE80041E5
:101320004FF0000021497047FFFDFBF9F7F5F4F29B
:10133000F0EEEDEBE9E8E6E4E3E1E0DEDDDBDAD870
:10134000D7D5D4D3D1D0CFCDCCCBCAC8C7C6C5C4CE
:10135000C2C1C0BFBEBDBCBBBAB9B8B7B6B5B4B3E5
:10136000B2B1B0AFAEADACABAAA9A8A8A7A6A5A4D0
:10137000A3A3A2A1A09F9F9E9D9C9C9B9A99999894
:101380009797969595949393929191908F8F8E8E37
:101390008D8C8C8B8B8A89898888878786858584C4
:1013A00084838382828181800000FF070000F87FB0
:1013B0004FEA1153A3F58063D3F11E03A8BFD3F105
:1013C000200C08DB4FF0004242EAC12252EA5052A0
:1013D00032FA03F0704709420BD4102BC4BF00202F
:1013E000704703F5787CBCF1FF3F05D04FF0FF302C
:1013F00070474FF00000704770B500F0C7F800BFAD
:101400004992248000207047F0E710F0004248BF66
:101410004042B0FA80F310FA03F10AD0C3F11D0381
:1014200003F580634FEA415002EB035202EBD121F6
:1014300070474FF000007047DFF848C170B51CEAF4
:10144000111E1EBF1CEA13159EEA0C0F95EA0C0F25
:1014500000F06F8081EA030423EA4C134EEAD47E45
:1014600021EA4C1141F4801143F48013AE44A1FBF6
:10147000024CA0FB0365AEF17F7E361955EB0C05DF
:10148000A1FB034C4CF10003A0FB021C16EB0C0665
:10149000654153F10003094218BF46F0010613F4F9
:1014A000007F0BD14FEA03314FEA0530340341EAA4
:1014B000155140EA16506FF003020AE04FEAC321CB
:1014C0004FEAC520F40241EA555140EA56506FF008
:1014D000020202EB2E4201EB025585EACE710AD0E0
:1014E0005FEA440C18BF24F0004450F1000041F1C1
:1014F000000120EAD47040F2FE7C624500D270BD4B
:10150000A84214BF4FF080444FF04044002E08BF63
:101510000024BEF1806FA8BFA1F1C041BDE87040BA
:1015200080F282804FF0000001F1C04101F00041E3
:1015300070479EEA0C0F0CEA131518BF95EA0C0FC2
:1015400006D04FF0000081EA030E0EF0004170BD9E
:1015500000F01CF88900013E00F007B800F009B85F
:101560004FEA430C5FEA5C5C08D081EA030100F0BB
:101570005BB84FEA410C5FEA5C5CF6D14FF00000CB
:10158000014970470000FF070000F87F0EF1020ECE
:101590002EF0030E5EF8046B364205D4012A43EBAD
:1015A000030515F5001F12D8012841EB010C1CF5AD
:1015B000001F0CD80ED14FEAD17C15F5001F0CEBA3
:1015C0004C0C0CF1020C08BF4CEBD37C04E04FF048
:1015D000080C01E04FEAD37C0CEB4C0526FA05F62B
:1015E00006F00706B6F1040C06D20EEB860CBDE839
:1015F00070404CF0010C6047DFE80CF0090B020270
:101600004FF000414FF00000A1F5002170BD1946D8
:101610001046012851EB010418BFD4F5001484BF13
:10162000002001F0004170BD0808A0F500114FEA4C
:101630003101704710B591EA030F48BF83F00043B2
:101640003FF5BEAC841A71EB030C07D212198CF073
:10165000004C43EB0C03001B61EB0C01DFF8A4E131
:101660004FEA1154A4EB135C1EEA430F18BF9EEA25
:10167000445F00F0B08023EA6E03524221EA045135
:10168000C3EB6E0338BF5B1EDCF1200E25D322FABC
:101690000CFE10EB0E0043FA0CFE41EB0E01CCF1F8
:1016A000200E03FA0EFE10EB0E0051F10001CCF1FA
:1016B000200E29D412FA0EF201EB0451BDE81040BD
:1016C00058BF7047401C1CBFB2F1004F7047002844
:1016D0000CBF491C20F00100704712EB020E43EBD7
:1016E000030218BF4FF0010E4EEA4202ACF1200C8B
:1016F000DCF11E0E54D943FA0CFE10EB0E0051F132
:10170000FF31CCF11E0ED5D50EF1010E12FA0EFEF0
:10171000404141EB010101EB445C5FEA5C5C10D9A4
:1017200010EBDE7001EB045138BFBEF1004FBDE895
:10173000104018BF704700280CBF491C20F0010062
:10174000704730D24FEAD42C11F5001124F4006414
:101750001BD0B1FA81F20B3AA41AA41ED2F12003D5
:10176000914030FA03F31943904001EBCC71002C07
:1017700001EB0451BDE81040A8BF704701F1C04122
:101780004FF0000001F000417047B0FA80F310FA0A
:1017900003F100D110BDE41A173C4805C90AE4E77B
:1017A00001EB045110BD491001EB0451BDE810409C
:1017B0004FEA300002E04FF0000170474A0008BFD6
:1017C0000042F8D0B2F5001F28BF704701F0004179
:1017D0004FF0000070479EEA445F07D011EA5E0FA9
:1017E000BDE8104004BF002100207047BDE8104054
:1017F00070B5FFF7CBFE00BF40DFF63E83F000413F
:10180000104670470000E0FF281800080000002084
:1018100018000000280100084018000818000020E7
:1018200070060000440100080000000000A24A0405
:101830000000000000000000010203040607080980
:04000005080001915D
:00000001FF
