:020000040800F2
:10000000F0060020A9010008B1010008B3010008B2
:10001000B5010008B7010008B901000800000000A0
:10002000000000000000000000000000BB0100080C
:10003000BD01000800000000BF01000829160008EB
:10004000C3010008C3010008C3010008C301000880
:10005000C3010008C3010008C3010008C301000870
:10006000C3010008E11300085D140008C301000883
:10007000C3010008C3010008C3010008C301000850
:10008000C3010008C3010008C3010008C301000840
:10009000C3010008C3010008C3010008D914000807
:1000A000C3010008C3010008C3010008C301000820
:1000B000C3010008C3010008C3010008C301000810
:1000C000C3010008C3010008C3010008C301000800
:1000D000C3010008C3010008C3010008C3010008F0
:1000E000C3010008C3010008C301000800F002F8C2
:1000F00000F04AF80AA090E8000C82448344AAF178
:100100000107DA4501D100F03FF8AFF2090EBAE875
:100110000F0013F0010F18BFFB1A43F0010318473B
:100120000C3A00002C3A0000103A24BF78C878C17D
:10013000FAD8520724BF30C830C144BF04680C60ED
:10014000704700000023002400250026103A28BF35
:1001500078C1FBD8520728BF30C148BF0B60704739
:10016000662903F09684642900F0588000207047C7
:100170001FB500F0A7FB04000020002102F03CFDA9
:10018000E0601FBD10B510BD00F09CFC1146FFF7EC
:10019000EFFF02F023F800F0BAFC03B4FFF7F2FF20
:1001A00003BC00F0FDFC00000948804709480047F7
:1001B000FEE7FEE7FEE7FEE7FEE7FEE7FEE7FEE717
:1001C000FEE7FEE704480549054A064B7047000074
:1001D00059170008ED000008F0000020F00600208C
:1001E000F0020020F00200200FB41CB50C0007AA9A
:1001F000009001D02044401E074B7B44694601908B
:10020000069800F03EFB002C03D06946002000F069
:100210004BFB1CBC5DF814FBB50600002DE9F0415A
:100220000646002410687529314616A510D0AFF394
:100230000080002802DA404213A507E031688A07EF
:1002400001D512A502E0490704D511A5012401E05A
:10025000AFF3008000210A2206F1240709E0B0FB79
:10026000F2FCB0FBF2F302FB1C003030785418466D
:10027000491C0028F3D123462A463046BDE8F04108
:1002800000F092B8000000002D0000002B000000DC
:10029000200000002DE9F0474FF0000A894604468F
:1002A000C0F820A02046E1688847002876D025289D
:1002B00006D0D4E901219047206A401C2062F1E772
:1002C000E168204600258847C4F81CA006460027A0
:1002D000C4F818A02A2E09D0304601F0A7FA38B386
:1002E00004EB8708303EC8F8186019E059F8041B81
:1002F000204604EB87029161E1688847012F06469A
:1003000018D1E069002820DA25F020051DE0D8F892
:10031000180000EB800006EB40003038C8F81800E9
:100320002046E1688847064601F080FA0028EED1B1
:10033000012F0AD02E2E08D12046E16888477F1C65
:100340000646022F45F02005C4DBA069002803DA29
:10035000404245F00105A061E80701D025F01005F5
:10036000B6B1A6F14100192802D8203645F400653F
:100370004A463146204625604D46FFF7F1FE58B10A
:10038000012806D0ED1D25F0070000F1080989E7D6
:1003900004E005F1040985E730468AE7206ABDE8F4
:1003A000F0877047704770472DE9F0470D46994632
:1003B0009246044600F124080168880604D5E069E5
:1003C00021F01001216000E00120A84201DD471B5F
:1003D00000E00027A1697A1902EB0900081AA06160
:1003E0002078C00602D42046AFF30080002608E043
:1003F000D4E901211AF806009047206A401C761CB7
:1004000020624E45F4DB2078C0060AD52046AFF3C3
:10041000008006E0D4E9012130209047206A401C8A
:100420002062381EA7F10107F4DC07E0D4E90121BE
:1004300018F805009047206A401C2062281EA5F18C
:100440000105F3DC2046AFF300802078000602D5DA
:100450000220BDE8F0870120FBE770472DE9FF4F40
:100460000C461E464FF0FF378BB0D2E90001DDF895
:1004700060800A908A46C1F30A5505B93D460021BD
:1004800008464FF00000BAF1000F00F4400005DA12
:1004900000EB80004FF4400101EA50004FEA905910
:1004A000B9F1010F00DDB9460A9850EA4A000ED0B2
:1004B00044F61050A5F2FF3545432F14B8F1000F54
:1004C0001ED07542291E1EDDC9F100021CE0B8F1E4
:1004D000010F4FF0000001D0302103E0F24305E0AE
:1004E0002154401CB042FBDB304600220021215445
:1004F0000B99C1F80880C1E900200FB0BDE8F08F6A
:10050000BD1B6D1CDEE74A4600DA694206A800F012
:1005100063FA06AB93E8070003AB83E80700504695
:100520000A9900F044FB8DE80700A0F500501F3841
:1005300000900398002D0ADD42F21F014A4608444C
:10054000002303A90390684600F0ADFD09E0A0F583
:1005500000504A461F38002303A90390684600F064
:10056000B7FD8DE807000004000C03D04FF0FF300A
:10057000410800E01046B8F1000F03D000220092BD
:1005800015461EE0751E05D400F0A0F93032625504
:100590006D1EF9D5B3460122084302D000227F1C0C
:1005A00004E02078302801D100227F1E002A09971C
:1005B00084D01DE0112D07DA00F088F93032625541
:1005C0006D1C50EA0102F5D1084302D00098C8B171
:1005D0000EE00021681E05E0235C625C6354225437
:1005E000401E491C8142F7DBAB46A81B401E099008
:1005F000002004F80B000B98099AC0F80880C0E9A5
:10060000002B7AE711264FF0000857E72DE9F04F4D
:1006100088460446D21D22F0070191B0D1E90001BD
:10062000CDE90A0101F0C8F802460B98C00F01D0CD
:100630002D2007E02068810701D52B2002E0202132
:1006400001EAC000032A099001D0072A05DB03460E
:100650004146204600F080F90BE12078800601D564
:10066000E06900E00620B8F1650F814606D0B8F1D8
:10067000660F18D0B8F1670F70D131E00020B9F1E2
:10068000110F009001DB112301E009F101030AAA17
:1006900001A90CA8FFF7E2FEDDE90C70002609F1C4
:1006A0000105834647E001204B4600904FF000478C
:1006B0000AAA01A90CA8FFF7D1FEDDE90DB00C993B
:1006C0005D46002610B909F101000D18B9EB0500CF
:1006D00003D4C0F1FF3609F10105A5EB09002BE0B9
:1006E000B9F1010F01DA4FF001090020B9F1110F42
:1006F0000090484601DD112300E003460AAA01A943
:100700000CA8FFF7ABFEDDE90C704D4600268346D2
:10071000207800070AD4AB4500DA5D4601A8012D18
:1007200004DD411911F8011C302907D04F4502DAC8
:1007300017F1040F04DA012082460FE06D1EEEE788
:10074000002F02DCED1B3E4403E0781CA84200DDD4
:100750007D1CB81B00F1010A4FF00047207800070C
:1007600003D4AA4501DB4FF0FF3A0021B7F1004F57
:100770000DF143088DF8431024D002202B23002FC5
:1007800001DA7F422D230A21021EA0F1010000DCC4
:100790005FB197FBF1FC97FBF1F201FB1C7C174664
:1007A0000CF1300C08F801CDEEE7A8F10100037060
:1007B0002188090501D5452100E06521A0F1010846
:1007C00000F8011C09980FA9A1EB0807FF1D00B153
:1007D0000120411901EBEA70A1693844081A401E52
:1007E000A0612078C00602D42046AFF300800998AB
:1007F00028B1D4E901219047206A401C206220786A
:10080000C00622D52046AFF300801EE0002E04DB98
:10081000B34502DD01A8805D00E03020D4E901216C
:100820009047206A401C2062761CAAF101005FEA12
:10083000000A0AD100F046F8C0680168405CD4E9BB
:1008400001219047206A401C2062281EA5F1010565
:10085000DCDC07E0D4E9012118F8010B9047206A9D
:10086000401C2062381EA7F10107F3DC2046AFF3DD
:100870000080032011B041E601694A1C026108783A
:10088000704700B58FB0CDE90131002105910549D0
:100890007944CDE9031011466846FFF7FBFC0FB021
:1008A00000BD0000E5FFFFFF0A6802F8010B0A60C7
:1008B0007047D1E900239A4202D2531C0B6010709A
:1008C0007047000000487047AC00002030B5B0F120
:1008D0000A024FEA900E71F100034EEA817EB0EBFE
:1008E0000E0061EB91014FEA101E4EEA017E10EB03
:1008F0000E0041EB11114FEA102E4EEA016E10EB83
:100900000E0041EB11214FEA104E4EEA014E10EB62
:100910000E0041EB1141401841F100014FEAD000B7
:1009200040EA41704FEAD10110EB80054FEA8104A3
:1009300044EA907444EB01046D1944EB0404521B27
:10094000A3414FF0000348BF0A3200D530BD401C20
:1009500041F1000130BD00002DE9F0411F46044681
:1009600003260168072A01F4006004DB08B116A51C
:1009700005E016A503E008B115A500E015A521F0D6
:1009800010002060A069C01EA0610FB1401EA061D0
:100990002046AFF300804FB1D4E90121384690479B
:1009A000206A401C2062C01C206206E0206AFAE730
:1009B000D4E9012115F8010B9047761EF8D22046A4
:1009C000AFF30080BDE8F0814E414E006E616E00D5
:1009D000494E4600696E66002DE9F047814616468D
:1009E0008AB0354878440DC88DE80D003248784407
:1009F000801C03AC0DC884E80D0041F69B30084410
:100A0000372190FBF1F290FBF1F5A5F1800501FB98
:100A100012041B3C02D56442012000E00020DFF8F4
:100A200098A080460027FA44AAF1BE0A0EE0E0072B
:100A30000AD03246684607EB470101230AEB8101E1
:100A400000F046FB8DE8070064107F1C002CEED1FF
:100A5000194F7F44AE3F19E0E80715D007EB0410AB
:100A60000DF1180A90E80E008AE80E00C068F04206
:100A700001D1981908903246012306A903A800F075
:100A800027FB03AB83E807006D10641C002DE3D146
:100A90004FF0010332466946B8F1000F03A802D0B7
:100AA00000F001FB01E000F013FBC9E90001C9F807
:100AB00008200AB0BDE8F0872C31000000487047DC
:100AC0008C0000207546FFF7F9FFAE460500694629
:100AD000534620F00700854618B020B5FFF772FB9B
:100AE000BDE820404FF000064FF000074FF000082F
:100AF0004FF0000B21F00701AC46ACE8C009ACE8B0
:100B0000C009ACE8C009ACE8C0098D46704710B513
:100B10000446AFF300802046BDE81040FFF73DBB20
:100B20004FF0013C50F8042B51F8043B9A4221D17C
:100B3000A2EB0C03934313EACC1317D150F8042B08
:100B400051F8043B9A4215D1A2EB0C03934313EAEC
:100B5000CC130BD150F8042B51F8043B9A4209D125
:100B6000A2EB0C03934313EACC13DBD04FF000004D
:100B7000704700BFD01A01BAB1FA81F101F0180133
:100B800022FA01F0CB40C1F12001DBB2C0B2C01AA1
:100B90002CFA01F3D11A914311EAC311E6D170473F
:100BA00001491820ABBEFEE72600020070475FEA4D
:100BB000400C08BF91F0000F4FEA8C234FEAC1228E
:100BC00043EA51514FEA1C5018BF00F5F0404FEA7C
:100BD000300018BF41F000415FEA6C5C00F02980F2
:100BE000BCF1FF3F08BF40F080407047130C06BFC8
:100BF00012044FF0100C4FF0000C130E04BF120241
:100C00000CF1080C130F04BF12010CF1040C930F2C
:100C100004BF92000CF1020CD30F04BF52000CF180
:100C2000010C11464FF00002A0F11F00A0EB0C00D8
:100C3000704711F0004F08BF704731F000413FF49A
:100C4000D5AF0B0C06BF09044FF0100C4FF0000C91
:100C50000B0E04BF09020CF1080C0B0F04BF0901B5
:100C60000CF1040C8B0F04BF89000CF1020CCB0FAC
:100C700004BF49000CF1010CCCF12003A0EB0C00E7
:100C800022FA03F302FA0CF241EA030100F1010037
:100C9000704720F07F4C80EA030023F07F47ACEBE5
:100CA000070303F57C5300F0004003F1FF032DE937
:100CB00080494FEA154B09B44FEA144325EA0B4E1D
:100CC00024EA03480FF2042606EB132749083E786E
:100CD0005FEA320203FB0667C7F5000707FB06F66B
:100CE0004FEA54374FEAD64606F1020607FB066C78
:100CF000CCF1005C4FEA1C472CEA074C07FB06F4DA
:100D00000CFB06F504EB15464FEA961634BF00209F
:100D10004FF000404FEAD13706FB07FC4FEA1C4C6E
:100D20000CFB0BF7D21B03FB0CF761EB07010CFB71
:100D30000EF7B0EB074072EB17420CFB08F734BF1D
:100D4000A2EB0742B2EB074261EB17414FEA0C44BA
:100D50004FEA910706FB07FC4FEA1C4C0CFB0BF714
:100D6000B0EBC74072EB573203FB0CF734BFA2EB7A
:100D7000C742B2EBC74261EB57310CFB0EF7B0EB49
:100D8000C70072EB57720CFB08F734BFA2EBC70227
:100D9000B2EBC70261EB5771039F4FEA816141EAF1
:100DA000921104EBCC044FEAD1374FEA826206FB82
:100DB00007FC42EA90124FEA80604FEA1C4C0CFBA1
:100DC0000BF7D21B03FB0CF761EB07010CFB0EF7D3
:100DD000B0EB074072EB17420CFB08F734BFA2EBF5
:100DE0000742B2EB074261EB17414FEA8C554FEADD
:100DF000910704EB9C2406FB07FC4FEA1C4C0CFB00
:100E00000BF7B0EBC74072EB573203FB0CF734BF64
:100E1000A2EBC742B2EBC74261EB57310CFB0EF7B6
:100E2000B0EBC70072EB57720CFB08F734BFA2EBB4
:100E3000C702B2EBC70261EB577115EB4C254FEAC5
:100E4000816141EA92114FEA82624FEAD13742EA68
:100E5000901206FB07FC44F100044FEA80604FEA61
:100E60001C4C0CFB0BF7D21B03FB0CF761EB0701CF
:100E70000CFB0EF7B0EB074072EB17420CFB08F7C8
:100E800034BFA2EB0742B2EB074261EB174115EB0F
:100E90001C154FEA813141EA92414FEA823242EA1F
:100EA00090424FEA80304FEA0C7644F1000448EA61
:100EB00003434EEA0B484FF0000EB2EB080C71EB07
:100EC000030724BF624639464EEB0E0E4FF0000B6F
:100ED0000018524149414BEB0B0BB2EB080C71EB84
:100EE00003077BF1000B24BF624639464EEB0E0E22
:100EF0004FF0000B0018524149414BEB0B0BB2EB8A
:100F0000080C71EB03077BF1000B24BF62463946E6
:100F10004EEB0E0E51EA020718BF46F0010616EB23
:100F20000E7655F1000254F1000103D5BDE88901A8
:100F3000BDE80088BDE88901BDE80048B619524106
:100F400041EB0101A3F10103704780807F7E7D7C2E
:100F50007B7A7978777676757473727171706F6E4B
:100F60006E6D6C6C6B6A6A696868676666656464F6
:100F7000636362616160605F5F5E5E5D5D5C5C5B80
:100F80005B5A5A59595858575756565555555454EF
:100F9000535352525251515050504F4F4F4E4E4D4D
:100FA0004D4D4C4C4C4B4B4B4A4A4A494949484899
:100FB00048474747474646464545454444444443D9
:100FC00043434342424242414141002B9C4630D47C
:100FD00077002BD01CB54FEA370703B44FF0100051
:100FE0004FF01001BAF1000F06D0BCF1000FDCBFCA
:100FF00040F0080040F008014FF000000FBCBDE8D1
:1010000010400BF1010BBBF1010F08BF5FEA17079E
:1010100022BF12F1010211F101014FF0004143F131
:10102000000300F0004043EA00007047F9D357087E
:10103000D0E746EA064613F1400F4FEA16461FDD99
:1010400013F1200FDFBF16430A46002120335B4215
:10105000BED0C3F1200746EA064602FA07F74FEA78
:10106000164646EA0706C3F1200722FA03F201FA00
:1010700007F721FA03F14FF0000342EA0702A7E75E
:1010800046EA020646EA06464FEA164646EA0106E0
:10109000BCBF46EA0646360C4FF000034FF0000294
:1010A0004FF0000194E72DE9804C9A46934670B4C6
:1010B00091E8380007C831EA400C48BF34EA430CD5
:1010C00003D5FFF7E6FDFFF780FFF0BCBDE8008C1D
:1010D0002DE9804C9A46934670B491E8380007C8D1
:1010E00010F0804F08BF13F0804F03D100F005F8D7
:1010F000FFF76BFFF0BCBDE8008C20F07F4780EA73
:10110000030023F07F4C07EB0C03A3F57C5300F0A6
:101110000040A3F1FE0392F0000F00F0B38095F0C1
:10112000000F00F077802DE901494FEA11404FEAA6
:10113000144621EA004800FB06FC24EA064708FBA7
:1011400006F607FB08F800FB07F718EB06484CEB20
:10115000164C4FEA124B18EB07484FEA15464CEB7A
:10116000174022EA0B4E0BFB06FC25EA06470EFB56
:1011700006F607FB0EFE0BFB07F71EEB064E4CEBCD
:10118000164C4FF000061EEB074E4CEB174B18EBBE
:101190000B0840F1000018EB0E0B58EB000840F173
:1011A00000008F1A4FF000013CBFC943661B14BFFB
:1011B000B5EB040C00213CBFC943F61B4FEA1744B2
:1011C0004EEA8E0E27EA04454FEA1C4704FB0762ED
:1011D0002CEA074C05FB07F70CFB05F604FB0CFC9F
:1011E00016EB074642EB174216EB0C4642EB1C424D
:1011F0001BEB060658EB0202414146EA9E0601D56A
:10120000BDE80189B619524141EB0101A3F1010387
:10121000BDE801894FEA14454FEA114724EA054623
:1012200021EA074C05FB07F406FB07F70CFB06F168
:1012300005FB0CFC11EB074144EB17444FEA124746
:1012400011EB0C4144EB1C4422EA074C05FB07F26E
:1012500006FB07F70CFB06F605FB0CFC16EB074636
:1012600042EB174216EB0C4642EB1C456A1854F150
:10127000000148BF7047B619524141EB0101A3F18B
:101280000103704795F0000F37D04FEA11424FEA43
:10129000144721EA024624EA074C02FB07F106FB49
:1012A00007F70CFB06F402FB0CFC14EB074441EBC4
:1012B00017414FEA154714EB0C4441EB1C4125EA5A
:1012C000074C02FB07F506FB07F70CFB06F602FBD3
:1012D0000CFC16EB074645EB174516EB0C4645EBA9
:1012E0001C42121951F1000148BF7047B619524112
:1012F00041EB0101A3F1010370474FEA14454FEAA6
:10130000114724EA054621EA074C05FB07F106FBD5
:1013100007F70CFB06F24FF0000605FB0CFC12EB86
:10132000074241EB174112EB0C4251EB1C4148BF05
:101330007047921841EB0101A3F10103704710B50A
:101340000024282000F030FB01F092FA48B9502028
:1013500000F02AFB01F08CFA00B10124322000F0E9
:1013600023FB204610BD70B5002500241DE000BF02
:1013700001F07EFA0028FBD0282000F015FB01F0D8
:1013800077FA28B9C4F107010120884085430AE0B3
:10139000C4F10701012088402843C5B200BF01F015
:1013A00067FA0028FBD1601CC4B2082CDFDB28469A
:1013B00070BD000010B501F057FB4FF480300749B5
:1013C000086044F2506000F0EFFA01200349086021
:1013D000142000F0E9FA01F039FB10BD10080140BB
:1013E00010B51648006800F0080010B35A2001F04C
:1013F000C1FA1248006840F0080010490860022055
:101400000F49087000F01AFB0E4908600E4800787A
:1014100001280FD100200C4908700C480078401CAE
:101420000A4908700846037809A203210948FEF713
:10143000DBFE02E001200849087010BD14040140E1
:10144000040000200C000020070000200500002000
:1014500025640000080000200600002010B5164892
:10146000006800F0100010B35A2001F083FA12480F
:10147000006840F010001049086002200F49087011
:1014800000F0DCFA0E4908600E48007801280FD100
:1014900000200C4908700C480078401C0A4908706C
:1014A0000846037809A203210948FEF79DFE02E0E1
:1014B00001200849087010BD1404014004000020F8
:1014C0000C0000200600002005000020256400001C
:1014D00008000020070000200948006800F4807020
:1014E00020B90748006800F4007040B10448006863
:1014F00040F44070024908600120024908707047BA
:1015000014040140040000200B48806940F00400EE
:10151000094988610948006820F00F000749086000
:101520000846006840F0020008600846006840F085
:1015300004000860704700000010024000080140ED
:1015400010B500F001F810BD0CB50020019000901E
:101550003348006840F480303149086000BF3048AB
:10156000006800F4003000900198401C0190009841
:1015700018B90198B0F5A06FF1D12948006800F4BE
:10158000003010B10120009001E000200090009890
:10159000012843D12348006840F010002149086029
:1015A0000846006820F0070008600846006840F020
:1015B000020008601A4840681949486008464068B7
:1015C00048600846406840F48060486008464068CB
:1015D00020F47C1048600846406840F4E8104860F9
:1015E0000846006840F08070086000BF0C48006842
:1015F00000F000700028F9D00948406820F003008E
:10160000074948600846406840F00200486000BF53
:101610000348406800F00C000828F9D10CBD000018
:10162000001002400020024007480068401C0649A4
:101630000860084600680021044BC01A894102DB9B
:1016400000200149086070471000002000286BEE60
:1016500010B51748006840F480301549086000BF95
:101660001348006800F400300028F9D010484068A2
:1016700040F4E8100E4948600846006840F0807069
:10168000086000BF0A48006800F000700028F9D028
:101690000748406840F002000549486000BF044820
:1016A000406800F00C000828F9D100F003F810BDE4
:1016B0000010024010B5002100200022214B5B6881
:1016C00003F00C0121B1042906D0082928D107E034
:1016D0001D4B1E4C236027E01B4B1C4C236023E05A
:1016E000184B5B6803F47010164B5B6803F4803290
:1016F000022303EB904022B9154B4343134C236064
:101700000DE0104B5B6803F4003323B1104B4343EF
:101710000E4C236003E00C4B43430C4C236003E06E
:10172000094B0A4C236000BF00BF064B5B68C3F344
:101730000313084CE15C054B1B68CB40034C236052
:1017400010BD00000010024000127A0014000020BA
:1017500000093D001800002010B51348006840F053
:1017600001001149086008464068104908400E49C8
:101770004860084600680E4908400B490860084662
:10178000006820F4802008600846406820F4FE00CD
:1017900048604FF41F008860FFF7D2FE4FF00060F2
:1017A0000449086010BD0000001002400000FFF86E
:1017B000FFFFF6FE08ED00E0490050EAC12018BF27
:1017C00004204A0D18BF40F0010040F2FF72B2EB56
:1017D000515F08BF40F00200012808BF0520704794
:1017E00000280DDB00BF00BF00F01F020121914067
:1017F0004209920002F1E022C2F8001100BF00BFCE
:101800007047000010B5002804DB0A07130E054AD4
:10181000135406E00A07140E034A00F00F031B1FBF
:10182000D45410BD00E400E018ED00E030380A2880
:1018300001D20120704700207047000010B5034618
:101840000020012B06D1084C246804F002044CB19E
:10185000012007E0022B05D1044C246804F00204A7
:1018600004B1012010BD0000002401400028014007
:101870002DE9F04107460D4614464FF00008012DB2
:1018800009D1082C02DA8846E6B210E0082C0EDBFB
:101890004046BDE8F081022D09D1022C05DA4FF057
:1018A000010804F10800C6B201E04046F1E7A1B228
:1018B000A8B200231A4600F0C7F8012F1FD1214813
:1018C000806940F400701F49886100201E4908604B
:1018D0001D482C3006600846006840F00100086092
:1018E000642000F050F81848006840F001001649E4
:1018F00008600846006840F00200086020E0022FFF
:101900001ED11048806940F480600E498861002033
:101910000E4908600D482C3006600846006840F00B
:1019200001000860642000F02EF80848006840F0CC
:101930000100064908600846006840F0020008609F
:101940004046A6E700100240082401400828014054
:1019500010B503460020012B02D1044C206803E09F
:10196000022B01D1024C206810BD00004C24014024
:101970004C28014070B505460C4622464E212846AB
:1019800000F046F970BD00B5014600F057F8024678
:1019900000BF00F053F8801A01EB4103C3EBC11301
:1019A000B0EBC30FF5D300BD00B5014600F046F81B
:1019B000024600BF0248801A8842FBD300BD0000E7
:1019C0003D1A00082DE9F04104460D460020E06173
:1019D00065616169606801F01BFF0746216A206844
:1019E00001F016FF8046394601F0BAFD0646E1696E
:1019F00001F0B6FDE061A169A06801F009FF0646AB
:101A0000E16901F0ADFDE061012012E0411E04F149
:101A10001C0252F8212004F11C0141F82020411E33
:101A200004F1140252F8212004F1140141F820209D
:101A3000401E0028EADCE069BDE8F081014800684A
:101A4000704700001000002070B5012847D16C4C91
:101A5000A46944F004046A4DAC6108291ADA694C9F
:101A600024688E000F25B540AC43664D2C602C4693
:101A700024688D0003FA05F52C43624D2C602C463A
:101A80002468022505EB810502FA05F52C435D4D1E
:101A90002C60B3E05B4C241D2468A1F10805AE0066
:101AA0000F25B540AC43574D2D1D2C602C462468A6
:101AB000A1F10805AD0003FA05F52C43514D2D1D8C
:101AC0002C602C462568A1F10804022606EB84044C
:101AD00002FA04F425434B4C241D25608EE00228B5
:101AE00047D1474CA46944F00804454DAC6108292E
:101AF0001ADA454C24688E000F25B540AC43424DA0
:101B00002C602C4624688D0003FA05F52C433E4DCD
:101B10002C602C462468022505EB810502FA05F5A8
:101B20002C43394D2C6069E0374C241D2468A1F109
:101B30000805AE000F25B540AC43334D2D1D2C607C
:101B40002C462468A1F10805AD0003FA05F52C43E5
:101B50002D4D2D1D2C602C462568A1F10804022670
:101B600006EB840402FA04F42543274C241D256067
:101B700044E0032842D1224CA46944F01004204DD3
:101B8000AC6108291ADA214C24680E010F25B540F2
:101B9000AC431E4D2C602C4624688D0003FA05F5DD
:101BA0002C431A4D2C602C462468022505EB810538
:101BB00002FA05F52C43154D2C601FE0134C6468A8
:101BC000A1F10805AE000F25B540AC430F4D6C6088
:101BD0002C466468A1F10805AD0003FA05F52C4315
:101BE0000A4D6C602C466568A1F10804022606EBDC
:101BF000840402FA04F42543044C656070BD0000BF
:101C00000010024000080140000C0140001001409B
:101C100018B503461BBB41EA0200254C208000BFDB
:101C20002348001D008800F002000028F8D00EE0D4
:101C30001F48001D008800901D4808300088009053
:101C40001B48001D008800F0020000B906E018489B
:101C5000001D008800F002000028E9D125E0012BDA
:101C600023D141EA0200134C208000BF1148001D1F
:101C7000008800F002000028F8D00EE00D48001D9A
:101C8000008800900B480830008800900948001D2B
:101C9000008800F0020000B906E00648001D008838
:101CA00000F002000028E9D100BF012018BD0000AB
:101CB000105400401058004002468AB900BF134833
:101CC000008800F080000028F9D01048001F018033
:101CD00000BF0E48008800F080000028F9D012E014
:101CE000012A10D100BF0A48008800F080000028B7
:101CF000F9D00748001F018000BF0548008800F0A8
:101D000080000028F9D001207047000014540040E2
:101D10001458004070B505460C462348806940F0D1
:101D2000010021498861EDB90846C06940F40010FE
:101D3000C86103231A4606210220FFF785FE03230C
:101D40001A4607210220FFF77FFE08201749088066
:101D5000164818300480081F008840F00100091F51
:101D600008801FE0012D1DD10F48C06940F480009C
:101D70000D49C86103231A460A210220FFF764FEB9
:101D800003231A460B210220FFF75EFE08200849B4
:101D90000880074818300480081F008840F00100C0
:101DA000091F0880012070BD00100240045400404B
:101DB00004580040014671B91048008840F4807012
:101DC0000E4A108000BF0D481430008800F001005A
:101DD0000028F8D00FE001290DD10948008840F40F
:101DE0008070074A108000BF05481430008800F05A
:101DF00001000028F8D00120704700000054004086
:101E000000580040014631B90848008840F400708D
:101E1000064A108007E0012905D10548008840F4F2
:101E20000070034A108001207047000000540040F9
:101E30000058004010B51E48806940F001001C4960
:101E400088611C4880681B4988600846C068C86073
:101E50000846006940F01101164801611648006803
:101E600040F446701449086013480830006840F494
:101E70004670114908310860081D006820F446705A
:101E8000091D086002210920FFF7BCFC0920FFF7AB
:101E9000A7FC02210A20FFF7B5FC0A20FFF7A0FCEF
:101EA00001211720FFF7AEFC1720FFF799FC10BDAA
:101EB00000100240000001400004014010B50C4831
:101EC000806940F004000A4988610023022203214E
:101ED0000120FFF7B9FD0023022204210120FFF7B2
:101EE000B3FD0448006840F018000249086010BDC6
:101EF000001002400C08014070B505460C46082150
:101F0000284600F067FE0A20FFF74EFD0C21284608
:101F100000F060FE0520FFF747FD04F0F00040F000
:101F20000C01284600F056FE0A20FFF73DFD04F0A4
:101F3000F00040F00801284600F04CFE1420FFF7A6
:101F400033FD0C21284600F045FE0520FFF72CFD4F
:101F5000F02000EA041040F00C01284600F03AFEA0
:101F60000A20FFF721FDF02000EA041040F00801EC
:101F7000284600F02FFE70BD70B505460C460921BD
:101F8000284600F027FE0A20FFF70EFD0D21284607
:101F900000F020FE0520FFF707FD04F0F00040F000
:101FA0000D01284600F016FE0A20FFF7FDFC04F0A4
:101FB000F00040F00901284600F00CFE1420FFF765
:101FC000F3FC0D21284600F005FE0520FFF7ECFC90
:101FD000F02000EA041040F00D01284600F0FAFD60
:101FE0000A20FFF7E1FCF02000EA041040F00901AC
:101FF000284600F0EFFD70BD10B504462D212046A7
:10200000FFF788FE1420FFF7BEFC0821204600F0F1
:10201000E1FD0A20FFF7C8FC0C21204600F0DAFDA4
:102020000520FFF7C1FC3C21204600F0D3FD0A202B
:10203000FFF7BAFC3821204600F0CCFD0120FFF765
:10204000A2FC0821204600F0C5FD0A20FFF7ACFCE9
:102050000C21204600F0BEFD0520FFF7A5FC3C2129
:10206000204600F0B7FD0A20FFF79EFC38212046ED
:1020700000F0B0FD0120FFF786FC0821204600F0AB
:10208000A9FD0A20FFF790FC0C21204600F0A2FDDC
:102090000520FFF789FC3C21204600F09BFD0A202B
:1020A000FFF782FC3821204600F094FD0120FFF765
:1020B0006AFC0821204600F08DFD0A20FFF774FC21
:1020C0000C21204600F086FD0520FFF76DFC2C2139
:1020D000204600F07FFD0A20FFF766FC28212046FD
:1020E00000F078FD2C212046FFF706FF0520FFF7C2
:1020F0004AFC0C212046FFF7FFFE0520FFF743FCBA
:1021000001212046FFF7F8FE0520FFF73CFC0221E5
:102110002046FFF7F1FE0520FFF735FC10BD2DE945
:10212000F04107460C4615461E464FF00008012CAC
:1021300000D103E0022C01D14FF0400808F18000EB
:102140002844C1B23846FFF7D7FE6420FFF72CFCC5
:102150003146384600F002F8BDE8F08170B5064619
:102160000C46002507E0615D3046FFF705FF6D1C5A
:102170006420FFF719FC605D0028F4D170BD0000F9
:102180002DE9F047044689469246484601F0BCF9DD
:102190000746104A104B00F0CFFF054600F042FD05
:1021A000E06051464FF07E5001F03CFA2061002083
:1021B00008E0002204F1140141F82020083141F820
:1021C0002020401C0228F4DB204600F0E2FBBDE8A2
:1021D000F0870000182D4454FB21194090B0FFF700
:1021E00037FA00F0B5FC0221084600F015F944F674
:1021F0001F620221084600F045FC00F041FB002070
:10220000FFF7FAFE6CA3002201211046FFF787FFBB
:102210006D4803786DA203216D48FDF7E5FF6C4B17
:102220000E2201210020FFF77AFF6A4A6A4907A8B7
:10223000FFF7A6FF022201210846FFF719FB00F075
:102240005FFBFFF73BFE0023022208211046FFF749
:10225000FBFB0023022209211046FFF7F5FB5F4834
:10226000006840F440705D490860FFF74DF9FFF7E2
:10227000E1FD002000F07EFB6420FFF784FB9AE084
:1022800003A800F093FADDE90301CDE90501059803
:1022900001F03AF904460D46069801F035F950A2CE
:1022A0008DE8330032215248FDF79EFF504B00224B
:1022B00002211046FFF733FF454B0E22012100207B
:1022C000FFF72DFF022201210846FFF7B7FA002889
:1022D00031D0022201210846FFF73AFB4549086048
:1022E0000846006801F07CFA0546294607A8FFF772
:1022F00069FB044601F058FA3E4908600846006848
:1023000000F0EFFE824600223B4B00F065FD804668
:1023100000223A4B00F010FF06460022384B01F035
:1023200009F8044600F0B0FE80B202460221049093
:10233000084600F0A7FB4FF47A70FFF724FB314802
:10234000007830B1012805D002280DD0032830D103
:102350000EE02FE0022000F0C1FA5A2000F00AFB44
:102360000A20FFF710FB25E003202649087021E032
:1023700015480078012806DB012000F097FA0120BB
:1023800000F0ACFA02E0012000F090FAFFF756FBF3
:102390001D490968401A1D49884209D3002000F0F0
:1023A000E9FA00201749087019490870194908709E
:1023B00000E000BF00BF63E74E756D204F66205000
:1023C000656F706C653A20000500002025640000F0
:1023D000080000200000C8429A99993E0C0C014068
:1023E000252E3266702D252E3266206F43000000A8
:1023F0005A000020000000200000B0400088D340B8
:102400000000F03F040000200C000020404B4C0076
:1024100006000020070000202DE9F04107460D4688
:102420000026002427B1012F7BD0022F7AD119E199
:10243000D948806940F605010843D749886135B11C
:10244000012D0DD0022D14D0032D24D11AE0012628
:1024500001240323022208210120FFF7F5FA1AE0E4
:1024600002240323022209210120FFF7EDFA0126AD
:1024700011E00324032302220A210120FFF7E4FADA
:10248000012608E004240126032302220B21012057
:10249000FFF7DAFA00BF00BF012E5CD1BF48006829
:1024A000BF49B0FBF1F0401EBE49088044F61F60F2
:1024B000091D0880012C10D1BA480838008840F066
:1024C0000100B84908390880B6481038008840F043
:1024D0006000B4491039088035E0022C10D1B148B1
:1024E0000838008840F01000AE4908390880AD482F
:1024F0001038008840F4C040AA491039088022E012
:10250000032C10D1A7480838008840F48070A549F2
:1025100008390880081F008840F06000091F088003
:1025200011E019E033E1042C0DD19E4808380088F1
:1025300040F480509B4908390880081F008840F407
:10254000C040091F088097482838008840F00100E3
:102550009449283908801AE18F48806940F00500C5
:102560008D4988610846C06940F00100C86135B1F5
:10257000012D0DD0022D14D0032D24D11AE00124F9
:1025800001260323022200210120FFF75DFA1AE051
:1025900002240323022201210846FFF755FA0126EF
:1025A00011E003240323022211460120FFF74CFA15
:1025B000012608E0042401260323022219460120F3
:1025C000FFF742FA00BF00BF012E4AD173480068EE
:1025D0007349B0FBF1F0401E0906088544F61F6000
:1025E0008885012C0AD10846008C40F0010008843F
:1025F0000846008B40F0600008832AE0022C0BD1D3
:102600006007008C40F01000610708840846008BCA
:1026100040F4C04008831CE0032C0DD14FF08040F3
:10262000008C40F480704FF0804108840846808B15
:1026300040F0600088830CE0042C0AD12007008C55
:1026400040F48050210708840846808B40F4C04045
:1026500088834FF08040008840F001004FF08041B7
:10266000088094E04C48806940F00D004A49886138
:102670000846C06940F00200C86135B1012D0DD097
:10268000022D14D0032D24D11AE0012601240323A6
:10269000022206210120FFF7D7F91AE003230222C4
:1026A00007210120FFF7D0F90126022411E00323BE
:1026B000022200211046FFF7C7F90126032408E093
:1026C000012604240323022201211046FFF7BCF94E
:1026D00000BF00BF012E5AD1304800683049B0FB1E
:1026E000F1F0401E3049088044F61F60091D088043
:1026F000012C10D12C480838008840F001002A49EC
:102700000839088028481038008840F060002649C1
:102710001039088033E0022C10D123480838008893
:1027200040F010002049083908801F481038008800
:1027300040F4C0401C491039088020E0032C0ED121
:1027400019480838008840F4807017490839088013
:10275000081F008840F06000091F08800FE0042C6B
:102760000DD111480838008840F480500E490839CE
:102770000880081F008840F4C040091F08800A48EC
:102780002838008840F0010007492839088000BF38
:102790003046BDE8F0810000001002401400002027
:1027A00040420F00282C0140280400402DE9F04F42
:1027B00089B00446FEF7FEFDFEF7C1FD002849D0B2
:1027C000FEF7D1FD0546FEF7CEFD0646FEF7CBFD32
:1027D0008146FEF7C8FD8246FEF7C5FD8346A8196F
:1027E00048445044C0B2584530D1504600F090FCA7
:1027F00000221D4BCDE9000100F0EEFACDE9040105
:10280000484600F085FCCDE90201DDE9042300F033
:102810003BFA074600F006FA0690304600F078FCD6
:102820000022114BCDE9000100F0D6FACDE90201FA
:10283000284600F06DFC0746DDE9022300F024FA8B
:10284000CDE9040100F0EEF9079002E00748069098
:10285000079002E0054806900790DDE90601C4E90B
:10286000000109B0BDE8F08F00005940000080BFB2
:102870000248006800F001007047000008080140AD
:1028800010B50948806940F00400074988610123B8
:10289000002205211846FFF7D7F801230022062160
:1028A0001846FFF7D1F810BD00100240012802D0F1
:1028B00002280ED106E00849096841F02001064AC5
:1028C000116007E00449096841F04001024A1160C3
:1028D00000E000BF00BF704714080140012802D08B
:1028E000022808D103E02021044A116004E04021BD
:1028F000024A116000E000BF00BF704710080140AD
:102900001848806940F00400164988610846C0698B
:1029100040F00100C8611448006820F0F00012493E
:1029200008600846006840F0A00008600F48006892
:102930000F49B0FBF1F0401E0906088544F61F6000
:1029400088850846008B40F4C04008830846008C08
:1029500040F0100008840846008840F0010008801C
:1029600070470000001002400008014014000020E1
:1029700040420F00B42800DDB4204FF4FA62424315
:10298000B42392FBF3F202F5FA7291B21A0711879F
:1029900070472DE9FC5F8246DAE9030100F038FF59
:1029A0008346584600F0B0FD064600224FF08043B3
:1029B00000F06AF980468946584600F0A5FD0646B3
:1029C00000224FF0804300F0B5FC81F00041424608
:1029D0004B46CDE9000100F0FFF9044600F022F972
:1029E000CAF80000584600F08FFD00224FF08043E7
:1029F000CDE9000100F048F906460F46584600F0C0
:102A000083FD804632463B4600F0E6F9044600F07E
:102A100009F9CAF80400584600F076FD00224FF08C
:102A20008043CDE9000100F02FF906460F465846D5
:102A300000F06AFD804632463B4600F0CDF9044680
:102A400000F0F0F8CAF80800BDE8FC9F05480068EF
:102A500020F00F00034908600846006840F00400B9
:102A600008607047000801400548006820F00C002D
:102A7000034908600846006840F006000860704797
:102A80000008014010B50346002023B1012B1FD0E0
:102A9000022B54D136E031B1012908D002290BD0E4
:102AA000032913D10DE00120264C22800EE00120E5
:102AB000244C241D228009E00120224C083422806D
:102AC00004E001201F4C0C34228000BF00BF36E020
:102AD00031B1012908D002290AD0032910D10BE015
:102AE00001208407A2860BE001208407228707E0EB
:102AF00001208407A28703E00120134C228000BF3D
:102B000000BF1CE031B1012908D002290BD00329F4
:102B100013D10DE001200D4C22800EE001200B4C62
:102B2000241D228009E00120084C0834228004E0A2
:102B30000120064C0C34228000BF00BF00BF00BF44
:102B400010BD0000342C014040000040340400401F
:102B500010B572B600204FF0E021086119480068F6
:102B60001949B0FBF1F04FF0E021486148170F21FF
:102B7000002804DB0A07130E144A135406E00A0760
:102B8000140E134A00F00F031B1FD45400BF002083
:102B90004FF0E021886107200861481700280DDB0D
:102BA00000BF00BF00F01F020121914042099200C6
:102BB00002F1E022C2F8001100BF00BF00BF62B600
:102BC00010BD00001400002040420F0000E400E0AF
:102BD00018ED00E070B504460D462046FFF7EAF810
:102BE00000212046FEF7C6FE29462046FFF764F87E
:102BF0002046FFF707F970BD10B500290AD0087804
:102C0000002807D005487844FDF78AFF002801D046
:102C1000002010BD0248784410BD0000460F00009F
:102C20003E0F000021F00042A2F16052B2F5801F79
:102C300001F0004328BFD2F17F6C0BD95FEA001C82
:102C400043EAC20242EB507018BF704728BF20F021
:102C500001007047B2F5801FBCBF184670474FEAAD
:102C6000410C1CF5001F02D2084600F098BE70B55A
:102C700000F00CFB00000089FFF7F6BF4FF00040AA
:102C8000A0F580007047000010B591EA030F48BF1F
:102C900083F0004300F15683841A71EB030C05D2D4
:102CA000121943EB0C03001B61EB0C01DFF824E16C
:102CB0004FEA1154A4EB135C1EEA430F18BF9EEABF
:102CC000445F73D023EA0E03DCF1200E21EA0451A5
:102CD00043F4801332D322FA0CFE10EB0E0023FAD9
:102CE0000CFE41EB0E01CCF1200E03FA0EFE10EBB0
:102CF0000E0051F10001B1F5801FCCF1200E32D24F
:102D000001EB045112FA0EF2BDE8104058BF7047B3
:102D1000401C38BF5FEA420218BF7047002814BF4A
:102D200020F0010041F100014FEA410313F5001FBB
:102D300038BF7047A1F1C04100F0F6BA012A43EB59
:102D40000302ACF1200CDCF11F0E32BF4FF0000E7D
:102D500023FA0CF310EB030041EB0451B4EB115FC9
:102D6000D0D0A1EB045101F5801149085FEA300091
:102D700001EB04510ED350F1000038BF12FA0EFEE1
:102D800008D1BDE81040C9E7401C38BF5FEA4202E5
:102D9000CAD1C3E7BDE810404FEA410313F5001F55
:102DA00038BF7047A1F1C04100F0BEBA9EEA445F4F
:102DB00008D011EA5E0FBDE8104004BF01F00041E9
:102DC00000207047BDE8104070B500F05FFA00BF0A
:102DD00064FBBE3E0000E0FF2DE9C04130B4DFF8E7
:102DE000A0C23CEA111418BF3CEA131400F0EC80B6
:102DF00081EA03051CEA111444EAD57418BF1CEAE1
:102E0000131500F0C780A4EB05044FF0004545EA18
:102E1000C12145EAC32341EA505143EA525304F128
:102E20007F74994204F500344FEAC0204FEAC22271
:102E300008BF904200F09C804FEA13650FF24016E5
:102E4000765D4FEA134506FB05F7C7F1807706FB71
:102E500007F74FEAD737A7FB03687642C8F58038F3
:102E6000A7FB06CE38BFA8F1010807FB08E64FF024
:102E7000000EA6FB028CE6FB03CEDCF1000CCEF1CB
:102E8000004E38BFAEF1010EA6FB0C584FF0000704
:102E90004FF00005E6FB0E87A1FB08C6A0FB07CE9E
:102EA00016EB0E0645F10005E1FB076515F1E04E56
:102EB0007EBFA4F580345FEA46066D4116F18007B7
:102EC00045F100054FEA17274FEA066647EA05670E
:102ED000A6F1DE46B6F1805F4FEA15251FD93846C8
:102EE00024F0010C05EBC471BCF1FE6F01EB0C1179
:102EF00002D8F0BCBDE8008124425CBF01F5801E11
:102F00009EEAC47F02D4F0BCBDE80081244238D4DC
:102F1000F0BCA1F1C041BDE8004100F005BA4FEAA4
:102F2000D22242EA43524FEAD323A7FB02864FEA5A
:102F3000D02040EA415007FB03661EEA0E0F4FEA1D
:102F4000D12105FB026658BFA6EB0056B6EB005632
:102F50004FEA520E4EEAC37E18EB0E0E56EB530E9E
:102F6000BDD518EB02085E417F1C55F10005B6E7A0
:102F70004FF480154FF000074FF000064FF00008A7
:102F8000ADE7F0BC4FF0000001F1C04101F000419D
:102F9000BDE8008111EA0C1F0CEA131500D00CE00B
:102FA00013EA0C1F00F025804FF00000F0BC81EA0E
:102FB000030101F00041BDE80081F0BCBDE8004123
:102FC00081EA030100F0B0B9F0BCBDE8004170B582
:102FD00000F05CF9097EFC3E00F007B881EA0301CD
:102FE0004FF0000001F00041704781EA030100F05A
:102FF0009BB9F0BCBDE800414FF00000214970478B
:10300000FFFDFBF9F7F5F4F2F0EEEDEBE9E8E6E4AD
:10301000E3E1E0DEDDDBDAD8D7D5D4D3D1D0CFCD34
:10302000CCCBCAC8C7C6C5C4C2C1C0BFBEBDBCBB6D
:10303000BAB9B8B7B6B5B4B3B2B1B0AFAEADACAB68
:10304000AAA9A8A8A7A6A5A4A3A3A2A1A09F9F9E42
:103050009D9C9C9B9A9999989797969595949393F4
:10306000929191908F8F8E8E8D8C8C8B8B8A89898B
:10307000888887878685858484838382828181800E
:103080000000FF070000F87F4FEA1153A3F58063AB
:10309000D3F11E03A8BFD3F1200C08DB4FF0004290
:1030A00042EAC12252EA505232FA03F07047094212
:1030B0000BD4102BC4BF0020704703F5787CBCF103
:1030C000FF3F05D04FF0FF3070474FF000007047D2
:1030D00070B500F0DBF800BF4992248000207047F3
:1030E000F0E710F0004248BF4042B0FA80F310FA17
:1030F00003F10AD0C3F11D0303F580634FEA415089
:1031000002EB035202EBD12170474FF000007047F1
:10311000B0FA80F310FA03F10AD0C3F11D0303F5EE
:1031200080634FEA41504FEA035202EBD1217047CE
:103130004FF0000070470000DFF848C170B51CEA8E
:10314000111E1EBF1CEA13159EEA0C0F95EA0C0F08
:1031500000F06F8081EA030423EA4C134EEAD47E28
:1031600021EA4C1141F4801143F48013AE44A1FBD9
:10317000024CA0FB0365AEF17F7E361955EB0C05C2
:10318000A1FB034C4CF10003A0FB021C16EB0C0648
:10319000654153F10003094218BF46F0010613F4DC
:1031A000007F0BD14FEA03314FEA0530340341EA87
:1031B000155140EA16506FF003020AE04FEAC321AE
:1031C0004FEAC520F40241EA555140EA56506FF0EB
:1031D000020202EB2E4201EB025585EACE710AD0C3
:1031E0005FEA440C18BF24F0004450F1000041F1A4
:1031F000000120EAD47040F2FE7C624500D270BD2E
:10320000A84214BF4FF080444FF04044002E08BF46
:103210000024BEF1806FA8BFA1F1C041BDE870409D
:1032200080F282804FF0000001F1C04101F00041C6
:1032300070479EEA0C0F0CEA131518BF95EA0C0FA5
:1032400006D04FF0000081EA030E0EF0004170BD81
:1032500000F01CF88900013E00F007B800F009B842
:103260004FEA430C5FEA5C5C08D081EA030100F09E
:103270005BB84FEA410C5FEA5C5CF6D14FF00000AE
:10328000014970470000FF070000F87F0EF1020EB1
:103290002EF0030E5EF8046B364205D4012A43EB90
:1032A000030515F5001F12D8012841EB010C1CF590
:1032B000001F0CD80ED14FEAD17C15F5001F0CEB86
:1032C0004C0C0CF1020C08BF4CEBD37C04E04FF02B
:1032D000080C01E04FEAD37C0CEB4C0526FA05F60E
:1032E00006F00706B6F1040C06D20EEB860CBDE81C
:1032F00070404CF0010C6047DFE80CF0090B020253
:103300004FF000414FF00000A1F5002170BD1946BB
:103310001046012851EB010418BFD4F5001484BFF6
:10332000002001F0004170BD0808A0F500114FEA2F
:103330003101704710B591EA030F48BF83F0004395
:103340003FF5AAAC841A71EB030C07D212198CF06A
:10335000004C43EB0C03001B61EB0C01DFF8A4E114
:103360004FEA1154A4EB135C1EEA430F18BF9EEA08
:10337000445F00F0B08023EA6E03524221EA045118
:10338000C3EB6E0338BF5B1EDCF1200E25D322FA9F
:103390000CFE10EB0E0043FA0CFE41EB0E01CCF1DB
:1033A000200E03FA0EFE10EB0E0051F10001CCF1DD
:1033B000200E29D412FA0EF201EB0451BDE81040A0
:1033C00058BF7047401C1CBFB2F1004F7047002827
:1033D0000CBF491C20F00100704712EB020E43EBBA
:1033E000030218BF4FF0010E4EEA4202ACF1200C6E
:1033F000DCF11E0E54D943FA0CFE10EB0E0051F115
:10340000FF31CCF11E0ED5D50EF1010E12FA0EFED3
:10341000404141EB010101EB445C5FEA5C5C10D987
:1034200010EBDE7001EB045138BFBEF1004FBDE878
:10343000104018BF704700280CBF491C20F0010045
:10344000704730D24FEAD42C11F5001124F40064F7
:103450001BD0B1FA81F20B3AA41AA41ED2F12003B8
:10346000914030FA03F31943904001EBCC71002CEA
:1034700001EB0451BDE81040A8BF704701F1C04105
:103480004FF0000001F000417047B0FA80F310FAED
:1034900003F100D110BDE41A173C4805C90AE4E75E
:1034A00001EB045110BD491001EB0451BDE810407F
:1034B0004FEA300002E04FF0000170474A0008BFB9
:1034C0000042F8D0B2F5001F28BF704701F000415C
:1034D0004FF0000070479EEA445F07D011EA5E0F8C
:1034E000BDE8104004BF002100207047BDE8104037
:1034F00070B5FFF7CBFE00BF40DFF63E83F0004122
:10350000104670470000E0FF43004FEAD30C4FEA3B
:103510003C0C43401FBF40070CF1605113F0FE4FBD
:1035200070471CF0006F03D100200CF00041704781
:103530000CF0004343EA507010B540EACC0000F0B4
:10354000E8F900BF000000924FEA0001FFF7ECBE6F
:103550004FF000414FF00000A1F50021704700003E
:1035600090EA010F48BF81F0004100F12482421A25
:103570003CBF801A89184FEAD0524FF07F4C1CEAAA
:10358000410FA2EBD15318BF9CEA026F00F03B80C1
:103590004FF0004C4CEA00204CEA012121FA03FCD8
:1035A00010EB0C0C1ED202F1FF325FEA1C2040EB44
:1035B000C25038BF70471CF07F0F4FEA400C18BF55
:1035C000BCF17F4F38BF7047C3F12003994008BF5B
:1035D00020F00100BCF17F4F38BF7047A0F1C04020
:1035E00000F0DDB94FEA3C00000A40EBC25028BFB2
:1035F0001CF0FF0F4FEA400CE6D018BFBCF17F4F24
:1036000038BF7047EAE79CEA026F05D010EA5C0F0A
:1036100008BF00F00040704710B500F07AF900BF15
:1036200064FBBE3E4FF47F0C1CEAD0121EBF1CEAA6
:10363000D11392EA0C0F93EA0C0F00F0858090EA08
:10364000010F48BF42F4807240F4000C41F40000C6
:103650002CF07F4120F07F4000B58142A2EB0302B5
:103660000FF2081CACEB504EC0F100009EF800E0D9
:103670004FEA4E0E00FB0EFC38BF49004FEA2C1CEF
:1036800002F5FA020CFB0EF34FEACE1E4FEA112CA4
:103690004FEAC1210EEB635E42EB22420EFB0CFCB3
:1036A0004FEA1C5300FB03114FEA112C4FEA013182
:1036B0000EFB0CFC4FEADC4C00FB0C11C14228BF96
:1036C00009184CEB03335DF804EB10EB410143EBBD
:1036D000C250B2F57C0F38BF704729D512F0F00FF9
:1036E0001CBF00F1C04000F00040704700818283A1
:1036F0008485868788898B8C8D8E8F919293959601
:1037000097999A9C9D9FA0A2A3A5A7A8AAACAEB08A
:10371000B2B3B5B7B9BCBEC0C2C5C7C9CCCED1D48F
:10372000D7D9DCDFE2E6E9ECF0F3F7FAFE000000BF
:103730004FEA400C0CF1807CBCF17E4F28BF7047F3
:10374000B0F1C04000F02BB990EA010F0CEAD113A0
:1037500048BF42F48072624538BF634507D213F414
:103760007F0F16D080EA010000F00040704710B5CE
:1037700000F0CFF8097EFC3E00F005B880EA0100B9
:1037800000F00040704780EA010000F0004000F0C7
:1037900006B912F47F0F04BF0248704780EA0100A7
:1037A00000F0FDB80000C07F41000B0ED3F19E0277
:1037B00008D950F400034FEA032323FA02F048BF6C
:1037C0004042704710B500F0A4F800BF4992248031
:1037D000002070476FF0004282EA2000704700002E
:1037E00010F0004148BF4042B0FA80F310FA03F2F3
:1037F000C3F19D030BD051EAC35101EB12205306D4
:1038000038BF704700F1010008BF20F00100704789
:103810004FF47F0C1CEAD0121EBF1CEAD11392EAAF
:103820000C0F93EA0C0F00F0478090EA010F48BF9D
:1038300042F480724FF0004C4CEA00204CEA012127
:1038400002EB0302A0FB0113A2F50002002918BF3E
:1038500043F001035B0028BF4FEA330342EB2242EF
:103860005FEA132C4CEBC2502EBFBCEB436FB2F59A
:103870007C0F70474FEA036CBCF1004F08BF20F08B
:103880000100B2F57C0F38BF70470BD582F0FF0204
:1038900012F5803FC8BF704700F1C040D8BF00F0AC
:1038A0000040704700F5000C5FEA4C0C48BF7047C1
:1038B000B0F1C04000F073B890EA010F0CEAD113E8
:1038C00048BF42F48072624538BF634504D280EA43
:1038D000010000F00040704710B500F01AF800BF7A
:1038E0008900013E00F007B800F009B85FEA410C1A
:1038F0005FEA1C6C08D080EA010000F050B85FEA73
:10390000400C5FEA1C6CF6D14FF00040A0F580003F
:1039100070470EF1020E2EF0030E5EF8044B2442A7
:1039200004D44FEA4102B2F17F4F11D84FEA40036D
:10393000B3F17F4F0CD80ED14FEAD07CB2F17F4F5C
:103940000CEB4C0C0CF1020C08BF4CEBD17C04E0EE
:103950004FF0080C01E04FEAD17C0CEB4C0324FA49
:1039600003F404F00704B4F1040C06D20EEB840C4B
:10397000BDE810404CF0010C6047DFE80CF0070890
:1039800002024FF00040A0F5800010BD0846420042
:1039900018BFD2F1807288BF00F0004010BDFF2137
:1039A00041EAD050C005704790EA010F48BF81F04E
:1039B00000413FF5DCAD421A04D882F00042A0EB92
:1039C000020011444FEAD0524FF07F4C1CEA410FE5
:1039D000A2EBD15318BF9CEA026F4AD04FF0004CC3
:1039E0004CEA00204CEA012121FA03FCB0EB0C0C5C
:1039F0000FD412F0FE0F36D05FEA4C001DD5001236
:103A000040EBC25038BF70471CF03F0F18BF7047E3
:103A10000BE0A2F101025FEA1C2040EBC25038BF6C
:103A200070471CF07F0F18BF7047C3F12003994007
:103A300014BF401E20F00100704780084FEA122397
:103A400008BF7047B0FA80FCA2EB0C02CCF1280C46
:103A500060FA0CF093EA122F04BF00EBC2507047DB
:103A60004FEAC3707047130A5FEADC1008BF704763
:103A7000F6E79CEA026F04D010EA5C0F08BF002052
:103A8000704710B5FFF745FF40DFF63E81F000407C
:103A90007047FCF7BBBD000002400000000000A022
:103AA0000000000005400000000000C80000000009
:103AB0000C4000000000409C000000001940000085
:103AC0000020BCBE0000000034400000BFC91B8EB7
:103AD00000000004B5400000504BCFD06607E2CF95
:103AE000010000006C4100003E8251AADFEEA734C5
:103AF00001000000D9420000DCB5A0E23A301F9777
:103B0000FFFFFFFFB4450000FD25A0C8E9A3C14F9A
:103B1000FFFFFFFFFF3F00000000008000000000EB
:103B2000FF3F00000000008000000000683B00082C
:103B3000000000202800000028010008903B000839
:103B400028000020C8060000440100081C000000F6
:103B500043000000F8FFFFFF0C0000000E00000013
:103B60000F0000002E000000000000000000000018
:103B700000000000000000000000000000A24A0455
:103B8000000000000000000001020304060708090D
:04000005080001A945
:00000001FF
