:020000040800F2
:100000000807002091010008990100089B010008E1
:100010009D0100089F010008A101000800000000E8
:10002000000000000000000000000000A301000824
:10003000A501000800000000A7010008A9010008B0
:10004000AB010008AB010008AB010008AB010008E0
:10005000AB010008AB010008AB010008AB010008D0
:10006000AB010008AB010008AB010008AB010008C0
:10007000AB010008AB010008AB010008AB010008B0
:10008000AB010008AB010008AB010008AB010008A0
:10009000AB010008AB010008AB010008AB01000890
:1000A000AB0100087D060008AB010008AB010008A9
:1000B000AB010008AB010008AB010008AB01000870
:1000C000AB010008AB010008AB010008AB01000860
:1000D000AB010008AB010008AB010008AB01000850
:1000E000AB010008AB010008AB01000800F002F80A
:1000F00000F03FF80AA090E8000C82448344AAF183
:100100000107DA4501D100F034F8AFF2090EBAE880
:100110000F0013F0010F18BFFB1A43F0010318473B
:10012000882A0000A82A0000103A24BF78C878C1A5
:10013000FAD8520724BF30C830C144BF04680C60ED
:10014000704700000023002400250026103A28BF35
:1001500078C1FBD8520728BF30C148BF0B60704739
:10016000642900F08380002070471FB51FBD10B5C3
:1001700010BD00F038F91146FFF7F7FF00F0F2FF6D
:1001800000F056F903B4FFF7F2FF03BC00F05EF98C
:100190000948804709480047FEE7FEE7FEE7FEE71B
:1001A000FEE7FEE7FEE7FEE7FEE7FEE70448054957
:1001B000054A064B704700001D060008ED000008C8
:1001C0000801002008070020080300200803002081
:1001D0000FB41CB50C0007AA009001D02044401EAB
:1001E000074B7B4469460190069800F0DCF8002C30
:1001F00003D06946002000F0E9F81CBC5DF814FB50
:10020000F10100002DE9F0410E4604460020206275
:100210002046E168884730B3252805D0D4E901217C
:100220009047206A401CF2E7E16820460027884793
:10023000050018D0A5F14100192802D820354FF447
:1002400000673246294620462760FFF789FF40B104
:10025000012804D0F61D26F007060836D8E7361D1B
:10026000D6E72846DAE7206ABDE8F0812DE9F041BB
:100270000646002410687529314616A510D0AFF344
:100280000080002802DA404213A507E031688A079F
:1002900001D512A502E0490704D511A5012401E00A
:1002A000AFF3008000210A2206F1240709E0B0FB29
:1002B000F2FCB0FBF2F302FB1C003030785418461D
:1002C000491C0028F3D123462A463046BDE8F041B8
:1002D00000F00BB8000000002D0000002B00000013
:1002E000200000007047704770472DE9F0470D4629
:1002F00099469246044600F124080168880604D510
:10030000E06921F01001216000E00120A84201DD38
:10031000471B00E00027A1697A1902EB0900081ABF
:10032000A0612078C00602D42046AFF300800026EA
:1003300008E0D4E901211AF806009047206A401C21
:10034000761C20624E45F4DB2078C0060AD5204694
:10035000AFF3008006E0D4E9012130209047206A05
:10036000401C2062381EA7F10107F4DC07E0D4E945
:10037000012118F805009047206A401C2062281EC1
:10038000A5F10105F3DC2046AFF3008020780006DC
:1003900002D50220BDE8F0870120FBE701694A1C75
:1003A00002610878704700B58FB0CDE901310021B6
:1003B000059105497944CDE9031011466846FFF7D8
:1003C00021FF0FB000BD0000E5FFFFFF0A6802F843
:1003D000010B0A607047D1E900239A4202D2531CF4
:1003E0000B6010707047754600F02CF8AE460500A3
:1003F0006946534620F00700854618B020B5FFF740
:10040000D5FEBDE820404FF000064FF000074FF04A
:1004100000084FF0000B21F00701AC46ACE8C00922
:10042000ACE8C009ACE8C009ACE8C0098D4670472B
:1004300010B50446AFF300802046BDE81040FFF73A
:10044000A1BE000000487047A40000200149182008
:10045000ABBEFEE726000200704710B5002428203E
:1004600000F0BAF901F06EFA48B9502000F0B4F982
:1004700001F068FA00B10124322000F0ADF9204605
:1004800010BD70B5002500241DE000BF01F05AFA30
:100490000028FBD0282000F09FF901F053FA28B97A
:1004A000C4F107010120884085430AE0C4F1070137
:1004B000012088402843C5B200BF01F043FA00285C
:1004C000FBD1601CC4B2082CDFDB284670BD0000E5
:1004D00010B501F033FB4FF480300749086044F257
:1004E000506000F079F9012003490860142000F001
:1004F00073F901F015FB10BD100801400B4880692D
:1005000040F00400094988610948006820F00F00A4
:10051000074908600846006840F002000860084685
:10052000006840F0040008607047000000100240BE
:100530000008014010B500F001F810BD0CB5002016
:10054000019000903348006840F4803031490860E1
:1005500000BF3048006800F4003000900198401C53
:100560000190009818B90198B0F5A06FF1D1294811
:10057000006800F4003010B10120009001E000207C
:1005800000900098012843D12348006840F01000F3
:10059000214908600846006820F007000860084606
:1005A000006840F0020008601A4840681949486035
:1005B0000846406848600846406840F480604860EB
:1005C0000846406820F47C1048600846406840F4C3
:1005D000E81048600846006840F08070086000BF7E
:1005E0000C48006800F000700028F9D00948406805
:1005F00020F00300074948600846406840F00200C8
:10060000486000BF0348406800F00C000828F9D19A
:100610000CBD0000001002400020024010B513483D
:10062000006840F001001149086008464068104920
:1006300008400E494860084600680E4908400B49CA
:1006400008600846006820F480200860084640687A
:1006500020F4FE0048604FF41F008860FFF76AFF37
:100660004FF000600449086010BD00000010024017
:100670000000FFF8FFFFF6FE08ED00E008480088E4
:1006800000F0010050B10648008820F00100044944
:10069000088004480068401C024908607047000058
:1006A000102C0140000000202DE9F04107460D46C6
:1006B00014464FF00008012D09D1082C02DA8846B3
:1006C000E6B210E0082C0EDB4046BDE8F081022DBA
:1006D00009D1022C05DA4FF0010804F10800C6B276
:1006E00001E04046F1E7A1B2A8B200231A4600F0AB
:1006F000BBF8012F1FD12148806940F400701F49C9
:10070000886100201E4908601D482C30066008469C
:10071000006840F001000860642000F050F81848BC
:10072000006840F00100164908600846006840F083
:100730000200086020E0022F1ED11048806940F4BA
:1007400080600E49886100200E4908600D482C30F9
:1007500006600846006840F001000860642000F070
:100760002EF80848006840F0010006490860084675
:10077000006840F0020008604046A6E70010024012
:10078000082401400828014010B503460020012B31
:1007900002D1044C206803E0022B01D1024C2068F6
:1007A00010BD00004C2401404C28014070B50546A6
:1007B0000C4622464E21284600F022FA70BD10B5A4
:1007C0000346002404E04FF47A7000F005F8641C3E
:1007D0009C42F8D310BD00000021044A118000BFE4
:1007E000024909888142FBD3704700002408004079
:1007F0002DE9F04104460D460020E0616561616924
:10080000606802F08FF80746216A206802F08AF8D3
:100810008046394601F02EFF0646E16901F02AFFC5
:10082000E061A169A06802F07DF80646E16901F087
:1008300021FFE061012012E0411E04F11C0252F888
:10084000212004F11C0141F82020411E04F1140272
:1008500052F8212004F1140141F82020401E002804
:10086000EADCE069BDE8F08170B5012847D16C4C45
:10087000A46944F004046A4DAC6108291ADA694C91
:1008800024688E000F25B540AC43664D2C602C4685
:1008900024688D0003FA05F52C43624D2C602C462C
:1008A0002468022505EB810502FA05F52C435D4D10
:1008B0002C60B3E05B4C241D2468A1F10805AE0058
:1008C0000F25B540AC43574D2D1D2C602C46246898
:1008D000A1F10805AD0003FA05F52C43514D2D1D7E
:1008E0002C602C462568A1F10804022606EB84043E
:1008F00002FA04F425434B4C241D25608EE00228A7
:1009000047D1474CA46944F00804454DAC6108291F
:100910001ADA454C24688E000F25B540AC43424D91
:100920002C602C4624688D0003FA05F52C433E4DBF
:100930002C602C462468022505EB810502FA05F59A
:100940002C43394D2C6069E0374C241D2468A1F1FB
:100950000805AE000F25B540AC43334D2D1D2C606E
:100960002C462468A1F10805AD0003FA05F52C43D7
:100970002D4D2D1D2C602C462568A1F10804022662
:1009800006EB840402FA04F42543274C241D256059
:1009900044E0032842D1224CA46944F01004204DC5
:1009A000AC6108291ADA214C24680E010F25B540E4
:1009B000AC431E4D2C602C4624688D0003FA05F5CF
:1009C0002C431A4D2C602C462468022505EB81052A
:1009D00002FA05F52C43154D2C601FE0134C64689A
:1009E000A1F10805AE000F25B540AC430F4D6C607A
:1009F0002C466468A1F10805AD0003FA05F52C4307
:100A00000A4D6C602C466568A1F10804022606EBCD
:100A1000840402FA04F42543044C656070BD0000B0
:100A20000010024000080140000C0140001001408D
:100A300002460B46012000FA03F1012A04D0022AE3
:100A40000AD0032A18D10FE00C480068084008B10A
:100A5000012070470020FCE709480068084008B101
:100A60000120F6E70020F4E706488068084008B156
:100A70000120EEE70020ECE70020EAE7080801404B
:100A8000080C01400010014010B500F0CBF900281F
:100A900035D14F480078012831D100204C490870E9
:100AA0004C480078012813D14B480078002804DD19
:100AB00049480078401E484908704748037847A2D3
:100AC00003214748FFF784FB00204249087025E0D6
:100AD0004048007810BB4348007840B95A2000F0E5
:100AE000B3FF0A20FFF76BFE01203E49087001208A
:100AF0003D4908703D4800683D4908800EE000F01F
:100B000091F901280AD13248007838B900F08AF901
:100B10002F490870354800683649086000F08AF9A6
:100B200088BB3548007801282ED100203249087052
:100B30002D48007801280FD127480078401C26490D
:100B400008700846037825A203212548FFF740FBDB
:100B500000202549087026E02348007818BB21486A
:100B6000007840B95A2000F06FFF0A20FFF727FEF7
:100B700001201C4908700120164908701B480068B4
:100B80001E4908800FE0FFE700F054F901280AD160
:100B90001948007838B900F04DF917490870134822
:100BA0000068144908601148006811490988401A12
:100BB000082802D300200C4908700C4800680F492F
:100BC0000988401A082802D300200249087010BD85
:100BD000250000200B0000200900002025640000F3
:100BE0000C000020240000200A000020000000204B
:100BF0001000002014000020260000201200002019
:100C000018B503461BBB41EA0200254C208000BFFB
:100C10002348001D008800F002000028F8D00EE0F4
:100C20001F48001D008800901D4808300088009073
:100C30001B48001D008800F0020000B906E01848BB
:100C4000001D008800F002000028E9D125E0012BFA
:100C500023D141EA0200134C208000BF1148001D3F
:100C6000008800F002000028F8D00EE00D48001DBA
:100C7000008800900B480830008800900948001D4B
:100C8000008800F0020000B906E00648001D008858
:100C900000F002000028E9D100BF012018BD0000CB
:100CA000105400401058004002468AB900BF134853
:100CB000008800F080000028F9D01048001F018053
:100CC00000BF0E48008800F080000028F9D012E034
:100CD000012A10D100BF0A48008800F080000028D7
:100CE000F9D00748001F018000BF0548008800F0C8
:100CF00080000028F9D00120704700001454004003
:100D00001458004070B505460C462348806940F0F1
:100D1000010021498861EDB90846C06940F400101E
:100D2000C86103231A4606210220FFF79DFD032315
:100D30001A4607210220FFF797FD0820174908806F
:100D4000164818300480081F008840F00100091F71
:100D500008801FE0012D1DD10F48C06940F48000BC
:100D60000D49C86103231A460A210220FFF77CFDC2
:100D700003231A460B210220FFF776FD08200849BD
:100D80000880074818300480081F008840F00100E0
:100D9000091F0880012070BD00100240045400406B
:100DA00004580040014671B91048008840F4807032
:100DB0000E4A108000BF0D481430008800F001007A
:100DC0000028F8D00FE001290DD10948008840F42F
:100DD0008070074A108000BF05481430008800F07A
:100DE00001000028F8D001207047000000540040A6
:100DF00000580040014631B90848008840F40070AE
:100E0000064A108007E0012905D10548008840F412
:100E10000070034A10800120704700000054004019
:100E20000058004002480068C0F3C000704700004E
:100E30000808014002480068C0F300107047000035
:100E40000808014010B50C48806940F004000A49C8
:100E500088610023022203210120FFF705FD002302
:100E6000022204210120FFF7FFFC0448006840F043
:100E700018000249086010BD001002400C08014033
:100E800070B505460C460821284600F043FF0A20AD
:100E9000FFF7A2FC0C21284600F03CFF0520FFF7DD
:100EA0009BFC04F0F00040F00C01284600F032FFFB
:100EB0000A20FFF791FC04F0F00040F008012846FA
:100EC00000F028FF1420FFF787FC0C21284600F0D3
:100ED00021FF0520FFF780FCF02000EA041040F01D
:100EE0000C01284600F016FF0A20FFF775FCF020E1
:100EF00000EA041040F00801284600F00BFF70BD26
:100F000070B505460C460921284600F003FF0A206B
:100F1000FFF762FC0D21284600F0FCFE0520FFF7DC
:100F20005BFC04F0F00040F00D01284600F0F2FEFA
:100F30000A20FFF751FC04F0F00040F009012846B8
:100F400000F0E8FE1420FFF747FC0D21284600F0D2
:100F5000E1FE0520FFF740FCF02000EA041040F01D
:100F60000D01284600F0D6FE0A20FFF735FCF020E0
:100F700000EA041040F00901284600F0CBFE70BDE5
:100F800010B504462D212046FFF7BCFE1420FFF7C4
:100F900016FC0821204600F0BDFE0A20FFF71CFCCD
:100FA0000C21204600F0B6FE0520FFF715FC3C2181
:100FB000204600F0AFFE0A20FFF70EFC3821204645
:100FC00000F0A8FE0120FFF7FAFB0821204600F000
:100FD000A1FE0A20FFF700FC0C21204600F09AFE3B
:100FE0000520FFF7F9FB3C21204600F093FE0A2084
:100FF000FFF7F2FB3821204600F08CFE0120FFF7BE
:10100000DEFB0821204600F085FE0A20FFF7E4FB06
:101010000C21204600F07EFE0520FFF7DDFB3C2181
:10102000204600F077FE0A20FFF7D6FB3821204645
:1010300000F070FE0120FFF7C2FB0821204600F0FF
:1010400069FE0A20FFF7C8FB0C21204600F062FE73
:101050000520FFF7C1FB2C21204600F05BFE0A2093
:10106000FFF7BAFB2821204600F054FE2C21204631
:10107000FFF706FF0520FFF7A2FB0C212046FFF734
:10108000FFFE0520FFF79BFB01212046FFF7F8FE3E
:101090000520FFF794FB02212046FFF7F1FE052013
:1010A000FFF78DFB10BD2DE9F04107460C461546B4
:1010B0001E464FF00008012C00D103E0022C01D1A4
:1010C0004FF0400808F180002844C1B23846FFF7CD
:1010D000D7FE6420FFF780FB3146384600F002F867
:1010E000BDE8F08170B506460C46002507E0615D5D
:1010F0003046FFF705FF6D1C6420FFF76DFB605D58
:101100000028F4D170BD00002DE9F047044689465F
:101110009246484601F082FA0746104A104B01F009
:1011200095F8054600F008FEE06051464FF07E500D
:1011300001F002FB2061002008E0002204F114010C
:1011400041F82020083141F82020401C0228F4DB1F
:10115000204600F088FCBDE8F0870000182D4454BC
:10116000FB2119408CB000F05DFD00F0F3FB002086
:10117000FFF706FF00F02EFCFFF764FE00230222BB
:1011800008211046FFF770FB0023022209211046B8
:10119000FFF76AFBFFF7B2F94FF08042AE4902A8B1
:1011A000FFF7B2FFADA3002201211046FFF77BFF3E
:1011B000AE480378AEA20321AE48FFF709F8AD4B65
:1011C0000E2201210020FFF76EFF002000F03CFC02
:1011D0000020A94908706420FFF7F1FA02210846AF
:1011E00000F06CF944F61F620221084600F0B4FCDE
:1011F000022201210846FFF757FA2BE109210220BC
:10120000FFF716FC20B108210220FFF711FC98B966
:1012100001209A490870022000F0CAFB9848006833
:10122000984908605A2000F00FFC954800689649DC
:1012300008600A20FFF7C3FA9148006893490968DB
:10124000401A4ED000F004FB0B908D4800688F4987
:1012500008609DF82D0000909DF82C308CA2322162
:101260009048FEF7B5FF8F4B002202211046FFF792
:101270001AFF804B0E2201210020FFF714FF0222EB
:1012800001210846FFF780FA874908600846006890
:1012900001F030FB0546294602A8FFF7A9FA0446EB
:1012A00001F00CFB804908600846006800F0A3FFCD
:1012B000804600227D4B00F019FE064600227C4B42
:1012C00000F0C4FF044600227A4B01F0BDF88246CC
:1012D00000F064FF80B2024602210190084600F04F
:1012E0003BFCFFF7D1FB61480078002809DD72481C
:1012F000007890B9012000F05BFB01206E49087076
:101300000BE05A48007840B96B480078012804D1B6
:1013100000F036FB0020684908705848007820B17A
:10132000012819D0022816D174E0554800685649A2
:101330000968884205D95248006853490968401A2B
:1013400004E0514800684E490968401A142802D246
:1013500002204A4908707CE0494800684949096808
:10136000884205D94648006846490968401A04E0A1
:101370004448006842490968401A142818D3404874
:10138000006841490968884205D93D4800683E49DE
:101390000968401A04E03C48006839490968401A65
:1013A000142805D202203549087000F0E9FA30E02F
:1013B0003348006833490968884205D930480068D5
:1013C00030490968401A04E02E4800682C49096831
:1013D000401A14281DD32A4800682B4909688842FE
:1013E00005D92748006828490968401A04E02648BA
:1013F000006823490968401A14280AD3022000F023
:10140000BFFA00201D49087000F01EFB6420FFF7A2
:10141000E3F91EE01A4800681B490968884205D9AB
:101420001748006818490968401A04E0164800681F
:1014300013490968401A14280AD300200E4908707D
:1014400000F002FB6420FFF7C7F900200B49087089
:1014500000BF00BFD2E60000CDCCCC3D4E756D2064
:101460004F662050656F706C653A200009000020BF
:10147000256400000C00002024000020080000204B
:101480000000002018000020140000201C00002094
:1014900054656D703A25642048756D693A2564205D
:1014A0000000000040000020040000200000B040C8
:1014B0000088D3400000F03F270000202DE9F041D4
:1014C00007460D460026002427B1012F7BD0022FAE
:1014D0007AD119E1D948806940F605010843D74916
:1014E000886135B1012D0DD0022D14D0032D24D1EA
:1014F0001AE0012601240323022208210120FFF71C
:10150000B3F91AE002240323022209210120FFF784
:10151000ABF9012611E00324032302220A21012052
:10152000FFF7A2F9012608E0042401260323022282
:101530000B210120FFF798F900BF00BF012E5CD1FD
:10154000BF480068BF49B0FBF1F0401EBE490880AB
:1015500044F61F60091D0880012C10D1BA480838D4
:10156000008840F00100B84908390880B6481038B2
:10157000008840F06000B4491039088035E0022C42
:1015800010D1B1480838008840F01000AE49083941
:101590000880AD481038008840F4C040AA4910398E
:1015A000088022E0032C10D1A7480838008840F4B6
:1015B0008070A54908390880081F008840F0600045
:1015C000091F088011E019E033E1042C0DD19E4879
:1015D0000838008840F480509B4908390880081F6B
:1015E000008840F4C040091F0880974828380088C8
:1015F00040F001009449283908801AE18F48806939
:1016000040F005008D4988610846C06940F001003E
:10161000C86135B1012D0DD0022D14D0032D24D178
:101620001AE0012401260323022200210120FFF7F2
:101630001BF91AE002240323022201210846FFF7C6
:1016400013F9012611E0032403230222114601208D
:10165000FFF70AF9012608E00424012603230222E9
:1016600019460120FFF700F900BF00BF012E4AD143
:10167000734800687349B0FBF1F0401E0906088505
:1016800044F61F608885012C0AD10846008C40F082
:10169000010008840846008B40F0600008832AE0BF
:1016A000022C0BD16007008C40F010006107088409
:1016B0000846008B40F4C04008831CE0032C0DD189
:1016C0004FF08040008C40F480704FF080410884DF
:1016D0000846808B40F0600088830CE0042C0AD11F
:1016E0002007008C40F48050210708840846808B36
:1016F00040F4C04088834FF08040008840F00100F3
:101700004FF08041088094E04C48806940F00D0023
:101710004A4988610846C06940F00200C86135B195
:10172000012D0DD0022D14D0032D24D11AE0012655
:1017300001240323022206210120FFF795F81AE075
:101740000323022207210120FFF78EF8012602243D
:1017500011E00323022200211046FFF785F801263D
:10176000032408E001260424032302220121104659
:10177000FFF77AF800BF00BF012E5AD13048006849
:101780003049B0FBF1F0401E3049088044F61F603C
:10179000091D0880012C10D12C480838008840F021
:1017A00001002A490839088028481038008840F08C
:1017B000600026491039088033E0022C10D12348FC
:1017C0000838008840F010002049083908801F4878
:1017D0001038008840F4C0401C491039088020E0CF
:1017E000032C0ED119480838008840F4807017493E
:1017F00008390880081F008840F06000091F088031
:101800000FE0042C0DD111480838008840F48050B6
:101810000E4908390880081F008840F4C040091F9D
:1018200008800A482838008840F001000749283914
:10183000088000BF3046BDE8F08100000010024083
:101840002C00002040420F00282C014028040040BA
:101850002DE9F04F87B0FEF73BFEFEF7FEFD0028B6
:1018600058D0FEF70EFE0446FEF70BFE0546FEF7C7
:1018700008FE0646FEF705FE8146FEF702FE0490CE
:10188000601930444844C1B20498814233D148467B
:1018900000F0C8FC82460022284B00F027FB0746D8
:1018A0008846304600F0BEFC3A464346CDE900018A
:1018B00000F074FACDE9020100F070FCC0B28DF8BE
:1018C0001400284600F0AEFC074600221B4B00F037
:1018D0000DFBCDE90001204600F0A4FC8246DDE9C5
:1018E000002300F05BFACDE9020100F057FCC0B222
:1018F0008DF815000DE00020114900F04FFCC0B23A
:101900008DF8140000200E4900F048FCC0B28DF89C
:1019100015000DE000200A4900F040FCC0B28DF82F
:1019200014000020064900F039FCC0B28DF8150003
:10193000BDF81410084607B0BDE8F08F000059400C
:101940000000F0BF0248006800F00100704700008E
:101950000808014010B50948806940F004000749B3
:1019600088610123002205211846FEF77DFF01232F
:10197000002206211846FEF777FF10BD0010024036
:10198000012802D002280ED106E00849096841F07A
:101990002001064A116007E00449096841F040014E
:1019A000024A116000E000BF00BF70471408014008
:1019B000012802D0022808D103E02021044A116046
:1019C00004E04021024A116000E000BF00BF704700
:1019D000100801401848806940F0040016498861E9
:1019E0000846C06940F00100C8611448006820F052
:1019F000F000124908600846006840F0A000086046
:101A00000F4800680F49B0FBF1F0401E0906088539
:101A100044F61F6088850846008B40F4C040088368
:101A20000846008C40F0100008840846008840F00A
:101A300001000880704700000010024000080140CB
:101A40002C00002040420F00B42800DDB4204FF4E9
:101A5000FA624243B42392FBF3F202F5FA7291B2B6
:101A60001A07118770472DE9FC5F8246DAE9030106
:101A700000F058FF8346584600F0D0FD064600228D
:101A80004FF0804300F08AF980468946584600F0BE
:101A9000C5FD064600224FF0804300F0D5FC81F0E2
:101AA000004142464B46CDE9000100F01FFA0446D2
:101AB00000F042F9CAF80000584600F0AFFD0022DD
:101AC0004FF08043CDE9000100F068F906460F466B
:101AD000584600F0A3FD804632463B4600F006FA29
:101AE000044600F029F9CAF80400584600F096FDB3
:101AF00000224FF08043CDE9000100F04FF9064687
:101B00000F46584600F08AFD804632463B4600F0BC
:101B1000EDF9044600F010F9CAF80800BDE8FC9F92
:101B20000548006820F00F00034908600846006877
:101B300040F0040008607047000801400548006854
:101B400020F00C00034908600846006840F00600D9
:101B5000086070470008014010B50346002023B11B
:101B6000012B1FD0022B54D136E031B1012908D00E
:101B700002290BD0032913D10DE00120264C22802D
:101B80000EE00120244C241D228009E00120224C7B
:101B90000834228004E001201F4C0C34228000BF56
:101BA00000BF36E031B1012908D002290AD003294B
:101BB00010D10BE001208407A2860BE001208407EE
:101BC000228707E001208407A28703E00120134C4D
:101BD000228000BF00BF1CE031B1012908D00229DA
:101BE0000BD0032913D10DE001200D4C22800EE013
:101BF00001200B4C241D228009E00120084C0834F0
:101C0000228004E00120064C0C34228000BF00BF7B
:101C100000BF00BF10BD0000342C01404000004058
:101C20003404004010B53448C06940F00400324923
:101C3000C8610846806940F4006088612F480068E8
:101C40002F49B0FBF1F0401E2E4908804FF6FF707F
:101C5000091D08802B482838008840F001002949D8
:101C60002839088000BF27481838008800F0010094
:101C70000028F8D0214800684FF4FA61B0FBF1F079
:101C8000401E2149088040F2F310091D08801E48BB
:101C90001C38008840F001001B491C3908801A4894
:101CA0002838008840F00100174928390880192099
:101CB0000F21002804DB0A07130E144A135406E010
:101CC0000A07140E124A00F00F031B1FD45400BF62
:101CD000192000280DDB00BF00BF00F01F0201210A
:101CE00091404209920002F1E022C2F8001100BFC7
:101CF00000BF00BF10BD0000001002402C000020FB
:101D000040420F0028080040282C014000E400E079
:101D100018ED00E070B504460D462046FFF742F886
:101D200000212046FEF742FD29462046FEF7BCFF73
:101D30002046FFF75FF870BD21F00042A2F160522B
:101D4000B2F5801F01F0004328BFD2F17F6C0BD9A0
:101D50005FEA001C43EAC20242EB507018BF7047B2
:101D600028BF20F001007047B2F5801FBCBF1846A5
:101D700070474FEA410C1CF5001F02D2084600F0E4
:101D800098BE70B500F00CFB00000089FFF7F6BFAD
:101D90004FF00040A0F580007047000010B591EAB8
:101DA000030F48BF83F0004300F15683841A71EBA0
:101DB000030C05D2121943EB0C03001B61EB0C0161
:101DC000DFF824E14FEA1154A4EB135C1EEA430F41
:101DD00018BF9EEA445F73D023EA0E03DCF1200EA5
:101DE00021EA045143F4801332D322FA0CFE10EBA3
:101DF0000E0023FA0CFE41EB0E01CCF1200E03FA8B
:101E00000EFE10EB0E0051F10001B1F5801FCCF178
:101E1000200E32D201EB045112FA0EF2BDE810404E
:101E200058BF7047401C38BF5FEA420218BF704776
:101E3000002814BF20F0010041F100014FEA4103E6
:101E400013F5001F38BF7047A1F1C04100F0F6BA8A
:101E5000012A43EB0302ACF1200CDCF11F0E32BF70
:101E60004FF0000E23FA0CF310EB030041EB04518A
:101E7000B4EB115FD0D0A1EB045101F580114908FA
:101E80005FEA300001EB04510ED350F1000038BF7F
:101E900012FA0EFE08D1BDE81040C9E7401C38BF59
:101EA0005FEA4202CAD1C3E7BDE810404FEA4103EE
:101EB00013F5001F38BF7047A1F1C04100F0BEBA52
:101EC0009EEA445F08D011EA5E0FBDE8104004BFEF
:101ED00001F0004100207047BDE8104070B500F0EF
:101EE0005FFA00BF64FBBE3E0000E0FF2DE9C04189
:101EF00030B4DFF8A0C23CEA111418BF3CEA131456
:101F000000F0EC8081EA03051CEA111444EAD57460
:101F100018BF1CEA131500F0C780A4EB05044FF0AE
:101F2000004545EAC12145EAC32341EA505143EA4D
:101F3000525304F17F74994204F500344FEAC020F3
:101F40004FEAC22208BF904200F09C804FEA13651E
:101F50000FF24016765D4FEA134506FB05F7C7F111
:101F6000807706FB07F74FEAD737A7FB036876426F
:101F7000C8F58038A7FB06CE38BFA8F1010807FBDB
:101F800008E64FF0000EA6FB028CE6FB03CEDCF168
:101F9000000CCEF1004E38BFAEF1010EA6FB0C587E
:101FA0004FF000074FF00005E6FB0E87A1FB08C6C7
:101FB000A0FB07CE16EB0E0645F10005E1FB076519
:101FC00015F1E04E7EBFA4F580345FEA46066D4110
:101FD00016F1800745F100054FEA17274FEA06661C
:101FE00047EA0567A6F1DE46B6F1805F4FEA1525A0
:101FF0001FD9384624F0010C05EBC471BCF1FE6F0B
:1020000001EB0C1102D8F0BCBDE8008124425CBF9A
:1020100001F5801E9EEAC47F02D4F0BCBDE80081B9
:10202000244238D4F0BCA1F1C041BDE8004100F029
:1020300005BA4FEAD22242EA43524FEAD323A7FB22
:1020400002864FEAD02040EA415007FB03661EEAB1
:102050000E0F4FEAD12105FB026658BFA6EB0056D2
:10206000B6EB00564FEA520E4EEAC37E18EB0E0E48
:1020700056EB530EBDD518EB02085E417F1C55F19F
:102080000005B6E74FF480154FF000074FF000064B
:102090004FF00008ADE7F0BC4FF0000001F1C04187
:1020A00001F00041BDE8008111EA0C1F0CEA131594
:1020B00000D00CE013EA0C1F00F025804FF0000068
:1020C000F0BC81EA030101F00041BDE80081F0BCF1
:1020D000BDE8004181EA030100F0B0B9F0BCBDE801
:1020E000004170B500F05CF9097EFC3E00F007B8D5
:1020F00081EA03014FF0000001F00041704781EADE
:10210000030100F09BB9F0BCBDE800414FF00000B6
:1021100021497047FFFDFBF9F7F5F4F2F0EEEDEB26
:10212000E9E8E6E4E3E1E0DEDDDBDAD8D7D5D4D3D5
:10213000D1D0CFCDCCCBCAC8C7C6C5C4C2C1C0BF21
:10214000BEBDBCBBBAB9B8B7B6B5B4B3B2B1B0AF27
:10215000AEADACABAAA9A8A8A7A6A5A4A3A3A2A10B
:10216000A09F9F9E9D9C9C9B9A99999897979695C6
:1021700095949393929191908F8F8E8E8D8C8C8B62
:102180008B8A8989888887878685858484838382EA
:10219000828181800000FF070000F87F4FEA115321
:1021A000A3F58063D3F11E03A8BFD3F1200C08DB95
:1021B0004FF0004242EAC12252EA505232FA03F092
:1021C000704709420BD4102BC4BF0020704703F5A1
:1021D000787CBCF1FF3F05D04FF0FF3070474FF0E7
:1021E0000000704770B500F0DBF800BF4992248012
:1021F00000207047F0E710F0004248BF4042B0FABC
:1022000080F310FA03F10AD0C3F11D0303F58063D4
:102210004FEA415002EB035202EBD12170474FF0DD
:1022200000007047B0FA80F310FA03F10AD0C3F14E
:102230001D0303F580634FEA41504FEA035202EB5E
:10224000D12170474FF0000070470000DFF848C10F
:1022500070B51CEA111E1EBF1CEA13159EEA0C0F76
:1022600095EA0C0F00F06F8081EA030423EA4C1317
:102270004EEAD47E21EA4C1141F4801143F48013DC
:10228000AE44A1FB024CA0FB0365AEF17F7E361984
:1022900055EB0C05A1FB034C4CF10003A0FB021C09
:1022A00016EB0C06654153F10003094218BF46F0D6
:1022B000010613F4007F0BD14FEA03314FEA0530DA
:1022C000340341EA155140EA16506FF003020AE068
:1022D0004FEAC3214FEAC520F40241EA555140EAD2
:1022E00056506FF0020202EB2E4201EB025585EAD6
:1022F000CE710AD05FEA440C18BF24F0004450F1BC
:10230000000041F1000120EAD47040F2FE7C6245F9
:1023100000D270BDA84214BF4FF080444FF040443B
:10232000002E08BF0024BEF1806FA8BFA1F1C041FC
:10233000BDE8704080F282804FF0000001F1C041A2
:1023400001F0004170479EEA0C0F0CEA131518BF0C
:1023500095EA0C0F06D04FF0000081EA030E0EF054
:10236000004170BD00F01CF88900013E00F007B884
:1023700000F009B84FEA430C5FEA5C5C08D081EAE0
:10238000030100F05BB84FEA410C5FEA5C5CF6D1F8
:102390004FF00000014970470000FF070000F87F80
:1023A0000EF1020E2EF0030E5EF8046B364205D4D9
:1023B000012A43EB030515F5001F12D8012841EB54
:1023C000010C1CF5001F0CD80ED14FEAD17C15F57D
:1023D000001F0CEB4C0C0CF1020C08BF4CEBD37C37
:1023E00004E04FF0080C01E04FEAD37C0CEB4C0505
:1023F00026FA05F606F00706B6F1040C06D20EEB37
:10240000860CBDE870404CF0010C6047DFE80CF032
:10241000090B02024FF000414FF00000A1F500212E
:1024200070BD19461046012851EB010418BFD4F5C0
:10243000001484BF002001F0004170BD0808A0F521
:1024400000114FEA3101704710B591EA030F48BF00
:1024500083F000433FF5AAAC841A71EB030C07D25A
:1024600012198CF0004C43EB0C03001B61EB0C01C8
:10247000DFF8A4E14FEA1154A4EB135C1EEA430F0A
:1024800018BF9EEA445F00F0B08023EA6E03524218
:1024900021EA0451C3EB6E0338BF5B1EDCF1200E52
:1024A00025D322FA0CFE10EB0E0043FA0CFE41EB92
:1024B0000E01CCF1200E03FA0EFE10EB0E0051F1CE
:1024C0000001CCF1200E29D412FA0EF201EB0451D6
:1024D000BDE8104058BF7047401C1CBFB2F1004F10
:1024E000704700280CBF491C20F00100704712EB18
:1024F000020E43EB030218BF4FF0010E4EEA4202F8
:10250000ACF1200CDCF11E0E54D943FA0CFE10EB9A
:102510000E0051F1FF31CCF11E0ED5D50EF1010E9A
:1025200012FA0EFE404141EB010101EB445C5FEA0F
:102530005C5C10D910EBDE7001EB045138BFBEF1CA
:10254000004FBDE8104018BF704700280CBF491C61
:1025500020F00100704730D24FEAD42C11F5001161
:1025600024F400641BD0B1FA81F20B3AA41AA41E21
:10257000D2F12003914030FA03F31943904001EB6C
:10258000CC71002C01EB0451BDE81040A8BF70478E
:1025900001F1C0414FF0000001F000417047B0FA76
:1025A00080F310FA03F100D110BDE41A173C48057E
:1025B000C90AE4E701EB045110BD491001EB0451D5
:1025C000BDE810404FEA300002E04FF000017047D4
:1025D0004A0008BF0042F8D0B2F5001F28BF70477C
:1025E00001F000414FF0000070479EEA445F07D0C1
:1025F00011EA5E0FBDE8104004BF002100207047C3
:10260000BDE8104070B5FFF7CBFE00BF40DFF63EDF
:1026100083F00041104670470000E0FF43004FEA9E
:10262000D30C4FEA3C0C43401FBF40070CF16051F4
:1026300013F0FE4F70471CF0006F03D100200CF028
:10264000004170470CF0004343EA507010B540EA77
:10265000CC0000F0E8F900BF000000924FEA000152
:10266000FFF7ECBE4FF000414FF00000A1F5002154
:102670007047000090EA010F48BF81F0004100F16F
:102680002482421A3CBF801A89184FEAD0524FF078
:102690007F4C1CEA410FA2EBD15318BF9CEA026F9A
:1026A00000F03B804FF0004C4CEA00204CEA012146
:1026B00021FA03FC10EB0C0C1ED202F1FF325FEA90
:1026C0001C2040EBC25038BF70471CF07F0F4FEA10
:1026D000400C18BFBCF17F4F38BF7047C3F12003D7
:1026E000994008BF20F00100BCF17F4F38BF704710
:1026F000A0F1C04000F0DDB94FEA3C00000A40EB19
:10270000C25028BF1CF0FF0F4FEA400CE6D018BFA4
:10271000BCF17F4F38BF7047EAE79CEA026F05D0F3
:1027200010EA5C0F08BF00F00040704710B500F0E1
:102730007AF900BF64FBBE3E4FF47F0C1CEAD01256
:102740001EBF1CEAD11392EA0C0F93EA0C0F00F0A3
:10275000858090EA010F48BF42F4807240F4000C7B
:1027600041F400002CF07F4120F07F4000B5814211
:10277000A2EB03020FF2081CACEB504EC0F10000BC
:102780009EF800E04FEA4E0E00FB0EFC38BF4900F9
:102790004FEA2C1C02F5FA020CFB0EF34FEACE1E98
:1027A0004FEA112C4FEAC1210EEB635E42EB22424D
:1027B0000EFB0CFC4FEA1C5300FB03114FEA112CDB
:1027C0004FEA01310EFB0CFC4FEADC4C00FB0C1114
:1027D000C14228BF09184CEB03335DF804EB10EB42
:1027E000410143EBC250B2F57C0F38BF704729D589
:1027F00012F0F00F1CBF00F1C04000F00040704725
:10280000008182838485868788898B8C8D8E8F91C9
:102810009293959697999A9C9D9FA0A2A3A5A7A8ED
:10282000AAACAEB0B2B3B5B7B9BCBEC0C2C5C7C919
:10283000CCCED1D4D7D9DCDFE2E6E9ECF0F3F7FA7D
:10284000FE0000004FEA400C0CF1807CBCF17E4F92
:1028500028BF7047B0F1C04000F02BB990EA010FDB
:102860000CEAD11348BF42F48072624538BF634519
:1028700007D213F47F0F16D080EA010000F0004069
:10288000704710B500F0CFF8097EFC3E00F005B8A7
:1028900080EA010000F00040704780EA010000F08B
:1028A000004000F006B912F47F0F04BF02487047E1
:1028B00080EA010000F0FDB80000C07F41000B0E6F
:1028C000D3F19E0208D950F400034FEA032323FA00
:1028D00002F048BF4042704710B500F0A4F800BFB6
:1028E00049922480002070476FF0004282EA200065
:1028F0007047000010F0004148BF4042B0FA80F33A
:1029000010FA03F2C3F19D030BD051EAC35101EB5E
:102910001220530638BF704700F1010008BF20F0B5
:10292000010070474FF47F0C1CEAD0121EBF1CEA56
:10293000D11392EA0C0F93EA0C0F00F0478090EA53
:10294000010F48BF42F480724FF0004C4CEA002067
:102950004CEA012102EB0302A0FB0113A2F50002E5
:10296000002918BF43F001035B0028BF4FEA33037F
:1029700042EB22425FEA132C4CEBC2502EBFBCEB61
:10298000436FB2F57C0F70474FEA036CBCF1004F08
:1029900008BF20F00100B2F57C0F38BF70470BD59F
:1029A00082F0FF0212F5803FC8BF704700F1C040BF
:1029B000D8BF00F00040704700F5000C5FEA4C0CF7
:1029C00048BF7047B0F1C04000F073B890EA010F03
:1029D0000CEAD11348BF42F48072624538BF6345A8
:1029E00004D280EA010000F00040704710B500F00A
:1029F0001AF800BF8900013E00F007B800F009B8DE
:102A00005FEA410C5FEA1C6C08D080EA010000F02C
:102A100050B85FEA400C5FEA1C6CF6D14FF0004002
:102A2000A0F5800070470EF1020E2EF0030E5EF846
:102A3000044B244204D44FEA4102B2F17F4F11D833
:102A40004FEA4003B3F17F4F0CD80ED14FEAD07C50
:102A5000B2F17F4F0CEB4C0C0CF1020C08BF4CEBAD
:102A6000D17C04E04FF0080C01E04FEAD17C0CEB84
:102A70004C0324FA03F404F00704B4F1040C06D266
:102A80000EEB840CBDE810404CF0010C6047DFE811
:102A90000CF0070802024FF00040A0F5800010BDC6
:102AA0000846420018BFD2F1807288BF00F0004093
:102AB00010BDFF2141EAD050C005704790EA010FD8
:102AC00048BF81F000413FF5DCAD421A04D882F0E6
:102AD0000042A0EB020011444FEAD0524FF07F4C6D
:102AE0001CEA410FA2EBD15318BF9CEA026F4AD0F7
:102AF0004FF0004C4CEA00204CEA012121FA03FC83
:102B0000B0EB0C0C0FD412F0FE0F36D05FEA4C0085
:102B10001DD5001240EBC25038BF70471CF03F0F6C
:102B200018BF70470BE0A2F101025FEA1C2040EBE6
:102B3000C25038BF70471CF07F0F18BF7047C3F1F9
:102B40002003994014BF401E20F001007047800808
:102B50004FEA122308BF7047B0FA80FCA2EB0C02C8
:102B6000CCF1280C60FA0CF093EA122F04BF00EBB2
:102B7000C25070474FEAC3707047130A5FEADC1017
:102B800008BF7047F6E79CEA026F04D010EA5C0FBA
:102B900008BF0020704710B5FFF745FF40DFF63E45
:102BA00081F0004070470000C82B000800000020A2
:102BB0004000000028010008082C00084000002008
:102BC000C8060000440100080000000000000000EA
:102BD00000000000000000000000000000000000F5
:102BE00000000000000000000000000000010100E3
:102BF0000000000000A24A040000000000000000E5
:082C00000102030406070809A4
:04000005080001915D
:00000001FF
