:020000040800F2
:1000000080060020A1010008A9010008AB0100083A
:10001000AD010008AF010008B101000800000000B8
:10002000000000000000000000000000B301000814
:10003000B501000800000000B7010008B901000880
:10004000BB010008BB010008BB010008BB010008A0
:10005000BB010008BB010008BB010008BB01000890
:10006000BB010008BB010008BB010008BB01000880
:10007000BB010008BB010008BB010008BB01000870
:10008000BB010008BB010008BB010008BB01000860
:10009000BB010008BB010008BB010008BB01000850
:1000A000BB010008BB010008BB010008BB01000840
:1000B000BB010008BB010008BB010008BB01000830
:1000C000BB010008BB010008BB010008BB01000820
:1000D000BB010008BB010008BB010008BB01000810
:1000E000BB010008BB010008BB01000800F002F8DA
:1000F00000F047F80AA090E8000C82448344AAF17B
:100100000107DA4501D100F03CF8AFF2090EBAE878
:100110000F0013F0010F18BFFB1A43F0010318473B
:10012000F825000018260000103A24BF78C878C1CE
:10013000FAD8520724BF30C830C144BF04680C60ED
:10014000704700000023002400250026103A28BF35
:1001500078C1FBD8520728BF30C148BF0B60704739
:10016000662902F08D82002070471FB500F012FB57
:1001700004000020002101F041FEE0601FBD10B529
:1001800010BD00F007FC1146FFF7EFFF01F098FAF1
:1001900000F025FC03B4FFF7F2FF03BC00F068FC9D
:1001A0000948804709480047FEE7FEE7FEE7FEE70B
:1001B000FEE7FEE7FEE7FEE7FEE7FEE70448054947
:1001C000054A064B7047000025130008ED000008A3
:1001D0008000002080060020800200208002002095
:1001E0000FB41CB50C0007AA009001D02044401E9B
:1001F000074B7B4469460190069800F0AAFA002C50
:1002000003D06946002000F0B7FA1CBC5DF814FB6F
:100210008D0500002DE9F0474FF0000A894604469D
:10022000C0F820A02046E1688847002876D025281D
:1002300006D0D4E901219047206A401C2062F1E7F2
:10024000E168204600258847C4F81CA00646002720
:10025000C4F818A02A2E09D0304601F0A7F838B308
:1002600004EB8708303EC8F8186019E059F8041B01
:10027000204604EB87029161E1688847012F06461A
:1002800018D1E069002820DA25F020051DE0D8F813
:10029000180000EB800006EB40003038C8F818006A
:1002A0002046E1688847064601F080F80028EED134
:1002B000012F0AD02E2E08D12046E16888477F1CE6
:1002C0000646022F45F02005C4DBA069002803DAAA
:1002D000404245F00105A061E80701D025F0100576
:1002E000B6B1A6F14100192802D8203645F40065C0
:1002F0004A463146204625604D46FFF731FF58B14A
:10030000012806D0ED1D25F0070000F1080989E756
:1003100004E005F1040985E730468AE7206ABDE874
:10032000F08770477047704770472DE9FF4F0C46C4
:100330001E464FF0FF378BB0D2E90001DDF8608038
:100340000A908A46C1F30A5505B93D460021084680
:100350004FF00000BAF1000F00F4400005DA00EBA6
:1003600080004FF4400101EA50004FEA9059B9F182
:10037000010F00DDB9460A9850EA4A000ED044F653
:100380001050A5F2FF3545432F14B8F1000F1ED0D1
:100390007542291E1EDDC9F100021CE0B8F1010FF3
:1003A0004FF0000001D0302103E0F24305E021547A
:1003B000401CB042FBDB30460022002121540B9947
:1003C000C1F80880C1E900200FB0BDE8F08FBD1B67
:1003D0006D1CDEE74A4600DA694206A800F064FABE
:1003E00006AB93E8070003AB83E8070050460A9981
:1003F00000F045FB8DE80700A0F500501F38009085
:100400000398002D0ADD42F21F014A4608440023EA
:1004100003A90390684600F0AEFD09E0A0F5005086
:100420004A461F38002303A90390684600F0B8FD30
:100430008DE807000004000C03D04FF0FF304108A6
:1004400000E01046B8F1000F03D0002200921546DC
:100450001EE0751E05D400F0A1F9303262556D1E04
:10046000F9D5B3460122084302D000227F1C04E0E4
:100470002078302801D100227F1E002A099784D0DD
:100480001DE0112D07DA00F089F9303262556D1C3C
:1004900050EA0102F5D1084302D00098C8B10EE03D
:1004A0000021681E05E0235C625C63542254401EF8
:1004B000491C8142F7DBAB46A81B401E0990002077
:1004C00004F80B000B98099AC0F80880C0E9002BCB
:1004D0007AE711264FF0000857E72DE9F04F8846DC
:1004E0000446D21D22F0070191B0D1E90001CDE907
:1004F0000A0100F047FF02460B98C00F01D02D20E3
:1005000007E02068810701D52B2002E0202101EAC5
:10051000C000032A099001D0072A05DB03464146A3
:10052000204600F081F90BE12078800601D5E069D2
:1005300000E00620B8F1650F814606D0B8F1660FDD
:1005400018D0B8F1670F70D131E00020B9F1110F68
:10055000009001DB112301E009F101030AAA01A9BE
:100560000CA8FFF7E2FEDDE90C70002609F1010599
:10057000834647E001204B4600904FF000470AAA0F
:1005800001A90CA8FFF7D1FEDDE90DB00C995D467D
:10059000002610B909F101000D18B9EB050003D4CC
:1005A000C0F1FF3609F10105A5EB09002BE0B9F117
:1005B000010F01DA4FF001090020B9F1110F00908D
:1005C000484601DD112300E003460AAA01A90CA850
:1005D000FFF7ABFEDDE90C704D4600268346207820
:1005E00000070AD4AB4500DA5D4601A8012D04DD01
:1005F000411911F8011C302907D04F4502DA17F1D3
:10060000040F04DA012082460FE06D1EEEE7002F92
:1006100002DCED1B3E4403E0781CA84200DD7D1C9B
:10062000B81B00F1010A4FF000472078000703D4FF
:10063000AA4501DB4FF0FF3A0021B7F1004F0DF161
:1006400043088DF8431024D002202B23002F01DA19
:100650007F422D230A21021EA0F1010000DC5FB1C0
:1006600097FBF1FC97FBF1F201FB1C7C17460CF1A8
:10067000300C08F801CDEEE7A8F1010003702188E5
:10068000090501D5452100E06521A0F1010800F828
:10069000011C09980FA9A1EB0807FF1D00B101205B
:1006A000411901EBEA70A1693844081A401EA061A3
:1006B0002078C00602D42046AFF30080099828B104
:1006C000D4E901219047206A401C20622078C006AE
:1006D00022D52046AFF300801EE0002E04DBB34598
:1006E00002DD01A8805D00E03020D4E901219047BF
:1006F000206A401C2062761CAAF101005FEA000A11
:100700000AD100F047F8C0680168405CD4E90121D3
:100710009047206A401C2062281EA5F10105DCDC00
:1007200007E0D4E9012118F8010B9047206A401C2A
:100730002062381EA7F10107F3DC2046AFF30080EA
:10074000032011B041E6000001694A1C02610878EB
:10075000704700B58FB0CDE9013100210591054901
:100760007944CDE9031011466846FFF753FD0FB0F9
:1007700000BD0000E5FFFFFF0A6802F8010B0A60F8
:100780007047D1E900239A4202D2531C0B601070CB
:1007900070470000004870474000002030B5B0F1BD
:1007A0000A024FEA900E71F100034EEA817EB0EB2F
:1007B0000E0061EB91014FEA101E4EEA017E10EB34
:1007C0000E0041EB11114FEA102E4EEA016E10EBB4
:1007D0000E0041EB11214FEA104E4EEA014E10EB94
:1007E0000E0041EB1141401841F100014FEAD000E9
:1007F00040EA41704FEAD10110EB80054FEA8104D5
:1008000044EA907444EB01046D1944EB0404521B58
:10081000A3414FF0000348BF0A3200D530BD401C51
:1008200041F1000130BD00002DE9F0411F460446B2
:1008300003260168072A01F4006004DB08B116A54D
:1008400005E016A503E008B115A500E015A521F007
:1008500010002060A069C01EA0610FB1401EA06101
:100860002046AFF300804FB1D4E9012138469047CC
:10087000206A401C2062C01C206206E0206AFAE761
:10088000D4E9012115F8010B9047761EF8D22046D5
:10089000AFF30080BDE8F0814E414E006E616E0006
:1008A000494E4600696E66002DE9F04781461646BE
:1008B0008AB0354878440DC88DE80D003248784438
:1008C000801C03AC0DC884E80D0041F69B30084441
:1008D000372190FBF1F290FBF1F5A5F1800501FBCA
:1008E00012041B3C02D56442012000E00020DFF826
:1008F00098A080460027FA44AAF1BE0A0EE0E0075D
:100900000AD03246684607EB470101230AEB810112
:1009100000F046FB8DE8070064107F1C002CEED130
:10092000194F7F44AE3F19E0E80715D007EB0410DC
:100930000DF1180A90E80E008AE80E00C068F04237
:1009400001D1981908903246012306A903A800F0A6
:1009500027FB03AB83E807006D10641C002DE3D177
:100960004FF0010332466946B8F1000F03A802D0E8
:1009700000F001FB01E000F013FBC9E90001C9F838
:1009800008200AB0BDE8F087481E00000048704704
:10099000200000207546FFF7F9FFAE4605006946C6
:1009A000534620F00700854618B020B5FFF706FC37
:1009B000BDE820404FF000064FF000074FF0000860
:1009C0004FF0000B21F00701AC46ACE8C009ACE8E1
:1009D000C009ACE8C009ACE8C0098D46704710B545
:1009E0000446AFF300802046BDE81040FFF7D2BBBD
:1009F0004FF0013C50F8042B51F8043B9A4221D1AE
:100A0000A2EB0C03934313EACC1317D150F8042B39
:100A100051F8043B9A4215D1A2EB0C03934313EA1D
:100A2000CC130BD150F8042B51F8043B9A4209D156
:100A3000A2EB0C03934313EACC13DBD04FF000007E
:100A4000704700BFD01A01BAB1FA81F101F0180164
:100A500022FA01F0CB40C1F12001DBB2C0B2C01AD2
:100A60002CFA01F3D11A914311EAC311E6D1704770
:100A700001491820ABBEFEE72600020070475FEA7E
:100A8000400C08BF91F0000F4FEA8C234FEAC122BF
:100A900043EA51514FEA1C5018BF00F5F0404FEAAD
:100AA000300018BF41F000415FEA6C5C00F0298023
:100AB000BCF1FF3F08BF40F080407047130C06BFF9
:100AC00012044FF0100C4FF0000C130E04BF120272
:100AD0000CF1080C130F04BF12010CF1040C930F5E
:100AE00004BF92000CF1020CD30F04BF52000CF1B2
:100AF000010C11464FF00002A0F11F00A0EB0C000A
:100B0000704711F0004F08BF704731F000413FF4CB
:100B1000D5AF0B0C06BF09044FF0100C4FF0000CC2
:100B20000B0E04BF09020CF1080C0B0F04BF0901E6
:100B30000CF1040C8B0F04BF89000CF1020CCB0FDD
:100B400004BF49000CF1010CCCF12003A0EB0C0018
:100B500022FA03F302FA0CF241EA030100F1010068
:100B6000704720F07F4C80EA030023F07F47ACEB16
:100B7000070303F57C5300F0004003F1FF032DE968
:100B800080494FEA154B09B44FEA144325EA0B4E4E
:100B900024EA03480FF2042606EB132749083E789F
:100BA0005FEA320203FB0667C7F5000707FB06F69C
:100BB0004FEA54374FEAD64606F1020607FB066CA9
:100BC000CCF1005C4FEA1C472CEA074C07FB06F40B
:100BD0000CFB06F504EB15464FEA961634BF0020D1
:100BE0004FF000404FEAD13706FB07FC4FEA1C4CA0
:100BF0000CFB0BF7D21B03FB0CF761EB07010CFBA3
:100C00000EF7B0EB074072EB17420CFB08F734BF4E
:100C1000A2EB0742B2EB074261EB17414FEA0C44EB
:100C20004FEA910706FB07FC4FEA1C4C0CFB0BF745
:100C3000B0EBC74072EB573203FB0CF734BFA2EBAB
:100C4000C742B2EBC74261EB57310CFB0EF7B0EB7A
:100C5000C70072EB57720CFB08F734BFA2EBC70258
:100C6000B2EBC70261EB5771039F4FEA816141EA22
:100C7000921104EBCC044FEAD1374FEA826206FBB3
:100C800007FC42EA90124FEA80604FEA1C4C0CFBD2
:100C90000BF7D21B03FB0CF761EB07010CFB0EF704
:100CA000B0EB074072EB17420CFB08F734BFA2EB26
:100CB0000742B2EB074261EB17414FEA8C554FEA0E
:100CC000910704EB9C2406FB07FC4FEA1C4C0CFB31
:100CD0000BF7B0EBC74072EB573203FB0CF734BF96
:100CE000A2EBC742B2EBC74261EB57310CFB0EF7E8
:100CF000B0EBC70072EB57720CFB08F734BFA2EBE6
:100D0000C702B2EBC70261EB577115EB4C254FEAF6
:100D1000816141EA92114FEA82624FEAD13742EA99
:100D2000901206FB07FC44F100044FEA80604FEA92
:100D30001C4C0CFB0BF7D21B03FB0CF761EB070100
:100D40000CFB0EF7B0EB074072EB17420CFB08F7F9
:100D500034BFA2EB0742B2EB074261EB174115EB40
:100D60001C154FEA813141EA92414FEA823242EA50
:100D700090424FEA80304FEA0C7644F1000448EA92
:100D800003434EEA0B484FF0000EB2EB080C71EB38
:100D9000030724BF624639464EEB0E0E4FF0000BA0
:100DA0000018524149414BEB0B0BB2EB080C71EBB5
:100DB00003077BF1000B24BF624639464EEB0E0E53
:100DC0004FF0000B0018524149414BEB0B0BB2EBBB
:100DD000080C71EB03077BF1000B24BF6246394618
:100DE0004EEB0E0E51EA020718BF46F0010616EB55
:100DF0000E7655F1000254F1000103D5BDE88901DA
:100E0000BDE80088BDE88901BDE80048B619524137
:100E100041EB0101A3F10103704780807F7E7D7C5F
:100E20007B7A7978777676757473727171706F6E7C
:100E30006E6D6C6C6B6A6A69686867666665646427
:100E4000636362616160605F5F5E5E5D5D5C5C5BB1
:100E50005B5A5A5959585857575656555555545420
:100E6000535352525251515050504F4F4F4E4E4D7E
:100E70004D4D4C4C4C4B4B4B4A4A4A4949494848CA
:100E8000484747474746464645454544444444430A
:100E900043434342424242414141002B9C4630D4AD
:100EA00077002BD01CB54FEA370703B44FF0100082
:100EB0004FF01001BAF1000F06D0BCF1000FDCBFFB
:100EC00040F0080040F008014FF000000FBCBDE802
:100ED00010400BF1010BBBF1010F08BF5FEA1707D0
:100EE00022BF12F1010211F101014FF0004143F163
:100EF000000300F0004043EA00007047F9D35708B0
:100F0000D0E746EA064613F1400F4FEA16461FDDCA
:100F100013F1200FDFBF16430A46002120335B4246
:100F2000BED0C3F1200746EA064602FA07F74FEAA9
:100F3000164646EA0706C3F1200722FA03F201FA31
:100F400007F721FA03F14FF0000342EA0702A7E78F
:100F500046EA020646EA06464FEA164646EA010611
:100F6000BCBF46EA0646360C4FF000034FF00002C5
:100F70004FF0000194E72DE9804C9A46934670B4F7
:100F800091E8380007C831EA400C48BF34EA430C06
:100F900003D5FFF7E6FDFFF780FFF0BCBDE8008C4E
:100FA0002DE9804C9A46934670B491E8380007C802
:100FB00010F0804F08BF13F0804F03D100F005F808
:100FC000FFF76BFFF0BCBDE8008C20F07F4780EAA4
:100FD000030023F07F4C07EB0C03A3F57C5300F0D8
:100FE0000040A3F1FE0392F0000F00F0B38095F0F3
:100FF000000F00F077802DE901494FEA11404FEAD8
:10100000144621EA004800FB06FC24EA064708FBD8
:1010100006F607FB08F800FB07F718EB06484CEB51
:10102000164C4FEA124B18EB07484FEA15464CEBAB
:10103000174022EA0B4E0BFB06FC25EA06470EFB87
:1010400006F607FB0EFE0BFB07F71EEB064E4CEBFE
:10105000164C4FF000061EEB074E4CEB174B18EBEF
:101060000B0840F1000018EB0E0B58EB000840F1A4
:1010700000008F1A4FF000013CBFC943661B14BF2C
:10108000B5EB040C00213CBFC943F61B4FEA1744E3
:101090004EEA8E0E27EA04454FEA1C4704FB07621E
:1010A0002CEA074C05FB07F70CFB05F604FB0CFCD0
:1010B00016EB074642EB174216EB0C4642EB1C427E
:1010C0001BEB060658EB0202414146EA9E0601D59B
:1010D000BDE80189B619524141EB0101A3F10103B9
:1010E000BDE801894FEA14454FEA114724EA054655
:1010F00021EA074C05FB07F406FB07F70CFB06F19A
:1011000005FB0CFC11EB074144EB17444FEA124777
:1011100011EB0C4144EB1C4422EA074C05FB07F29F
:1011200006FB07F70CFB06F605FB0CFC16EB074667
:1011300042EB174216EB0C4642EB1C456A1854F181
:10114000000148BF7047B619524141EB0101A3F1BC
:101150000103704795F0000F37D04FEA11424FEA74
:10116000144721EA024624EA074C02FB07F106FB7A
:1011700007F70CFB06F402FB0CFC14EB074441EBF5
:1011800017414FEA154714EB0C4441EB1C4125EA8B
:10119000074C02FB07F506FB07F70CFB06F602FB04
:1011A0000CFC16EB074645EB174516EB0C4645EBDA
:1011B0001C42121951F1000148BF7047B619524143
:1011C00041EB0101A3F1010370474FEA14454FEAD7
:1011D000114724EA054621EA074C05FB07F106FB07
:1011E00007F70CFB06F24FF0000605FB0CFC12EBB8
:1011F000074241EB174112EB0C4251EB1C4148BF37
:101200007047921841EB0101A3F101037047000000
:10121000094800684FF47A71B0FBF1F04FF0E0211B
:1012200048610020886100BF4FF0E020006900F4B1
:1012300080300028F8D070470000002010B500F082
:1012400001F810BD0CB500200190009033480068F3
:1012500040F480303149086000BF3048006800F435
:10126000003000900198401C0190009818B9019836
:10127000B0F5A06FF1D12948006800F4003010B13A
:101280000120009001E0002000900098012843D147
:101290002348006840F010002149086008460068B3
:1012A00020F0070008600846006840F0020008606F
:1012B0001A4840681949486008464068486008462E
:1012C000406840F4806048600846406820F47C1024
:1012D00048600846406840F4E810486008460068E6
:1012E00040F08070086000BF0C48006800F000709B
:1012F0000028F9D00948406820F0030007494860F9
:101300000846406840F00200486000BF034840685B
:1013100000F00C000828F9D10CBD000000100240BC
:101320000020024010B51348006840F00100114948
:10133000086008464068104908400E494860084661
:1013400000680E4908400B4908600846006820F410
:10135000802008600846406820F4FE0048604FF492
:101360001F008860FFF76AFF4FF0006004490860C3
:1013700010BD0000001002400000FFF8FFFFF6FE65
:1013800008ED00E0490050EAC12018BF04204A0DD2
:1013900018BF40F0010040F2FF72B2EB515F08BF8E
:1013A00040F00200012808BF0520704730380A28A5
:1013B00001D20120704700207047000010B503469D
:1013C0000020012B06D1084C246804F002044CB123
:1013D000012007E0022B05D1044C246804F002042C
:1013E00004B1012010BD000000240140002801408C
:1013F0002DE9F04107460D4614464FF00008012D37
:1014000009D1082C02DA8846E6B210E0082C0EDB7F
:101410004046BDE8F081022D09D1022C05DA4FF0DB
:10142000010804F10800C6B201E04046F1E7A1B2AC
:10143000A8B200231A4600F067F8012F1FD12148F7
:10144000806940F400701F49886100201E490860CF
:101450001D482C3006600846006840F00100086016
:10146000642000F047F81848006840F00100164971
:1014700008600846006840F00200086020E0022F83
:101480001ED11048806940F480600E4988610020B8
:101490000E4908600D482C3006600846006840F090
:1014A00001000860642000F025F80848006840F05A
:1014B0000100064908600846006840F00200086024
:1014C0004046A6E7001002400824014008280140D9
:1014D00010B503460020012B02D1044C206803E024
:1014E000022B01D1024C206810BD00004C240140A9
:1014F0004C28014010B5044602E0FFF789FE641E47
:10150000002CFAD110BD000070B5012844D104248C
:10151000664DAC6108291ADA654C24688E000F25E7
:10152000B540AC43624D2C602C4624688D0003FA14
:1015300005F52C435E4D2C602C462468022505EBF6
:10154000810502FA05F52C43594D2C60ADE0584C4D
:10155000241D2468A1F10805AE00564DB540AC43EA
:10156000534D2D1D2C602C462468A1F10805AD00BB
:1015700003FA05F52C434E4D2D1D2C602C46256895
:10158000A1F10804022606EB840402FA04F42543C0
:10159000474C241D256088E0022844D10824434D8F
:1015A000AC6108291ADA444C24688E000F25B54036
:1015B000AC43414D2C602C4624688D0003FA05F5A0
:1015C0002C433D4D2C602C462468022505EB8105FB
:1015D00002FA05F52C43384D2C6066E0364C241D8C
:1015E0002468A1F10805AE000F25B540AC43324D8B
:1015F0002D1D2C602C462468A1F10805AD0003FACE
:1016000005F52C432C4D2D1D2C602C462568A1F191
:101610000804022606EB840402FA04F42543264C4F
:10162000241D256041E003283FD110241F4DAC61EB
:1016300008291ADA214C24680E010F25B540AC4365
:101640001E4D2C602C4624688D0003FA05F52C43B2
:101650001A4D2C602C462468022505EB810502FA00
:1016600005F52C43154D2C601FE0144C6468A1F166
:101670000805AE000F25B540AC43104D6C602C46FC
:101680006468A1F10805AD0003FA05F52C430B4D84
:101690006C602C466568A1F10804022606EB840400
:1016A00002FA04F42543054C656070BD0010024049
:1016B0000008014011110B00000C01400010014016
:1016C0000EB500F09DFA0221012000F069F843F602
:1016D00098220221012000F02DFA0121032000F0C0
:1016E0009BFA012211461046FFF782FE002002906D
:1016F00049E0012211461046FFF760FE002842D063
:10170000012211461046FFF7E3FE0290029800F016
:10171000B8FD824600221C4B00F02EFC80460022C1
:101720001A4B00F0C5FD06460022194B00F0BEFE24
:10173000044600F079FD80B20246022101900120AA
:1017400000F0F8F9029800F09CFD804600220E4B54
:1017500000F012FC064600220C4B00F0A9FD0446E6
:1017600000220B4B00F0A2FE0AA2CDE900010A21E3
:101770000A48FEF735FD0949032000F005FB4FF448
:10178000FA70FFF7B7FEB4E70000B0400088D3401E
:101790000000F03F252E32660A00000014000020F1
:1017A0002DE9F04107460D460026002427B1012F00
:1017B0007BD0022F7AD119E1D948806940F6050122
:1017C0000843D749886135B1012D0DD0022D14D0C1
:1017D000032D24D11AE0012601240323022208212B
:1017E0000120FFF791FE1AE00224032302220921BF
:1017F0000120FFF789FE012611E0032403230222C2
:101800000A210120FFF780FE012608E004240126BA
:10181000032302220B210120FFF776FE00BF00BF49
:10182000012E5CD1BF480068BF49B0FBF1F0401EFB
:10183000BE49088044F61F60091D0880012C10D1A4
:10184000BA480838008840F00100B84908390880D3
:10185000B6481038008840F06000B449103908805C
:1018600035E0022C10D1B1480838008840F0100053
:10187000AE4908390880AD481038008840F4C040AF
:10188000AA491039088022E0032C10D1A748083853
:10189000008840F48070A54908390880081F008836
:1018A00040F06000091F088011E019E033E1042CCA
:1018B0000DD19E480838008840F480509B49083973
:1018C0000880081F008840F4C040091F088097481E
:1018D0002838008840F001009449283908801AE12E
:1018E0008F48806940F005008D4988610846C069CD
:1018F00040F00100C86135B1012D0DD0022D14D08A
:10190000032D24D11AE00124012603230222002101
:101910000120FFF7F9FD1AE002240323022201212E
:101920000846FFF7F1FD012611E0032403230222FC
:1019300011460120FFF7E8FD012608E004240126F6
:101940000323022219460120FFF7DEFD00BF00BF7E
:10195000012E4AD1734800687349B0FBF1F0401E74
:101960000906088544F61F608885012C0AD10846BF
:10197000008C40F0010008840846008B40F06000B5
:1019800008832AE0022C0BD16007008C40F0100085
:10199000610708840846008B40F4C04008831CE0BF
:1019A000032C0DD14FF08040008C40F480704FF03C
:1019B000804108840846808B40F0600088830CE0FA
:1019C000042C0AD12007008C40F4805021070884A1
:1019D0000846808B40F4C04088834FF080400088E8
:1019E00040F001004FF08041088094E04C4880694D
:1019F00040F00D004A4988610846C06940F0020085
:101A0000C86135B1012D0DD0022D14D0032D24D184
:101A10001AE0012601240323022206210120FFF7F8
:101A200073FD1AE00323022207210120FFF76CFD5A
:101A30000126022411E00323022200211046FFF7B1
:101A400063FD0126032408E0012604240323022267
:101A500001211046FFF758FD00BF00BF012E5AD1EB
:101A6000304800683049B0FBF1F0401E3049088032
:101A700044F61F60091D0880012C10D12C4808383D
:101A8000008840F001002A490839088028481038A9
:101A9000008840F0600026491039088033E0022CAD
:101AA00010D123480838008840F010002049083938
:101AB00008801F481038008840F4C0401C49103985
:101AC000088020E0032C0ED119480838008840F423
:101AD0008070174908390880081F008840F06000AE
:101AE000091F08800FE0042C0DD111480838008828
:101AF00040F480500E4908390880081F008840F4DF
:101B0000C040091F08800A482838008840F00100BA
:101B100007492839088000BF3046BDE8F081000041
:101B2000001002400000002040420F00282C01401D
:101B30002804004010B50346002023B1012B1FD01C
:101B4000022B54D136E031B1012908D002290BD043
:101B5000032913D10DE00120264C22800EE0012044
:101B6000244C241D228009E00120224C08342280CC
:101B700004E001201F4C0C34228000BF00BF36E07F
:101B800031B1012908D002290AD0032910D10BE074
:101B900001208407A2860BE001208407228707E04A
:101BA00001208407A28703E00120134C228000BF9C
:101BB00000BF1CE031B1012908D002290BD0032954
:101BC00013D10DE001200D4C22800EE001200B4CC2
:101BD000241D228009E00120084C0834228004E002
:101BE0000120064C0C34228000BF00BF00BF00BFA4
:101BF00010BD0000342C014040000040340400407F
:101C000000204FF0E02108616FF07F404861002024
:101C1000886105200861704770B505460C46564836
:101C2000806940F0010054498861012D34D1084693
:101C3000806940F480408861032302220921012049
:101C4000FFF762FC002302220A210120FFF75CFC5F
:101C500024B941F646504949088005E0012C03D1DA
:101C600040F27120454908804448001D008840F03A
:101C700008004249091D08800846008840F0040019
:101C800008800846008840F4005008800846008814
:101C900040F0200008806EE0022D35D13648C06942
:101CA00040F400303449C861032302221146012068
:101CB000FFF72AFC0023022203210120FFF724FC66
:101CC00024B940F6A3602E49088005E0012C03D119
:101CD0004FF49C702A4908802948001D008840F074
:101CE00008002749091D08800846008840F00400C4
:101CF00008800846008840F40050088008460088A4
:101D000040F02000088036E0032D34D11A48C06925
:101D100040F480201849C861032302220A2110469A
:101D2000FFF7F2FB002302220B211046FFF7ECFB2A
:101D300024B940F6A3601349088005E0012C03D1C3
:101D40004FF49C700F4908800E48001D008840F039
:101D500008000C49091D08800846008840F004006E
:101D600008800846008840F4005008800846008833
:101D700040F02000088070BD00100240083801408B
:101D8000084400400848004030B505460B46002492
:101D900004E0195D284600F005F8641C185D002871
:101DA000F7D130BD01280AD100BF114A128802F0D4
:101DB0004002002AF9D00E4A121D11800BE00228C1
:101DC00009D100BF0B4A128802F04002002AF9D064
:101DD000084A121D1180032809D100BF064A128843
:101DE00002F04002002AF9D0034A121D1180704708
:101DF00000380140004400400048004010B5002970
:101E00000AD00878002807D005487844FEF7F0FD8E
:101E1000002801D0002010BD0248784410BD000009
:101E20002E0900002609000010B591EA030F48BFF3
:101E300083F0004300F14283841A71EB030C05D256
:101E4000121943EB0C03001B61EB0C01DFF824E1DA
:101E50004FEA1154A4EB135C1EEA430F18BF9EEA2D
:101E6000445F73D023EA0E03DCF1200E21EA045113
:101E700043F4801332D322FA0CFE10EB0E0023FA47
:101E80000CFE41EB0E01CCF1200E03FA0EFE10EB1E
:101E90000E0051F10001B1F5801FCCF1200E32D2BD
:101EA00001EB045112FA0EF2BDE8104058BF704722
:101EB000401C38BF5FEA420218BF7047002814BFB9
:101EC00020F0010041F100014FEA410313F5001F2A
:101ED00038BF7047A1F1C04100F0E2BA012A43EBDC
:101EE0000302ACF1200CDCF11F0E32BF4FF0000EEC
:101EF00023FA0CF310EB030041EB0451B4EB115F38
:101F0000D0D0A1EB045101F5801149085FEA3000FF
:101F100001EB04510ED350F1000038BF12FA0EFE4F
:101F200008D1BDE81040C9E7401C38BF5FEA420253
:101F3000CAD1C3E7BDE810404FEA410313F5001FC3
:101F400038BF7047A1F1C04100F0AABA9EEA445FD1
:101F500008D011EA5E0FBDE8104004BF01F0004157
:101F600000207047BDE8104070B500F04BFA00BF8C
:101F700064FBBE3E0000E0FF2DE9C04130B4DFF855
:101F8000A0C23CEA111418BF3CEA131400F0EC8024
:101F900081EA03051CEA111444EAD57418BF1CEA4F
:101FA000131500F0C780A4EB05044FF0004545EA87
:101FB000C12145EAC32341EA505143EA525304F197
:101FC0007F74994204F500344FEAC0204FEAC222E0
:101FD00008BF904200F09C804FEA13650FF2401654
:101FE000765D4FEA134506FB05F7C7F1807706FBE0
:101FF00007F74FEAD737A7FB03687642C8F5803862
:10200000A7FB06CE38BFA8F1010807FB08E64FF092
:10201000000EA6FB028CE6FB03CEDCF1000CCEF139
:10202000004E38BFAEF1010EA6FB0C584FF0000772
:102030004FF00005E6FB0E87A1FB08C6A0FB07CE0C
:1020400016EB0E0645F10005E1FB076515F1E04EC4
:102050007EBFA4F580345FEA46066D4116F1800725
:1020600045F100054FEA17274FEA066647EA05677C
:10207000A6F1DE46B6F1805F4FEA15251FD9384636
:1020800024F0010C05EBC471BCF1FE6F01EB0C11E7
:1020900002D8F0BCBDE8008124425CBF01F5801E7F
:1020A0009EEAC47F02D4F0BCBDE80081244238D44B
:1020B000F0BCA1F1C041BDE8004100F0F1B94FEA28
:1020C000D22242EA43524FEAD323A7FB02864FEAC9
:1020D000D02040EA415007FB03661EEA0E0F4FEA8C
:1020E000D12105FB026658BFA6EB0056B6EB0056A1
:1020F0004FEA520E4EEAC37E18EB0E0E56EB530E0D
:10210000BDD518EB02085E417F1C55F10005B6E70E
:102110004FF480154FF000074FF000064FF0000815
:10212000ADE7F0BC4FF0000001F1C04101F000410B
:10213000BDE8008111EA0C1F0CEA131500D00CE079
:1021400013EA0C1F00F025804FF00000F0BC81EA7C
:10215000030101F00041BDE80081F0BCBDE8004191
:1021600081EA030100F09CB9F0BCBDE8004170B504
:1021700000F048F9097EFC3E00F007B881EA03014F
:102180004FF0000001F00041704781EA030100F0C8
:1021900087B9F0BCBDE800414FF00000214970470D
:1021A000FFFDFBF9F7F5F4F2F0EEEDEBE9E8E6E41C
:1021B000E3E1E0DEDDDBDAD8D7D5D4D3D1D0CFCDA3
:1021C000CCCBCAC8C7C6C5C4C2C1C0BFBEBDBCBBDC
:1021D000BAB9B8B7B6B5B4B3B2B1B0AFAEADACABD7
:1021E000AAA9A8A8A7A6A5A4A3A3A2A1A09F9F9EB1
:1021F0009D9C9C9B9A999998979796959594939363
:10220000929191908F8F8E8E8D8C8C8B8B8A8989F9
:10221000888887878685858484838382828181807C
:102220000000FF070000F87F4FEA1153A3F5806319
:10223000D3F11E03A8BFD3F1200C08DB4FF00042FE
:1022400042EAC12252EA505232FA03F07047094280
:102250000BD4102BC4BF0020704703F5787CBCF171
:10226000FF3F05D04FF0FF3070474FF00000704740
:1022700070B500F0C7F800BF499224800020704775
:10228000F0E710F0004248BF4042B0FA80F310FA85
:1022900003F10AD0C3F11D0303F580634FEA4150F7
:1022A00002EB035202EBD12170474FF00000704760
:1022B000DFF848C170B51CEA111E1EBF1CEA1315D9
:1022C0009EEA0C0F95EA0C0F00F06F8081EA030480
:1022D00023EA4C134EEAD47E21EA4C1141F48011DA
:1022E00043F48013AE44A1FB024CA0FB0365AEF1A6
:1022F0007F7E361955EB0C05A1FB034C4CF1000316
:10230000A0FB021C16EB0C06654153F100030942C9
:1023100018BF46F0010613F4007F0BD14FEA0331DA
:102320004FEA0530340341EA155140EA16506FF088
:1023300003020AE04FEAC3214FEAC520F40241EA52
:10234000555140EA56506FF0020202EB2E4201EB6B
:10235000025585EACE710AD05FEA440C18BF24F01A
:10236000004450F1000041F1000120EAD47040F235
:10237000FE7C624500D270BDA84214BF4FF080447D
:102380004FF04044002E08BF0024BEF1806FA8BF6C
:10239000A1F1C041BDE8704080F282804FF00000A2
:1023A00001F1C04101F0004170479EEA0C0F0CEAB8
:1023B000131518BF95EA0C0F06D04FF0000081EA04
:1023C000030E0EF0004170BD00F01CF88900013EC4
:1023D00000F007B800F009B84FEA430C5FEA5C5C14
:1023E00008D081EA030100F05BB84FEA410C5FEAD4
:1023F0005C5CF6D14FF00000014970470000FF0718
:102400000000F87F0EF1020E2EF0030E5EF8046B52
:10241000364205D4012A43EB030515F5001F12D8F7
:10242000012841EB010C1CF5001F0CD80ED14FEA1E
:10243000D17C15F5001F0CEB4C0C0CF1020C08BF05
:102440004CEBD37C04E04FF0080C01E04FEAD37C66
:102450000CEB4C0526FA05F606F00706B6F1040C5F
:1024600006D20EEB860CBDE870404CF0010C6047C4
:10247000DFE80CF0090B02024FF000414FF00000C2
:10248000A1F5002170BD19461046012851EB010449
:1024900018BFD4F5001484BF002001F0004170BDC6
:1024A0000808A0F500114FEA3101704710B591EA14
:1024B000030F48BF83F000433FF5BEAC841A71EBB5
:1024C000030C07D212198CF0004C43EB0C03001BD9
:1024D00061EB0C01DFF8A4E14FEA1154A4EB135CAB
:1024E0001EEA430F18BF9EEA445F00F0B08023EA63
:1024F0006E03524221EA0451C3EB6E0338BF5B1EE8
:10250000DCF1200E25D322FA0CFE10EB0E0043FA6C
:102510000CFE41EB0E01CCF1200E03FA0EFE10EB87
:102520000E0051F10001CCF1200E29D412FA0EF266
:1025300001EB0451BDE8104058BF7047401C1CBF60
:10254000B2F1004F704700280CBF491C20F0010079
:10255000704712EB020E43EB030218BF4FF0010E5F
:102560004EEA4202ACF1200CDCF11E0E54D943FAC3
:102570000CFE10EB0E0051F1FF31CCF11E0ED5D543
:102580000EF1010E12FA0EFE404141EB010101EB8A
:10259000445C5FEA5C5C10D910EBDE7001EB045127
:1025A00038BFBEF1004FBDE8104018BF704700288B
:1025B0000CBF491C20F00100704730D24FEAD42CE8
:1025C00011F5001124F400641BD0B1FA81F20B3A2A
:1025D000A41AA41ED2F12003914030FA03F3194348
:1025E000904001EBCC71002C01EB0451BDE8104090
:1025F000A8BF704701F1C0414FF0000001F0004159
:102600007047B0FA80F310FA03F100D110BDE41A5C
:10261000173C4805C90AE4E701EB045110BD491015
:1026200001EB0451BDE810404FEA300002E04FF0EA
:10263000000170474A0008BF0042F8D0B2F5001F01
:1026400028BF704701F000414FF0000070479EEA3C
:10265000445F07D011EA5E0FBDE8104004BF0021BF
:1026600000207047BDE8104070B5FFF7CBFE00BFFB
:1026700040DFF63E83F00041104670470000E0FF67
:10268000FDF72BBF02400000000000A0000000008A
:1026900005400000000000C8000000000C400000E1
:1026A0000000409C00000000194000000020BCBE5B
:1026B0000000000034400000BFC91B8E0000000471
:1026C000B5400000504BCFD06607E2CF01000000BC
:1026D0006C4100003E8251AADFEEA73401000000E9
:1026E000D9420000DCB5A0E23A301F97FFFFFFFFA0
:1026F000B4450000FD25A0C8E9A3C14FFFFFFFFFBF
:10270000FF3F00000000008000000000FF3F0000CD
:102710000000008000000000542700080000002096
:102720001400000028010008682700081400002099
:102730006C060000440100081C000000430000007B
:10274000F8FFFFFF0C0000000E0000000F0000006B
:102750002E00000000A24A0400000000000000005B
:08276000010203040607080949
:04000005080001A14D
:00000001FF
