:020000040800F2
:100000008806002091010008990100089B01000862
:100010009D0100089F010008A101000800000000E8
:10002000000000000000000000000000A301000824
:10003000A501000800000000A7010008A9010008B0
:10004000AB010008AB010008AB010008AB010008E0
:10005000AB010008AB010008AB010008AB010008D0
:10006000AB010008AB010008AB010008AB010008C0
:10007000AB010008AB010008AB010008AB010008B0
:10008000AB010008AB010008AB010008AB010008A0
:10009000AB010008AB010008AB010008AB01000890
:1000A000AB010008AB010008AB010008AB01000880
:1000B000AB010008AB010008AB010008AB01000870
:1000C000AB010008AB010008AB010008AB01000860
:1000D000AB010008AB010008AB010008AB01000850
:1000E000AB010008AB010008AB01000800F002F80A
:1000F00000F03FF80AA090E8000C82448344AAF183
:100100000107DA4501D100F034F8AFF2090EBAE880
:100110000F0013F0010F18BFFB1A43F0010318473B
:10012000100A0000300A0000103A24BF78C878C1D5
:10013000FAD8520724BF30C830C144BF04680C60ED
:10014000704700000023002400250026103A28BF35
:1001500078C1FBD8520728BF30C148BF0B60704739
:10016000642900F08380002070471FB51FBD10B5C3
:1001700010BD00F038F91146FFF7F7FF00F098FBCB
:1001800000F056F903B4FFF7F2FF03BC00F05EF98C
:100190000948804709480047FEE7FEE7FEE7FEE71B
:1001A000FEE7FEE7FEE7FEE7FEE7FEE70448054957
:1001B000054A064B7047000071050008ED00000875
:1001C0008800002088060020880200208802002085
:1001D0000FB41CB50C0007AA009001D02044401EAB
:1001E000074B7B4469460190069800F0DCF8002C30
:1001F00003D06946002000F0E9F81CBC5DF814FB50
:10020000F10100002DE9F0410E4604460020206275
:100210002046E168884730B3252805D0D4E901217C
:100220009047206A401CF2E7E16820460027884793
:10023000050018D0A5F14100192802D820354FF447
:1002400000673246294620462760FFF789FF40B104
:10025000012804D0F61D26F007060836D8E7361D1B
:10026000D6E72846DAE7206ABDE8F0812DE9F041BB
:100270000646002410687529314616A510D0AFF344
:100280000080002802DA404213A507E031688A079F
:1002900001D512A502E0490704D511A5012401E00A
:1002A000AFF3008000210A2206F1240709E0B0FB29
:1002B000F2FCB0FBF2F302FB1C003030785418461D
:1002C000491C0028F3D123462A463046BDE8F041B8
:1002D00000F00BB8000000002D0000002B00000013
:1002E000200000007047704770472DE9F0470D4629
:1002F00099469246044600F124080168880604D510
:10030000E06921F01001216000E00120A84201DD38
:10031000471B00E00027A1697A1902EB0900081ABF
:10032000A0612078C00602D42046AFF300800026EA
:1003300008E0D4E901211AF806009047206A401C21
:10034000761C20624E45F4DB2078C0060AD5204694
:10035000AFF3008006E0D4E9012130209047206A05
:10036000401C2062381EA7F10107F4DC07E0D4E945
:10037000012118F805009047206A401C2062281EC1
:10038000A5F10105F3DC2046AFF3008020780006DC
:1003900002D50220BDE8F0870120FBE701694A1C75
:1003A00002610878704700B58FB0CDE901310021B6
:1003B000059105497944CDE9031011466846FFF7D8
:1003C00021FF0FB000BD0000E5FFFFFF0A6802F843
:1003D000010B0A607047D1E900239A4202D2531CF4
:1003E0000B6010707047754600F02CF8AE460500A3
:1003F0006946534620F00700854618B020B5FFF740
:10040000D5FEBDE820404FF000064FF000074FF04A
:1004100000084FF0000B21F00701AC46ACE8C00922
:10042000ACE8C009ACE8C009ACE8C0098D4670472B
:1004300010B50446AFF300802046BDE81040FFF73A
:10044000A1BE000000487047240000200149182088
:10045000ABBEFEE7260002007047000009480068B6
:100460004FF47A71B0FBF1F04FF0E02148610020C9
:10047000886100BF4FF0E020006900F48030002860
:10048000F8D070470400002010B500F001F810BD4E
:100490000CB50020019000903348006840F4803093
:1004A0003149086000BF3048006800F40030009017
:1004B0000198401C0190009818B90198B0F5A06F00
:1004C000F1D12948006800F4003010B101200090FB
:1004D00001E0002000900098012843D123480068E3
:1004E00040F01000214908600846006820F007002D
:1004F00008600846006840F0020008601A4840683A
:10050000194948600846406848600846406840F419
:10051000806048600846406820F47C1048600846C7
:10052000406840F4E81048600846006840F0807079
:10053000086000BF0C48006800F000700028F9D087
:100540000948406820F003000749486008464068B1
:1005500040F00200486000BF0348406800F00C0013
:100560000828F9D10CBD0000001002400020024014
:1005700010B51348006840F00100114908600846B2
:100580004068104908400E494860084600680E4916
:1005900008400B4908600846006820F48020086085
:1005A0000846406820F4FE0048604FF41F00886051
:1005B000FFF76AFF4FF000600449086010BD0000BB
:1005C000001002400000FFF8FFFFF6FE08ED00E01B
:1005D0002DE9F04107460D4614464FF00008012D65
:1005E00009D1082C02DA8846E6B210E0082C0EDBAE
:1005F0004046BDE8F081022D09D1022C05DA4FF00A
:10060000010804F10800C6B201E04046F1E7A1B2DA
:10061000A8B200231A4600F067F8012F1FD1214825
:10062000806940F400701F49886100201E490860FD
:100630001D482C3006600846006840F00100086044
:10064000642000F047F81848006840F0010016499F
:1006500008600846006840F00200086020E0022FB1
:100660001ED11048806940F480600E4988610020E6
:100670000E4908600D482C3006600846006840F0BE
:1006800001000860642000F025F80848006840F088
:100690000100064908600846006840F00200086052
:1006A0004046A6E700100240082401400828014007
:1006B00010B503460020012B02D1044C206803E052
:1006C000022B01D1024C206810BD00004C240140D7
:1006D0004C28014010B5044602E0FFF7BFFE641E3F
:1006E000002CFAD110BD000070B5012847D16C4C28
:1006F000A46944F004046A4DAC6108291ADA694C13
:1007000024688E000F25B540AC43664D2C602C4606
:1007100024688D0003FA05F52C43624D2C602C46AD
:100720002468022505EB810502FA05F52C435D4D91
:100730002C60B3E05B4C241D2468A1F10805AE00D9
:100740000F25B540AC43574D2D1D2C602C46246819
:10075000A1F10805AD0003FA05F52C43514D2D1DFF
:100760002C602C462568A1F10804022606EB8404BF
:1007700002FA04F425434B4C241D25608EE0022828
:1007800047D1474CA46944F00804454DAC610829A1
:100790001ADA454C24688E000F25B540AC43424D13
:1007A0002C602C4624688D0003FA05F52C433E4D41
:1007B0002C602C462468022505EB810502FA05F51C
:1007C0002C43394D2C6069E0374C241D2468A1F17D
:1007D0000805AE000F25B540AC43334D2D1D2C60F0
:1007E0002C462468A1F10805AD0003FA05F52C4359
:1007F0002D4D2D1D2C602C462568A1F108040226E4
:1008000006EB840402FA04F42543274C241D2560DA
:1008100044E0032842D1224CA46944F01004204D46
:10082000AC6108291ADA214C24680E010F25B54065
:10083000AC431E4D2C602C4624688D0003FA05F550
:100840002C431A4D2C602C462468022505EB8105AB
:1008500002FA05F52C43154D2C601FE0134C64681B
:10086000A1F10805AE000F25B540AC430F4D6C60FB
:100870002C466468A1F10805AD0003FA05F52C4388
:100880000A4D6C602C466568A1F10804022606EB4F
:10089000840402FA04F42543044C656070BD000032
:1008A0000010024000080140000C0140001001400F
:1008B00000F040F80121032000F048F80322012154
:1008C0000846FFF785FE00F01FF814E0032201211F
:1008D0000846FFF7EDFE084908600846036807A2CE
:1008E0000A210848FFF774FC0649032000F0E6F8E7
:1008F0006420FFF7EFFEE9E70000002025642C20CC
:10090000000000001800002010B50948806940F080
:100910000400074988610123002211461846FFF7A9
:10092000E3FE0123002219461846FFF7DDFE10BD45
:100930000010024000204FF0E02108616FF07F407E
:1009400048610020886105200861704770B5054640
:100950000C465648806940F0010054498861012DD9
:1009600034D10846806940F4804088610323022224
:1009700009210120FFF7B8FE002302220A210120ED
:10098000FFF7B2FE24B941F646504949088005E018
:10099000012C03D140F27120454908804448001DD4
:1009A000008840F008004249091D08800846008878
:1009B00040F0040008800846008840F40050088099
:1009C0000846008840F0200008806EE0022D35D1F6
:1009D0003648C06940F400303449C861032302221C
:1009E00011460120FFF780FE00230222032101208F
:1009F000FFF77AFE24B940F6A3602E49088005E08F
:100A0000012C03D14FF49C702A4908802948001D0D
:100A1000008840F008002749091D08800846008822
:100A200040F0040008800846008840F40050088028
:100A30000846008840F02000088036E0032D34D1BD
:100A40001A48C06940F480201849C8610323022273
:100A50000A211046FFF748FE002302220B21104610
:100A6000FFF742FE24B940F6A3601349088005E071
:100A7000012C03D14FF49C700F4908800E48001DD3
:100A8000008840F008000C49091D088008460088CD
:100A900040F0040008800846008840F400500880B8
:100AA0000846008840F02000088070BD0010024019
:100AB00008380140084400400848004030B5054669
:100AC0000B46002404E0195D284600F005F8641C7C
:100AD000185D0028F7D130BD01280AD100BF114AA6
:100AE000128802F04002002AF9D00E4A121D11802D
:100AF0000BE0022809D100BF0B4A128802F0400225
:100B0000002AF9D0084A121D1180032809D100BF1C
:100B1000064A128802F04002002AF9D0034A121D48
:100B200011807047003801400044004000480040F8
:100B3000500B0008000000201800000028010008E9
:100B4000680B00081800002070060000440100082F
:100B50000000000000A24A040000000000000000A5
:080B6000010203040607080965
:04000005080001915D
:00000001FF
