:020000040800F2
:100000008806002091010008990100089B01000862
:100010009D0100089F010008A101000800000000E8
:10002000000000000000000000000000A301000824
:10003000A501000800000000A7010008A9010008B0
:10004000AB010008AB010008AB010008AB010008E0
:10005000AB010008AB010008AB010008AB010008D0
:10006000AB010008AB010008AB010008AB010008C0
:10007000AB010008AB010008AB010008AB010008B0
:10008000AB010008AB010008AB010008AB010008A0
:10009000AB010008AB010008AB010008AB01000890
:1000A000AB010008AB010008AB010008AB01000880
:1000B000AB010008AB010008AB010008AB01000870
:1000C000AB010008AB010008AB010008AB01000860
:1000D000AB010008AB010008AB010008AB01000850
:1000E000AB010008AB010008AB01000800F002F80A
:1000F00000F03FF80AA090E8000C82448344AAF183
:100100000107DA4501D100F034F8AFF2090EBAE880
:100110000F0013F0010F18BFFB1A43F0010318473B
:10012000941E0000B41E0000103A24BF78C878C1A5
:10013000FAD8520724BF30C830C144BF04680C60ED
:10014000704700000023002400250026103A28BF35
:1001500078C1FBD8520728BF30C148BF0B60704739
:10016000642900F08380002070471FB51FBD10B5C3
:1001700010BD00F038F91146FFF7F7FF00F0FAFB69
:1001800000F056F903B4FFF7F2FF03BC00F05EF98C
:100190000948804709480047FEE7FEE7FEE7FEE71B
:1001A000FEE7FEE7FEE7FEE7FEE7FEE70448054957
:1001B000054A064B7047000071050008ED00000875
:1001C0008800002088060020880200208802002085
:1001D0000FB41CB50C0007AA009001D02044401EAB
:1001E000074B7B4469460190069800F0DCF8002C30
:1001F00003D06946002000F0E9F81CBC5DF814FB50
:10020000F10100002DE9F0410E4604460020206275
:100210002046E168884730B3252805D0D4E901217C
:100220009047206A401CF2E7E16820460027884793
:10023000050018D0A5F14100192802D820354FF447
:1002400000673246294620462760FFF789FF40B104
:10025000012804D0F61D26F007060836D8E7361D1B
:10026000D6E72846DAE7206ABDE8F0812DE9F041BB
:100270000646002410687529314616A510D0AFF344
:100280000080002802DA404213A507E031688A079F
:1002900001D512A502E0490704D511A5012401E00A
:1002A000AFF3008000210A2206F1240709E0B0FB29
:1002B000F2FCB0FBF2F302FB1C003030785418461D
:1002C000491C0028F3D123462A463046BDE8F041B8
:1002D00000F00BB8000000002D0000002B00000013
:1002E000200000007047704770472DE9F0470D4629
:1002F00099469246044600F124080168880604D510
:10030000E06921F01001216000E00120A84201DD38
:10031000471B00E00027A1697A1902EB0900081ABF
:10032000A0612078C00602D42046AFF300800026EA
:1003300008E0D4E901211AF806009047206A401C21
:10034000761C20624E45F4DB2078C0060AD5204694
:10035000AFF3008006E0D4E9012130209047206A05
:10036000401C2062381EA7F10107F4DC07E0D4E945
:10037000012118F805009047206A401C2062281EC1
:10038000A5F10105F3DC2046AFF3008020780006DC
:1003900002D50220BDE8F0870120FBE701694A1C75
:1003A00002610878704700B58FB0CDE901310021B6
:1003B000059105497944CDE9031011466846FFF7D8
:1003C00021FF0FB000BD0000E5FFFFFF0A6802F843
:1003D000010B0A607047D1E900239A4202D2531CF4
:1003E0000B6010707047754600F02CF8AE460500A3
:1003F0006946534620F00700854618B020B5FFF740
:10040000D5FEBDE820404FF000064FF000074FF04A
:1004100000084FF0000B21F00701AC46ACE8C00922
:10042000ACE8C009ACE8C009ACE8C0098D4670472B
:1004300010B50446AFF300802046BDE81040FFF73A
:10044000A1BE000000487047240000200149182088
:10045000ABBEFEE7260002007047000009480068B6
:100460004FF47A71B0FBF1F04FF0E02148610020C9
:10047000886100BF4FF0E020006900F48030002860
:10048000F8D070470400002010B500F001F810BD4E
:100490000CB50020019000903348006840F4803093
:1004A0003149086000BF3048006800F40030009017
:1004B0000198401C0190009818B90198B0F5A06F00
:1004C000F1D12948006800F4003010B101200090FB
:1004D00001E0002000900098012843D123480068E3
:1004E00040F01000214908600846006820F007002D
:1004F00008600846006840F0020008601A4840683A
:10050000194948600846406848600846406840F419
:10051000806048600846406820F47C1048600846C7
:10052000406840F4E81048600846006840F0807079
:10053000086000BF0C48006800F000700028F9D087
:100540000948406820F003000749486008464068B1
:1005500040F00200486000BF0348406800F00C0013
:100560000828F9D10CBD0000001002400020024014
:1005700010B51348006840F00100114908600846B2
:100580004068104908400E494860084600680E4916
:1005900008400B4908600846006820F48020086085
:1005A0000846406820F4FE0048604FF41F00886051
:1005B000FFF76AFF4FF000600449086010BD0000BB
:1005C000001002400000FFF8FFFFF6FE08ED00E01B
:1005D0002DE9F04107460D4614464FF00008012D65
:1005E00009D1082C02DA8846E6B210E0082C0EDBAE
:1005F0004046BDE8F081022D09D1022C05DA4FF00A
:10060000010804F10800C6B201E04046F1E7A1B2DA
:10061000A8B200231A4600F0A3F8012F1FD12148E9
:10062000806940F400701F49886100201E490860FD
:100630001D482C3006600846006840F00100086044
:10064000642000F047F81848006840F0010016499F
:1006500008600846006840F00200086020E0022FB1
:100660001ED11048806940F480600E4988610020E6
:100670000E4908600D482C3006600846006840F0BE
:1006800001000860642000F025F80848006840F088
:100690000100064908600846006840F00200086052
:1006A0004046A6E700100240082401400828014007
:1006B00010B503460020012B02D1044C206803E052
:1006C000022B01D1024C206810BD00004C240140D7
:1006D0004C28014010B5044602E0FFF7BFFE641E3F
:1006E000002CFAD110BD2DE9F04104460D46002042
:1006F000E06165616169606801F01AFB0746216A83
:10070000206801F015FB8046394601F0B9F906462C
:10071000E16901F0B5F9E061A169A06801F008FBA9
:100720000646E16901F0ACF9E061012012E0411EEA
:1007300004F11C0252F8212004F11C0141F8202090
:10074000411E04F1140252F8212004F1140141F871
:100750002020401E0028EADCE069BDE8F0810000AE
:1007600070B5012844D10424664DAC6108291ADA19
:10077000654C24688E000F25B540AC43624D2C605B
:100780002C4624688D0003FA05F52C435E4D2C6041
:100790002C462468022505EB810502FA05F52C4359
:1007A000594D2C60ADE0584C241D2468A1F108057A
:1007B000AE00564DB540AC43534D2D1D2C602C461C
:1007C0002468A1F10805AD0003FA05F52C434E4D50
:1007D0002D1D2C602C462568A1F10804022606EB8D
:1007E000840402FA04F42543474C241D256088E064
:1007F000022844D10824434DAC6108291ADA444C3C
:1008000024688E000F25B540AC43414D2C602C462A
:1008100024688D0003FA05F52C433D4D2C602C46D1
:100820002468022505EB810502FA05F52C43384DB5
:100830002C6066E0364C241D2468A1F10805AE004A
:100840000F25B540AC43324D2D1D2C602C4624683D
:10085000A1F10805AD0003FA05F52C432C4D2D1D23
:100860002C602C462568A1F10804022606EB8404BE
:1008700002FA04F42543264C241D256041E0032898
:100880003FD110241F4DAC6108291ADA214C24688D
:100890000E010F25B540AC431E4D2C602C4624683C
:1008A0008D0003FA05F52C431A4D2C602C46246864
:1008B000022505EB810502FA05F52C43154D2C6048
:1008C0001FE0144C6468A1F10805AE000F25B54087
:1008D000AC43104D6C602C466468A1F10805AD0076
:1008E00003FA05F52C430B4D6C602C466568A1F1AD
:1008F0000804022606EB840402FA04F42543054C9E
:10090000656070BD001002400008014011110B002D
:10091000000C0140001001402DE9F04704468946D3
:100920009246484601F080F80746104A104B00F006
:1009300093FE054600F01AFCE06051464FF07E50F1
:1009400001F000F92061002008E0002204F1140108
:1009500041F82020083141F82020401C0228F4DB17
:10096000204600F041FABDE8F0870000182D4454FD
:10097000FB2119408AB000F0FBFA2D4A2D4901A84D
:10098000FFF7CAFF0221012000F064F843F6982225
:100990000221012000F086FA0121032000F0F4FA80
:1009A000012211461046FFF713FE3FE001221146D7
:1009B0001046FFF77DFE204908600846006800F0F9
:1009C00034FE804600221D4B00F0AAFC06460022A1
:1009D0001B4B00F041FE044600221A4B00F03AFF88
:1009E000824600F0F5FD80B202460221009001200F
:1009F00000F058FA1048006801F082F905462946CF
:100A000001A8FFF770FE044601F05EF90A4908608C
:100A1000084603680CA20A210D48FFF7D9FB0C49D0
:100A2000032000F069FB0A20FFF754FEBEE7000038
:100A30000000C8429A99993E000000200000B04092
:100A40000088D3400000F03F25642C200000000007
:100A5000180000202DE9F04107460D46002600242D
:100A600027B1012F7BD0022F7AD119E1D9488069B3
:100A700040F605010843D749886135B1012D0DD0F5
:100A8000022D14D0032D24D11AE0012601240323C2
:100A9000022208210120FFF763FE1AE0022403234B
:100AA000022209210120FFF75BFE012611E0032449
:100AB000032302220A210120FFF752FE012608E04B
:100AC00004240126032302220B210120FFF748FE04
:100AD00000BF00BF012E5CD1BF480068BF49B0FB1A
:100AE000F1F0401EBE49088044F61F60091D0880D1
:100AF000012C10D1BA480838008840F00100B849EC
:100B000008390880B6481038008840F06000B449C1
:100B10001039088035E0022C10D1B148083800881F
:100B200040F01000AE4908390880AD481038008800
:100B300040F4C040AA491039088022E0032C10D1AB
:100B4000A7480838008840F48070A5490839088013
:100B5000081F008840F06000091F088011E019E0BC
:100B600033E1042C0DD19E480838008840F48050B1
:100B70009B4908390880081F008840F4C040091FBD
:100B8000088097482838008840F0010094492839A7
:100B900008801AE18F48806940F005008D4988611E
:100BA0000846C06940F00100C86135B1012D0DD083
:100BB000022D14D0032D24D11AE001240126032391
:100BC000022200210120FFF7CBFD1AE002240323BB
:100BD000022201210846FFF7C3FD012611E003248C
:100BE0000323022211460120FFF7BAFD012608E087
:100BF000042401260323022219460120FFF7B0FD39
:100C000000BF00BF012E4AD1734800687349B0FB92
:100C1000F1F0401E0906088544F61F608885012C06
:100C20000AD10846008C40F0010008840846008B79
:100C300040F0600008832AE0022C0BD16007008C92
:100C400040F01000610708840846008B40F4C04063
:100C500008831CE0032C0DD14FF08040008C40F441
:100C600080704FF0804108840846808B40F060001F
:100C700088830CE0042C0AD12007008C40F48050BB
:100C8000210708840846808B40F4C04088834FF0D9
:100C90008040008840F001004FF08041088094E0DF
:100CA0004C48806940F00D004A4988610846C06997
:100CB00040F00200C86135B1012D0DD0022D14D0D5
:100CC000032D24D11AE00126012403230222062148
:100CD0000120FFF745FD1AE003230222072101202E
:100CE000FFF73EFD0126022411E00323022200212A
:100CF0001046FFF735FD0126032408E001260424F1
:100D00000323022201211046FFF72AFD00BF00BF86
:100D1000012E5AD1304800683049B0FBF1F0401E36
:100D20003049088044F61F60091D0880012C10D14D
:100D30002C480838008840F001002A49083908800A
:100D400028481038008840F0600026491039088093
:100D500033E0022C10D123480838008840F01000FE
:100D60002049083908801F481038008840F4C040E6
:100D70001C491039088020E0032C0ED1194808388E
:100D8000008840F48070174908390880081F0088DF
:100D900040F06000091F08800FE0042C0DD11148BD
:100DA0000838008840F480500E4908390880081F30
:100DB000008840F4C040091F08800A48283800888D
:100DC00040F0010007492839088000BF3046BDE8DF
:100DD000F0810000001002400400002040420F009B
:100DE000282C0140280400402DE9FC5F8246DAE906
:100DF000030100F09DFF8346584600F015FE0646AD
:100E000000224FF0804300F0E3F9804689465846BF
:100E100000F00AFE064600224FF0804300F01AFD63
:100E200081F0004142464B46CDE9000100F078FADE
:100E3000044600F09BF9CAF80000584600F0F4FDA3
:100E400000224FF08043CDE9000100F0C1F90646D1
:100E50000F46584600F0E8FD804632463B4600F01B
:100E60005FFA044600F082F9CAF80400584600F020
:100E7000DBFD00224FF08043CDE9000100F0A8F92E
:100E800006460F46584600F0CFFD804632463B46A8
:100E900000F046FA044600F069F9CAF80800BDE817
:100EA000FC9F000010B50346002023B1012B1FD08A
:100EB000022B54D136E031B1012908D002290BD0E0
:100EC000032913D10DE00120264C22800EE00120E1
:100ED000244C241D228009E00120224C0834228069
:100EE00004E001201F4C0C34228000BF00BF36E01C
:100EF00031B1012908D002290AD0032910D10BE011
:100F000001208407A2860BE001208407228707E0E6
:100F100001208407A28703E00120134C228000BF38
:100F200000BF1CE031B1012908D002290BD00329F0
:100F300013D10DE001200D4C22800EE001200B4C5E
:100F4000241D228009E00120084C0834228004E09E
:100F50000120064C0C34228000BF00BF00BF00BF40
:100F600010BD0000342C014040000040340400401B
:100F700000204FF0E02108616FF07F4048610020C1
:100F8000886105200861704770B505460C465648D3
:100F9000806940F0010054498861012D34D1084630
:100FA000806940F4804088610323022209210120E6
:100FB000FFF7D6FB002302220A210120FFF7D0FB16
:100FC00024B941F646504949088005E0012C03D177
:100FD00040F27120454908804448001D008840F0D7
:100FE00008004249091D08800846008840F00400B6
:100FF00008800846008840F40050088008460088B1
:1010000040F0200008806EE0022D35D13648C069DE
:1010100040F400303449C861032302221146012004
:10102000FFF79EFB0023022203210120FFF798FB1C
:1010300024B940F6A3602E49088005E0012C03D1B5
:101040004FF49C702A4908802948001D008840F010
:1010500008002749091D08800846008840F0040060
:1010600008800846008840F4005008800846008840
:1010700040F02000088036E0032D34D11A48C069C2
:1010800040F480201849C861032302220A21104637
:10109000FFF766FB002302220B211046FFF760FBDF
:1010A00024B940F6A3601349088005E0012C03D160
:1010B0004FF49C700F4908800E48001D008840F0D6
:1010C00008000C49091D08800846008840F004000B
:1010D00008800846008840F40050088008460088D0
:1010E00040F02000088070BD001002400838014028
:1010F000084400400848004030B505460B4600242F
:1011000004E0195D284600F005F8641C185D00280D
:10111000F7D130BD01280AD100BF114A128802F070
:101120004002002AF9D00E4A121D11800BE002285D
:1011300009D100BF0B4A128802F04002002AF9D000
:10114000084A121D1180032809D100BF064A1288DF
:1011500002F04002002AF9D0034A121D11807047A4
:1011600000380140004400400048004021F00042A7
:10117000A2F16052B2F5801F01F0004328BFD2F106
:101180007F6C0BD95FEA001C43EAC20242EB50704D
:1011900018BF704728BF20F001007047B2F5801FCC
:1011A000BCBF184670474FEA410C1CF5001F02D225
:1011B000084600F084BE70B500F0F8FA000000891F
:1011C000FFF7F6BF4FF00040A0F580007047000029
:1011D00010B591EA030F48BF83F0004300F142834A
:1011E000841A71EB030C05D2121943EB0C03001B9C
:1011F00061EB0C01DFF824E14FEA1154A4EB135C1E
:101200001EEA430F18BF9EEA445F73D023EA0E0321
:10121000DCF1200E21EA045143F4801332D322FA88
:101220000CFE10EB0E0023FA0CFE41EB0E01CCF18C
:10123000200E03FA0EFE10EB0E0051F10001B1F585
:10124000801FCCF1200E32D201EB045112FA0EF2C3
:10125000BDE8104058BF7047401C38BF5FEA4202EB
:1012600018BF7047002814BF20F0010041F10001B1
:101270004FEA410313F5001F38BF7047A1F1C04189
:1012800000F0E2BA012A43EB0302ACF1200CDCF1DE
:101290001F0E32BF4FF0000E23FA0CF310EB0300C9
:1012A00041EB0451B4EB115FD0D0A1EB045101F537
:1012B000801149085FEA300001EB04510ED350F170
:1012C000000038BF12FA0EFE08D1BDE81040C9E791
:1012D000401C38BF5FEA4202CAD1C3E7BDE81040F4
:1012E0004FEA410313F5001F38BF7047A1F1C04119
:1012F00000F0AABA9EEA445F08D011EA5E0FBDE88A
:10130000104004BF01F0004100207047BDE81040CC
:1013100070B500F04BFA00BF64FBBE3E0000E0FF7A
:101320002DE9C04130B4DFF8A0C23CEA111418BF67
:101330003CEA131400F0EC8081EA03051CEA111466
:1013400044EAD57418BF1CEA131500F0C780A4EB5B
:1013500005044FF0004545EAC12145EAC32341EAAF
:10136000505143EA525304F17F74994204F500341A
:101370004FEAC0204FEAC22208BF904200F09C8092
:101380004FEA13650FF24016765D4FEA134506FBF0
:1013900005F7C7F1807706FB07F74FEAD737A7FBBA
:1013A00003687642C8F58038A7FB06CE38BFA8F19F
:1013B000010807FB08E64FF0000EA6FB028CE6FBD7
:1013C00003CEDCF1000CCEF1004E38BFAEF1010EC1
:1013D000A6FB0C584FF000074FF00005E6FB0E8708
:1013E000A1FB08C6A0FB07CE16EB0E0645F10005D3
:1013F000E1FB076515F1E04E7EBFA4F580345FEA9E
:1014000046066D4116F1800745F100054FEA1727A2
:101410004FEA066647EA0567A6F1DE46B6F1805F49
:101420004FEA15251FD9384624F0010C05EBC4718D
:10143000BCF1FE6F01EB0C1102D8F0BCBDE80081DD
:1014400024425CBF01F5801E9EEAC47F02D4F0BC3A
:10145000BDE80081244238D4F0BCA1F1C041BDE810
:10146000004100F0F1B94FEAD22242EA43524FEA7A
:10147000D323A7FB02864FEAD02040EA415007FB66
:1014800003661EEA0E0F4FEAD12105FB026658BF24
:10149000A6EB0056B6EB00564FEA520E4EEAC37E5C
:1014A00018EB0E0E56EB530EBDD518EB02085E413D
:1014B0007F1C55F10005B6E74FF480154FF000078B
:1014C0004FF000064FF00008ADE7F0BC4FF0000011
:1014D00001F1C04101F00041BDE8008111EA0C1F9B
:1014E0000CEA131500D00CE013EA0C1F00F0258065
:1014F0004FF00000F0BC81EA030101F00041BDE8BB
:101500000081F0BCBDE8004181EA030100F09CB914
:10151000F0BCBDE8004170B500F048F9097EFC3E22
:1015200000F007B881EA03014FF0000001F000412C
:10153000704781EA030100F087B9F0BCBDE80041C3
:101540004FF0000021497047FFFDFBF9F7F5F4F279
:10155000F0EEEDEBE9E8E6E4E3E1E0DEDDDBDAD84E
:10156000D7D5D4D3D1D0CFCDCCCBCAC8C7C6C5C4AC
:10157000C2C1C0BFBEBDBCBBBAB9B8B7B6B5B4B3C3
:10158000B2B1B0AFAEADACABAAA9A8A8A7A6A5A4AE
:10159000A3A3A2A1A09F9F9E9D9C9C9B9A99999872
:1015A0009797969595949393929191908F8F8E8E15
:1015B0008D8C8C8B8B8A89898888878786858584A2
:1015C00084838382828181800000FF070000F87F8E
:1015D0004FEA1153A3F58063D3F11E03A8BFD3F1E3
:1015E000200C08DB4FF0004242EAC12252EA50527E
:1015F00032FA03F0704709420BD4102BC4BF00200D
:10160000704703F5787CBCF1FF3F05D04FF0FF3009
:1016100070474FF00000704770B500F0C7F800BF8A
:101620004992248000207047F0E710F0004248BF44
:101630004042B0FA80F310FA03F10AD0C3F11D035F
:1016400003F580634FEA415002EB035202EBD121D4
:1016500070474FF000007047DFF848C170B51CEAD2
:10166000111E1EBF1CEA13159EEA0C0F95EA0C0F03
:1016700000F06F8081EA030423EA4C134EEAD47E23
:1016800021EA4C1141F4801143F48013AE44A1FBD4
:10169000024CA0FB0365AEF17F7E361955EB0C05BD
:1016A000A1FB034C4CF10003A0FB021C16EB0C0643
:1016B000654153F10003094218BF46F0010613F4D7
:1016C000007F0BD14FEA03314FEA0530340341EA82
:1016D000155140EA16506FF003020AE04FEAC321A9
:1016E0004FEAC520F40241EA555140EA56506FF0E6
:1016F000020202EB2E4201EB025585EACE710AD0BE
:101700005FEA440C18BF24F0004450F1000041F19E
:10171000000120EAD47040F2FE7C624500D270BD28
:10172000A84214BF4FF080444FF04044002E08BF41
:101730000024BEF1806FA8BFA1F1C041BDE8704098
:1017400080F282804FF0000001F1C04101F00041C1
:1017500070479EEA0C0F0CEA131518BF95EA0C0FA0
:1017600006D04FF0000081EA030E0EF0004170BD7C
:1017700000F01CF88900013E00F007B800F009B83D
:101780004FEA430C5FEA5C5C08D081EA030100F099
:101790005BB84FEA410C5FEA5C5CF6D14FF00000A9
:1017A000014970470000FF070000F87F0EF1020EAC
:1017B0002EF0030E5EF8046B364205D4012A43EB8B
:1017C000030515F5001F12D8012841EB010C1CF58B
:1017D000001F0CD80ED14FEAD17C15F5001F0CEB81
:1017E0004C0C0CF1020C08BF4CEBD37C04E04FF026
:1017F000080C01E04FEAD37C0CEB4C0526FA05F609
:1018000006F00706B6F1040C06D20EEB860CBDE816
:1018100070404CF0010C6047DFE80CF0090B02024D
:101820004FF000414FF00000A1F5002170BD1946B6
:101830001046012851EB010418BFD4F5001484BFF1
:10184000002001F0004170BD0808A0F500114FEA2A
:101850003101704710B591EA030F48BF83F0004390
:101860003FF5BEAC841A71EB030C07D212198CF051
:10187000004C43EB0C03001B61EB0C01DFF8A4E10F
:101880004FEA1154A4EB135C1EEA430F18BF9EEA03
:10189000445F00F0B08023EA6E03524221EA045113
:1018A000C3EB6E0338BF5B1EDCF1200E25D322FA9A
:1018B0000CFE10EB0E0043FA0CFE41EB0E01CCF1D6
:1018C000200E03FA0EFE10EB0E0051F10001CCF1D8
:1018D000200E29D412FA0EF201EB0451BDE810409B
:1018E00058BF7047401C1CBFB2F1004F7047002822
:1018F0000CBF491C20F00100704712EB020E43EBB5
:10190000030218BF4FF0010E4EEA4202ACF1200C68
:10191000DCF11E0E54D943FA0CFE10EB0E0051F10F
:10192000FF31CCF11E0ED5D50EF1010E12FA0EFECE
:10193000404141EB010101EB445C5FEA5C5C10D982
:1019400010EBDE7001EB045138BFBEF1004FBDE873
:10195000104018BF704700280CBF491C20F0010040
:10196000704730D24FEAD42C11F5001124F40064F2
:101970001BD0B1FA81F20B3AA41AA41ED2F12003B3
:10198000914030FA03F31943904001EBCC71002CE5
:1019900001EB0451BDE81040A8BF704701F1C04100
:1019A0004FF0000001F000417047B0FA80F310FAE8
:1019B00003F100D110BDE41A173C4805C90AE4E759
:1019C00001EB045110BD491001EB0451BDE810407A
:1019D0004FEA300002E04FF0000170474A0008BFB4
:1019E0000042F8D0B2F5001F28BF704701F0004157
:1019F0004FF0000070479EEA445F07D011EA5E0F87
:101A0000BDE8104004BF002100207047BDE8104031
:101A100070B5FFF7CBFE00BF40DFF63E83F000411C
:101A2000104670470000E0FF43004FEAD30C4FEA36
:101A30003C0C43401FBF40070CF1605113F0FE4FB8
:101A400070471CF0006F03D100200CF0004170477C
:101A50000CF0004343EA507010B540EACC0000F0AF
:101A6000E8F900BF000000924FEA0001FFF7ECBE6A
:101A70004FF000414FF00000A1F500217047000039
:101A800090EA010F48BF81F0004100F12482421A20
:101A90003CBF801A89184FEAD0524FF07F4C1CEAA5
:101AA000410FA2EBD15318BF9CEA026F00F03B80BC
:101AB0004FF0004C4CEA00204CEA012121FA03FCD3
:101AC00010EB0C0C1ED202F1FF325FEA1C2040EB3F
:101AD000C25038BF70471CF07F0F4FEA400C18BF50
:101AE000BCF17F4F38BF7047C3F12003994008BF56
:101AF00020F00100BCF17F4F38BF7047A0F1C0401B
:101B000000F0DDB94FEA3C00000A40EBC25028BFAC
:101B10001CF0FF0F4FEA400CE6D018BFBCF17F4F1E
:101B200038BF7047EAE79CEA026F05D010EA5C0F05
:101B300008BF00F00040704710B500F07AF900BF10
:101B400064FBBE3E4FF47F0C1CEAD0121EBF1CEAA1
:101B5000D11392EA0C0F93EA0C0F00F0858090EA03
:101B6000010F48BF42F4807240F4000C41F40000C1
:101B70002CF07F4120F07F4000B58142A2EB0302B0
:101B80000FF2081CACEB504EC0F100009EF800E0D4
:101B90004FEA4E0E00FB0EFC38BF49004FEA2C1CEA
:101BA00002F5FA020CFB0EF34FEACE1E4FEA112C9F
:101BB0004FEAC1210EEB635E42EB22420EFB0CFCAE
:101BC0004FEA1C5300FB03114FEA112C4FEA01317D
:101BD0000EFB0CFC4FEADC4C00FB0C11C14228BF91
:101BE00009184CEB03335DF804EB10EB410143EBB8
:101BF000C250B2F57C0F38BF704729D512F0F00FF4
:101C00001CBF00F1C04000F000407047008182839B
:101C10008485868788898B8C8D8E8F9192939596FB
:101C200097999A9C9D9FA0A2A3A5A7A8AAACAEB085
:101C3000B2B3B5B7B9BCBEC0C2C5C7C9CCCED1D48A
:101C4000D7D9DCDFE2E6E9ECF0F3F7FAFE000000BA
:101C50004FEA400C0CF1807CBCF17E4F28BF7047EE
:101C6000B0F1C04000F02BB990EA010F0CEAD1139B
:101C700048BF42F48072624538BF634507D213F40F
:101C80007F0F16D080EA010000F00040704710B5C9
:101C900000F0CFF8097EFC3E00F005B880EA0100B4
:101CA00000F00040704780EA010000F0004000F0C2
:101CB00006B912F47F0F04BF0248704780EA0100A2
:101CC00000F0FDB80000C07F41000B0ED3F19E0272
:101CD00008D950F400034FEA032323FA02F048BF67
:101CE0004042704710B500F0A4F800BF499224802C
:101CF000002070476FF0004282EA20007047000029
:101D000010F0004148BF4042B0FA80F310FA03F2ED
:101D1000C3F19D030BD051EAC35101EB12205306CE
:101D200038BF704700F1010008BF20F00100704784
:101D30004FF47F0C1CEAD0121EBF1CEAD11392EAAA
:101D40000C0F93EA0C0F00F0478090EA010F48BF98
:101D500042F480724FF0004C4CEA00204CEA012122
:101D600002EB0302A0FB0113A2F50002002918BF39
:101D700043F001035B0028BF4FEA330342EB2242EA
:101D80005FEA132C4CEBC2502EBFBCEB436FB2F595
:101D90007C0F70474FEA036CBCF1004F08BF20F086
:101DA0000100B2F57C0F38BF70470BD582F0FF02FF
:101DB00012F5803FC8BF704700F1C040D8BF00F0A7
:101DC0000040704700F5000C5FEA4C0C48BF7047BC
:101DD000B0F1C04000F073B890EA010F0CEAD113E3
:101DE00048BF42F48072624538BF634504D280EA3E
:101DF000010000F00040704710B500F01AF800BF75
:101E00008900013E00F007B800F009B85FEA410C14
:101E10005FEA1C6C08D080EA010000F050B85FEA6D
:101E2000400C5FEA1C6CF6D14FF00040A0F580003A
:101E300070470EF1020E2EF0030E5EF8044B2442A2
:101E400004D44FEA4102B2F17F4F11D84FEA400368
:101E5000B3F17F4F0CD80ED14FEAD07CB2F17F4F57
:101E60000CEB4C0C0CF1020C08BF4CEBD17C04E0E9
:101E70004FF0080C01E04FEAD17C0CEB4C0324FA44
:101E800003F404F00704B4F1040C06D20EEB840C46
:101E9000BDE810404CF0010C6047DFE80CF007088B
:101EA00002024FF00040A0F5800010BD084642003D
:101EB00018BFD2F1807288BF00F0004010BDFF2132
:101EC00041EAD050C005704790EA010F48BF81F049
:101ED00000413FF5DCAD421A04D882F00042A0EB8D
:101EE000020011444FEAD0524FF07F4C1CEA410FE0
:101EF000A2EBD15318BF9CEA026F4AD04FF0004CBE
:101F00004CEA00204CEA012121FA03FCB0EB0C0C56
:101F10000FD412F0FE0F36D05FEA4C001DD5001230
:101F200040EBC25038BF70471CF03F0F18BF7047DE
:101F30000BE0A2F101025FEA1C2040EBC25038BF67
:101F400070471CF07F0F18BF7047C3F12003994002
:101F500014BF401E20F00100704780084FEA122392
:101F600008BF7047B0FA80FCA2EB0C02CCF1280C41
:101F700060FA0CF093EA122F04BF00EBC2507047D6
:101F80004FEAC3707047130A5FEADC1008BF70475E
:101F9000F6E79CEA026F04D010EA5C0F08BF00204D
:101FA000704710B5FFF745FF40DFF63E81F0004077
:101FB00070470000D41F0008000000201800000037
:101FC00028010008EC1F000818000020700600001F
:101FD000440100080000000000A24A0400000000C4
:0C1FE000000000000102030406070809CD
:04000005080001915D
:00000001FF
