:020000040800F2
:10000000780600208901000891010008930100088A
:100010009501000897010008990100080000000000
:100020000000000000000000000000009B0100082C
:100030009D010008000000009F010008A1010008C8
:10004000A3010008A3010008A3010008A301000800
:10005000A3010008A3010008A3010008A3010008F0
:10006000A3010008A3010008A3010008A3010008E0
:10007000A3010008A3010008A3010008A3010008D0
:10008000A3010008A3010008A3010008A3010008C0
:10009000A3010008A3010008A3010008A3010008B0
:1000A000A3010008A3010008A3010008A3010008A0
:1000B000A3010008A3010008A3010008A301000890
:1000C000A3010008A3010008A3010008A301000880
:1000D000A3010008A3010008A3010008A301000870
:1000E000A3010008A3010008A301000800F002F822
:1000F00000F03AF80AA090E8000C82448344AAF188
:100100000107DA4501D100F02FF8AFF2090EBAE885
:100110000F0013F0010F18BFFB1A43F0010318473B
:1001200080090000A0090000103A24BF78C878C1F7
:10013000FAD8520724BF30C830C144BF04680C60ED
:10014000704700000023002400250026103A28BF35
:1001500078C1FBD8520728BF30C148BF0B60704739
:100160001FB51FBD10B510BD00F031F81146FFF7E7
:10017000F7FF00F061FB00F04FF803B4FFF7F2FF68
:1001800003BC00F057F800000948804709480047C1
:10019000FEE7FEE7FEE7FEE7FEE7FEE7FEE7FEE737
:1001A000FEE7FEE704480549054A064B7047000094
:1001B00089030008ED000008780000207806002080
:1001C000780200207802002070477047704775461B
:1001D00000F02CF8AE4605006946534620F00700B3
:1001E000854618B020B5FFF7DDFFBDE820404FF091
:1001F00000064FF000074FF000084FF0000B21F011
:100200000701AC46ACE8C009ACE8C009ACE8C009DD
:10021000ACE8C0098D46704710B50446AFF30080C6
:100220002046BDE81040FFF7A8BF00000048704717
:100230001400002001491820ABBEFEE72600020092
:1002400070470000094800684FF47A71B0FBF1F084
:100250004FF0E02148610020886100BF4FF0E020AE
:10026000006900F480300028F8D0704700000020BA
:10027000094800680949B0FBF1F04FF0E0214861FE
:100280000020886100BF4FF0E020006900F480305A
:100290000028F8D0704700000000002040420F0006
:1002A00010B500F001F810BD0CB5002001900090D1
:1002B0003348006840F480303149086000BF30485E
:1002C000006800F4003000900198401C01900098F4
:1002D00018B90198B0F5A06FF1D12948006800F471
:1002E000003010B10120009001E000200090009843
:1002F000012843D12348006840F0100021490860DC
:100300000846006820F0070008600846006840F0D2
:10031000020008601A484068194948600846406869
:1003200048600846406840F480604860084640687D
:1003300020F47C1048600846406840F4E8104860AB
:100340000846006840F08070086000BF0C480068F4
:1003500000F000700028F9D00948406820F0030040
:10036000074948600846406840F00200486000BF06
:100370000348406800F00C000828F9D10CBD0000CB
:10038000001002400020024010B51348006840F001
:1003900001001149086008464068104908400E49AC
:1003A0004860084600680E4908400B490860084646
:1003B000006820F4802008600846406820F4FE00B1
:1003C00048604FF41F008860FFF76AFF4FF000603D
:1003D0000449086010BD0000001002400000FFF852
:1003E000FFFFF6FE08ED00E010B5044621464E2062
:1003F00000F084F810BD10B5044602E0FFF722FFBC
:10040000641E002CFAD110BD10B5044602E0FFF7BF
:100410002FFF641E002CFAD110BD000070B501281A
:1004200031D10424324DAC61082912DA314C2468F0
:100430008D0003FA05F52C432E4D2C602C462468C4
:10044000022505EB810502FA05F52C43294D2C60A8
:100450004CE0284C241D2468A1F10805AD0003FAE6
:1004600005F52C43234D2D1D2C602C462568A1F14C
:100470000804022606EB840402FA04F425431D4C0A
:10048000241D256032E0022830D10824184DAC61CB
:10049000082912DA184C24688D0003FA05F52C435C
:1004A000154D2C602C462468022505EB810502FAC7
:1004B00005F52C43104D2C6018E00F4C241D2468CA
:1004C000A1F10805AD0003FA05F52C430A4D2D1DD9
:1004D0002C602C462568A1F10804022606EB840452
:1004E00002FA04F42543044C241D256070BD00006D
:1004F0000010024000080140000C014008B502460F
:1005000042EA0100114B188000BF1048001D00880E
:1005100000F002000028F8D00EE00C48001D008812
:1005200000900A480830008800900848001D0088A4
:1005300000F0020000B906E00448001D008800F049
:1005400002000028E9D100BF012008BD105400407E
:10055000014600BF0848008800F080000028F9D05C
:100560000548001F018000BF0348008800F080009C
:100570000028F9D0012070471454004010B50446FB
:100580001248806940F00100104988610846C0693E
:1005900040F40010C86103231A4606210220FFF729
:1005A0003DFF03231A4607210220FFF737FF0820EB
:1005B00007490880064818300480081F008840F06A
:1005C0000100091F0880012010BD0000001002403A
:1005D000045400400748008840F4807005490880B2
:1005E00000BF04481430008800F001000028F8D053
:1005F00001207047005400400348008840F4007018
:1006000001490880012070470054004010B504469D
:10061000082000F045F90A20FFF7F6FE0C2000F054
:100620003FF90520FFF7F0FE04F0F00141F00C0067
:1006300000F036F90A20FFF7E7FE04F0F00141F080
:10064000080000F02DF91420FFF7DEFE0C2000F06A
:1006500027F90520FFF7D8FEF02101EA041141F047
:100660000C0000F01DF90A20FFF7CEFEF02101EA90
:10067000041141F0080000F013F910BD10B5044654
:10068000092000F00DF90A20FFF7BEFE0D2000F052
:1006900007F90520FFF7B8FE04F0F00141F00D0066
:1006A00000F0FEF80A20FFF7AFFE04F0F00141F081
:1006B000090000F0F5F81420FFF7A6FE0D2000F069
:1006C000EFF80520FFF7A0FEF02101EA041141F048
:1006D0000D0000F0E5F80A20FFF796FEF02101EA90
:1006E000041141F0090000F0DBF810BD10B52D2019
:1006F000FFF744FF1420FFF77EFE082000F0D0F83B
:100700000A20FFF781FE0C2000F0CAF80520FFF751
:100710007BFE3C2000F0C4F80A20FFF775FE38206D
:1007200000F0BEF80120FFF766FE082000F0B8F8E0
:100730000A20FFF769FE0C2000F0B2F80520FFF751
:1007400063FE3C2000F0ACF80A20FFF75DFE382085
:1007500000F0A6F80120FFF74EFE082000F0A0F8F8
:100760000A20FFF751FE0C2000F09AF80520FFF751
:100770004BFE3C2000F094F80A20FFF745FE38209D
:1007800000F08EF80120FFF736FE082000F088F810
:100790000A20FFF739FE0C2000F082F80520FFF751
:1007A00033FE2C2000F07CF80A20FFF72DFE2820D5
:1007B00000F076F82C20FFF729FF0520FFF71BFE3D
:1007C0000C20FFF723FF0520FFF715FE0120FFF7A0
:1007D0001DFF0520FFF70FFE0220FFF717FF052082
:1007E000FFF709FE10BD2DE9F04104460D461646FF
:1007F0000027012C00D102E0022C00D1402707F194
:1008000080012944C8B2FFF701FF6420FFF7FCFD17
:10081000304600F002F8BDE8F08170B504460025CE
:1008200006E0605DFFF72AFF6D1C6420FFF7ECFD1A
:10083000605D0028F5D170BD00F026F8FFF756FF87
:1008400009A200210120FFF7CEFF0121032000F0C3
:1008500035F807E008A1032000F0E8F84FF4FA703B
:10086000FFF7C9FDF6E70000416142436464646438
:10087000787A447800000000616E686120647965D0
:10088000756420656D00000000204FF0E0210861D4
:100890006FF07F4048610020886105200861704743
:1008A00010B50446FFF796FE0020FFF79DFD204699
:1008B000FFF74EFEFFF7A0FE10BD000070B5054625
:1008C0000C465648806940F0010054498861012D6A
:1008D00034D10846806940F48040886102230322B5
:1008E00009210120FFF79AFD022300220A2101209D
:1008F000FFF794FD24B941F646504949088005E0C8
:10090000012C03D140F27120454908804448001D64
:10091000008840F008004249091D08800846008808
:1009200040F0040008800846008840F40050088029
:100930000846008840F0200008806EE0022D35D186
:100940003648C06940F400303449C86102230322AC
:1009500019460120FFF762FD022300220321012036
:10096000FFF75CFD24B940F6A3602E49088005E03E
:10097000012C03D14FF49C702A4908802948001D9E
:10098000008840F008002749091D088008460088B3
:1009900040F0040008800846008840F400500880B9
:1009A0000846008840F02000088036E0032D34D14E
:1009B0001A48C06940F480201849C8610223032204
:1009C0000A211846FFF72AFD022300220B211846B0
:1009D000FFF724FD24B940F6A3601349088005E021
:1009E000012C03D14FF49C700F4908800E48001D64
:1009F000008840F008000C49091D0880084600885E
:100A000040F0040008800846008840F40050088048
:100A10000846008840F02000088070BD00100240A9
:100A200008380140084400400848004030B50546F9
:100A30000B46002404E0195D284600F005F8641C0C
:100A4000185D0028F7D130BD01280AD100BF114A36
:100A5000128802F04002002AF9D00E4A121D1180BD
:100A60000BE0022809D100BF0B4A128802F04002B5
:100A7000002AF9D0084A121D1180032809D100BFAD
:100A8000064A128802F04002002AF9D0034A121DD9
:100A90001180704700380140004400400048004089
:100AA000C00A00080000002014000000280100080F
:100AB000D40A000814000020640600004401000865
:100AC00000A24A040000000000000000010203042C
:040AD0000607080904
:040000050800018965
:00000001FF
