:020000040800F2
:1000000078060020A1010008A9010008AB01000842
:10001000AD010008AF010008B101000800000000B8
:10002000000000000000000000000000B301000814
:10003000B501000800000000B7010008B901000880
:10004000BB010008BB010008BB010008BB010008A0
:10005000BB010008BB010008BB010008BB01000890
:10006000BB010008BB010008BB010008BB01000880
:10007000BB010008BB010008BB010008BB01000870
:10008000BB010008BB010008BB010008BB01000860
:10009000BB010008BB010008BB010008BB01000850
:1000A000BB010008BB010008BB010008BB01000840
:1000B000BB010008BB010008BB010008BB01000830
:1000C000BB010008BB010008BB010008BB01000820
:1000D000BB010008BB010008BB010008BB01000810
:1000E000BB010008BB010008BB01000800F002F8DA
:1000F00000F047F80AA090E8000C82448344AAF17B
:100100000107DA4501D100F03CF8AFF2090EBAE878
:100110000F0013F0010F18BFFB1A43F0010318473B
:100120006822000088220000103A24BF78C878C1F5
:10013000FAD8520724BF30C830C144BF04680C60ED
:10014000704700000023002400250026103A28BF35
:1001500078C1FBD8520728BF30C148BF0B60704739
:10016000662902F0C580002070471FB500F012FB21
:1001700004000020002101F0ABFCE0601FBD10B5C1
:1001800010BD00F007FC1146FFF7EFFF01F0ECFA9D
:1001900000F025FC03B4FFF7F2FF03BC00F068FC9D
:1001A0000948804709480047FEE7FEE7FEE7FEE70B
:1001B000FEE7FEE7FEE7FEE7FEE7FEE70448054947
:1001C000054A064B70470000D9140008ED000008EE
:1001D00078000020780600207802002078020020B5
:1001E0000FB41CB50C0007AA009001D02044401E9B
:1001F000074B7B4469460190069800F0AAFA002C50
:1002000003D06946002000F0B7FA1CBC5DF814FB6F
:100210008D0500002DE9F0474FF0000A894604469D
:10022000C0F820A02046E1688847002876D025281D
:1002300006D0D4E901219047206A401C2062F1E7F2
:10024000E168204600258847C4F81CA00646002720
:10025000C4F818A02A2E09D0304601F081F938B32D
:1002600004EB8708303EC8F8186019E059F8041B01
:10027000204604EB87029161E1688847012F06461A
:1002800018D1E069002820DA25F020051DE0D8F813
:10029000180000EB800006EB40003038C8F818006A
:1002A0002046E1688847064601F05AF90028EED159
:1002B000012F0AD02E2E08D12046E16888477F1CE6
:1002C0000646022F45F02005C4DBA069002803DAAA
:1002D000404245F00105A061E80701D025F0100576
:1002E000B6B1A6F14100192802D8203645F40065C0
:1002F0004A463146204625604D46FFF731FF58B14A
:10030000012806D0ED1D25F0070000F1080989E756
:1003100004E005F1040985E730468AE7206ABDE874
:10032000F08770477047704770472DE9FF4F0C46C4
:100330001E464FF0FF378BB0D2E90001DDF8608038
:100340000A908A46C1F30A5505B93D460021084680
:100350004FF00000BAF1000F00F4400005DA00EBA6
:1003600080004FF4400101EA50004FEA9059B9F182
:10037000010F00DDB9460A9850EA4A000ED044F653
:100380001050A5F2FF3545432F14B8F1000F1ED0D1
:100390007542291E1EDDC9F100021CE0B8F1010FF3
:1003A0004FF0000001D0302103E0F24305E021547A
:1003B000401CB042FBDB30460022002121540B9947
:1003C000C1F80880C1E900200FB0BDE8F08FBD1B67
:1003D0006D1CDEE74A4600DA694206A800F064FABE
:1003E00006AB93E8070003AB83E8070050460A9981
:1003F00000F045FB8DE80700A0F500501F38009085
:100400000398002D0ADD42F21F014A4608440023EA
:1004100003A90390684600F0AEFD09E0A0F5005086
:100420004A461F38002303A90390684600F0B8FD30
:100430008DE807000004000C03D04FF0FF304108A6
:1004400000E01046B8F1000F03D0002200921546DC
:100450001EE0751E05D400F0A1F9303262556D1E04
:10046000F9D5B3460122084302D000227F1C04E0E4
:100470002078302801D100227F1E002A099784D0DD
:100480001DE0112D07DA00F089F9303262556D1C3C
:1004900050EA0102F5D1084302D00098C8B10EE03D
:1004A0000021681E05E0235C625C63542254401EF8
:1004B000491C8142F7DBAB46A81B401E0990002077
:1004C00004F80B000B98099AC0F80880C0E9002BCB
:1004D0007AE711264FF0000857E72DE9F04F8846DC
:1004E0000446D21D22F0070191B0D1E90001CDE907
:1004F0000A0101F021F802460B98C00F01D02D200F
:1005000007E02068810701D52B2002E0202101EAC5
:10051000C000032A099001D0072A05DB03464146A3
:10052000204600F081F90BE12078800601D5E069D2
:1005300000E00620B8F1650F814606D0B8F1660FDD
:1005400018D0B8F1670F70D131E00020B9F1110F68
:10055000009001DB112301E009F101030AAA01A9BE
:100560000CA8FFF7E2FEDDE90C70002609F1010599
:10057000834647E001204B4600904FF000470AAA0F
:1005800001A90CA8FFF7D1FEDDE90DB00C995D467D
:10059000002610B909F101000D18B9EB050003D4CC
:1005A000C0F1FF3609F10105A5EB09002BE0B9F117
:1005B000010F01DA4FF001090020B9F1110F00908D
:1005C000484601DD112300E003460AAA01A90CA850
:1005D000FFF7ABFEDDE90C704D4600268346207820
:1005E00000070AD4AB4500DA5D4601A8012D04DD01
:1005F000411911F8011C302907D04F4502DA17F1D3
:10060000040F04DA012082460FE06D1EEEE7002F92
:1006100002DCED1B3E4403E0781CA84200DD7D1C9B
:10062000B81B00F1010A4FF000472078000703D4FF
:10063000AA4501DB4FF0FF3A0021B7F1004F0DF161
:1006400043088DF8431024D002202B23002F01DA19
:100650007F422D230A21021EA0F1010000DC5FB1C0
:1006600097FBF1FC97FBF1F201FB1C7C17460CF1A8
:10067000300C08F801CDEEE7A8F1010003702188E5
:10068000090501D5452100E06521A0F1010800F828
:10069000011C09980FA9A1EB0807FF1D00B101205B
:1006A000411901EBEA70A1693844081A401EA061A3
:1006B0002078C00602D42046AFF30080099828B104
:1006C000D4E901219047206A401C20622078C006AE
:1006D00022D52046AFF300801EE0002E04DBB34598
:1006E00002DD01A8805D00E03020D4E901219047BF
:1006F000206A401C2062761CAAF101005FEA000A11
:100700000AD100F047F8C0680168405CD4E90121D3
:100710009047206A401C2062281EA5F10105DCDC00
:1007200007E0D4E9012118F8010B9047206A401C2A
:100730002062381EA7F10107F3DC2046AFF30080EA
:10074000032011B041E6000001694A1C02610878EB
:10075000704700B58FB0CDE9013100210591054901
:100760007944CDE9031011466846FFF753FD0FB0F9
:1007700000BD0000E5FFFFFF0A6802F8010B0A60F8
:100780007047D1E900239A4202D2531C0B601070CB
:1007900070470000004870473400002030B5B0F1C9
:1007A0000A024FEA900E71F100034EEA817EB0EB2F
:1007B0000E0061EB91014FEA101E4EEA017E10EB34
:1007C0000E0041EB11114FEA102E4EEA016E10EBB4
:1007D0000E0041EB11214FEA104E4EEA014E10EB94
:1007E0000E0041EB1141401841F100014FEAD000E9
:1007F00040EA41704FEAD10110EB80054FEA8104D5
:1008000044EA907444EB01046D1944EB0404521B58
:10081000A3414FF0000348BF0A3200D530BD401C51
:1008200041F1000130BD00002DE9F0411F460446B2
:1008300003260168072A01F4006004DB08B116A54D
:1008400005E016A503E008B115A500E015A521F007
:1008500010002060A069C01EA0610FB1401EA06101
:100860002046AFF300804FB1D4E9012138469047CC
:10087000206A401C2062C01C206206E0206AFAE761
:10088000D4E9012115F8010B9047761EF8D22046D5
:10089000AFF30080BDE8F0814E414E006E616E0006
:1008A000494E4600696E66002DE9F04781461646BE
:1008B0008AB0354878440DC88DE80D003248784438
:1008C000801C03AC0DC884E80D0041F69B30084441
:1008D000372190FBF1F290FBF1F5A5F1800501FBCA
:1008E00012041B3C02D56442012000E00020DFF826
:1008F00098A080460027FA44AAF1BE0A0EE0E0075D
:100900000AD03246684607EB470101230AEB810112
:1009100000F046FB8DE8070064107F1C002CEED130
:10092000194F7F44AE3F19E0E80715D007EB0410DC
:100930000DF1180A90E80E008AE80E00C068F04237
:1009400001D1981908903246012306A903A800F0A6
:1009500027FB03AB83E807006D10641C002DE3D177
:100960004FF0010332466946B8F1000F03A802D0E8
:1009700000F001FB01E000F013FBC9E90001C9F838
:1009800008200AB0BDE8F087B81A00000048704798
:10099000140000207546FFF7F9FFAE4605006946D2
:1009A000534620F00700854618B020B5FFF706FC37
:1009B000BDE820404FF000064FF000074FF0000860
:1009C0004FF0000B21F00701AC46ACE8C009ACE8E1
:1009D000C009ACE8C009ACE8C0098D46704710B545
:1009E0000446AFF300802046BDE81040FFF7D2BBBD
:1009F0004FF0013C50F8042B51F8043B9A4221D1AE
:100A0000A2EB0C03934313EACC1317D150F8042B39
:100A100051F8043B9A4215D1A2EB0C03934313EA1D
:100A2000CC130BD150F8042B51F8043B9A4209D156
:100A3000A2EB0C03934313EACC13DBD04FF000007E
:100A4000704700BFD01A01BAB1FA81F101F0180164
:100A500022FA01F0CB40C1F12001DBB2C0B2C01AD2
:100A60002CFA01F3D11A914311EAC311E6D1704770
:100A700001491820ABBEFEE72600020070475FEA7E
:100A8000400C08BF91F0000F4FEA8C234FEAC122BF
:100A900043EA51514FEA1C5018BF00F5F0404FEAAD
:100AA000300018BF41F000415FEA6C5C00F0298023
:100AB000BCF1FF3F08BF40F080407047130C06BFF9
:100AC00012044FF0100C4FF0000C130E04BF120272
:100AD0000CF1080C130F04BF12010CF1040C930F5E
:100AE00004BF92000CF1020CD30F04BF52000CF1B2
:100AF000010C11464FF00002A0F11F00A0EB0C000A
:100B0000704711F0004F08BF704731F000413FF4CB
:100B1000D5AF0B0C06BF09044FF0100C4FF0000CC2
:100B20000B0E04BF09020CF1080C0B0F04BF0901E6
:100B30000CF1040C8B0F04BF89000CF1020CCB0FDD
:100B400004BF49000CF1010CCCF12003A0EB0C0018
:100B500022FA03F302FA0CF241EA030100F1010068
:100B6000704720F07F4C80EA030023F07F47ACEB16
:100B7000070303F57C5300F0004003F1FF032DE968
:100B800080494FEA154B09B44FEA144325EA0B4E4E
:100B900024EA03480FF2042606EB132749083E789F
:100BA0005FEA320203FB0667C7F5000707FB06F69C
:100BB0004FEA54374FEAD64606F1020607FB066CA9
:100BC000CCF1005C4FEA1C472CEA074C07FB06F40B
:100BD0000CFB06F504EB15464FEA961634BF0020D1
:100BE0004FF000404FEAD13706FB07FC4FEA1C4CA0
:100BF0000CFB0BF7D21B03FB0CF761EB07010CFBA3
:100C00000EF7B0EB074072EB17420CFB08F734BF4E
:100C1000A2EB0742B2EB074261EB17414FEA0C44EB
:100C20004FEA910706FB07FC4FEA1C4C0CFB0BF745
:100C3000B0EBC74072EB573203FB0CF734BFA2EBAB
:100C4000C742B2EBC74261EB57310CFB0EF7B0EB7A
:100C5000C70072EB57720CFB08F734BFA2EBC70258
:100C6000B2EBC70261EB5771039F4FEA816141EA22
:100C7000921104EBCC044FEAD1374FEA826206FBB3
:100C800007FC42EA90124FEA80604FEA1C4C0CFBD2
:100C90000BF7D21B03FB0CF761EB07010CFB0EF704
:100CA000B0EB074072EB17420CFB08F734BFA2EB26
:100CB0000742B2EB074261EB17414FEA8C554FEA0E
:100CC000910704EB9C2406FB07FC4FEA1C4C0CFB31
:100CD0000BF7B0EBC74072EB573203FB0CF734BF96
:100CE000A2EBC742B2EBC74261EB57310CFB0EF7E8
:100CF000B0EBC70072EB57720CFB08F734BFA2EBE6
:100D0000C702B2EBC70261EB577115EB4C254FEAF6
:100D1000816141EA92114FEA82624FEAD13742EA99
:100D2000901206FB07FC44F100044FEA80604FEA92
:100D30001C4C0CFB0BF7D21B03FB0CF761EB070100
:100D40000CFB0EF7B0EB074072EB17420CFB08F7F9
:100D500034BFA2EB0742B2EB074261EB174115EB40
:100D60001C154FEA813141EA92414FEA823242EA50
:100D700090424FEA80304FEA0C7644F1000448EA92
:100D800003434EEA0B484FF0000EB2EB080C71EB38
:100D9000030724BF624639464EEB0E0E4FF0000BA0
:100DA0000018524149414BEB0B0BB2EB080C71EBB5
:100DB00003077BF1000B24BF624639464EEB0E0E53
:100DC0004FF0000B0018524149414BEB0B0BB2EBBB
:100DD000080C71EB03077BF1000B24BF6246394618
:100DE0004EEB0E0E51EA020718BF46F0010616EB55
:100DF0000E7655F1000254F1000103D5BDE88901DA
:100E0000BDE80088BDE88901BDE80048B619524137
:100E100041EB0101A3F10103704780807F7E7D7C5F
:100E20007B7A7978777676757473727171706F6E7C
:100E30006E6D6C6C6B6A6A69686867666665646427
:100E4000636362616160605F5F5E5E5D5D5C5C5BB1
:100E50005B5A5A5959585857575656555555545420
:100E6000535352525251515050504F4F4F4E4E4D7E
:100E70004D4D4C4C4C4B4B4B4A4A4A4949494848CA
:100E8000484747474746464645454544444444430A
:100E900043434342424242414141002B9C4630D4AD
:100EA00077002BD01CB54FEA370703B44FF0100082
:100EB0004FF01001BAF1000F06D0BCF1000FDCBFFB
:100EC00040F0080040F008014FF000000FBCBDE802
:100ED00010400BF1010BBBF1010F08BF5FEA1707D0
:100EE00022BF12F1010211F101014FF0004143F163
:100EF000000300F0004043EA00007047F9D35708B0
:100F0000D0E746EA064613F1400F4FEA16461FDDCA
:100F100013F1200FDFBF16430A46002120335B4246
:100F2000BED0C3F1200746EA064602FA07F74FEAA9
:100F3000164646EA0706C3F1200722FA03F201FA31
:100F400007F721FA03F14FF0000342EA0702A7E78F
:100F500046EA020646EA06464FEA164646EA010611
:100F6000BCBF46EA0646360C4FF000034FF00002C5
:100F70004FF0000194E72DE9804C9A46934670B4F7
:100F800091E8380007C831EA400C48BF34EA430C06
:100F900003D5FFF7E6FDFFF780FFF0BCBDE8008C4E
:100FA0002DE9804C9A46934670B491E8380007C802
:100FB00010F0804F08BF13F0804F03D100F005F808
:100FC000FFF76BFFF0BCBDE8008C20F07F4780EAA4
:100FD000030023F07F4C07EB0C03A3F57C5300F0D8
:100FE0000040A3F1FE0392F0000F00F0B38095F0F3
:100FF000000F00F077802DE901494FEA11404FEAD8
:10100000144621EA004800FB06FC24EA064708FBD8
:1010100006F607FB08F800FB07F718EB06484CEB51
:10102000164C4FEA124B18EB07484FEA15464CEBAB
:10103000174022EA0B4E0BFB06FC25EA06470EFB87
:1010400006F607FB0EFE0BFB07F71EEB064E4CEBFE
:10105000164C4FF000061EEB074E4CEB174B18EBEF
:101060000B0840F1000018EB0E0B58EB000840F1A4
:1010700000008F1A4FF000013CBFC943661B14BF2C
:10108000B5EB040C00213CBFC943F61B4FEA1744E3
:101090004EEA8E0E27EA04454FEA1C4704FB07621E
:1010A0002CEA074C05FB07F70CFB05F604FB0CFCD0
:1010B00016EB074642EB174216EB0C4642EB1C427E
:1010C0001BEB060658EB0202414146EA9E0601D59B
:1010D000BDE80189B619524141EB0101A3F10103B9
:1010E000BDE801894FEA14454FEA114724EA054655
:1010F00021EA074C05FB07F406FB07F70CFB06F19A
:1011000005FB0CFC11EB074144EB17444FEA124777
:1011100011EB0C4144EB1C4422EA074C05FB07F29F
:1011200006FB07F70CFB06F605FB0CFC16EB074667
:1011300042EB174216EB0C4642EB1C456A1854F181
:10114000000148BF7047B619524141EB0101A3F1BC
:101150000103704795F0000F37D04FEA11424FEA74
:10116000144721EA024624EA074C02FB07F106FB7A
:1011700007F70CFB06F402FB0CFC14EB074441EBF5
:1011800017414FEA154714EB0C4441EB1C4125EA8B
:10119000074C02FB07F506FB07F70CFB06F602FB04
:1011A0000CFC16EB074645EB174516EB0C4645EBDA
:1011B0001C42121951F1000148BF7047B619524143
:1011C00041EB0101A3F1010370474FEA14454FEAD7
:1011D000114724EA054621EA074C05FB07F106FB07
:1011E00007F70CFB06F24FF0000605FB0CFC12EBB8
:1011F000074241EB174112EB0C4251EB1C4148BF37
:101200007047921841EB0101A3F10103704700B54B
:101210000023282000F0ACF900F038FB48B950203A
:1012200000F0A6F900F032FB00B10123322000F0FB
:101230009FF9184600BD10B5002400231DE000BF33
:1012400000F024FB0028FBD0282000F091F900F0EA
:101250001DFB28B9C3F107010120884084430AE03F
:10126000C3F10701012088402043C4B200BF00F051
:101270000DFB0028FBD1581CC3B2082BDFDB204636
:1012800010BD000000B500F017FB4FF48030074997
:10129000086044F2506000F06BF9012003490860D7
:1012A000142000F065F900F0F9FA00BD10080140C3
:1012B0000B48806940F004000949886109480068CA
:1012C00020F00F00074908600846006840F002005F
:1012D00008600846006840F004000860704700009D
:1012E000001002400008014010B500F001F810BDE8
:1012F0000CB50020019000903348006840F4803025
:101300003149086000BF3048006800F400300090A8
:101310000198401C0190009818B90198B0F5A06F91
:10132000F1D12948006800F4003010B1012000908C
:1013300001E0002000900098012843D12348006874
:1013400040F01000214908600846006820F00700BE
:1013500008600846006840F0020008601A484068CB
:10136000194948600846406848600846406840F4AB
:10137000806048600846406820F47C104860084659
:10138000406840F4E81048600846006840F080700B
:10139000086000BF0C48006800F000700028F9D019
:1013A0000948406820F00300074948600846406843
:1013B00040F00200486000BF0348406800F00C00A5
:1013C0000828F9D10CBD00000010024000200240A6
:1013D00010B51748006840F480301549086000BF18
:1013E0001348006800F400300028F9D01048406825
:1013F00040F4E8100E4948600846006840F08070EC
:10140000086000BF0A48006800F000700028F9D0AA
:101410000748406840F002000549486000BF0448A2
:10142000406800F00C000828F9D100F003F810BD66
:101430000010024010B5002100200022214B5B6803
:1014400003F00C0121B1042906D0082928D107E0B6
:101450001D4B1E4C236027E01B4B1C4C236023E0DC
:10146000184B5B6803F47010164B5B6803F4803212
:10147000022303EB904022B9154B4343134C2360E6
:101480000DE0104B5B6803F4003323B1104B434372
:101490000E4C236003E00C4B43430C4C236003E0F1
:1014A000094B0A4C236000BF00BF064B5B68C3F3C7
:1014B0000313084CE15C054B1B68CB40034C2360D5
:1014C00010BD00000010024000127A000000002051
:1014D00000093D000400002010B51348006840F0EA
:1014E00001001149086008464068104908400E494B
:1014F0004860084600680E4908400B4908600846E5
:10150000006820F4802008600846406820F4FE004F
:1015100048604FF41F008860FFF7E6FE4FF0006060
:101520000449086010BD0000001002400000FFF8F0
:10153000FFFFF6FE08ED00E0490050EAC12018BFA9
:1015400004204A0D18BF40F0010040F2FF72B2EBD8
:10155000515F08BF40F00200012808BF0520704716
:1015600030380A2801D2012070470020704700005F
:101570000D4909680D4AB1FBF2F14143491E4FF094
:10158000E0225161002191610521116100BF4FF0FE
:10159000E021096901F480310029F8D000214FF0E1
:1015A000E0221161704700000000002040420F005F
:1015B00070B5012844D10424664DAC6108291ADABB
:1015C000654C24688E000F25B540AC43624D2C60FD
:1015D0002C4624688D0003FA05F52C435E4D2C60E3
:1015E0002C462468022505EB810502FA05F52C43FB
:1015F000594D2C60ADE0584C241D2468A1F108051C
:10160000AE00564DB540AC43534D2D1D2C602C46BD
:101610002468A1F10805AD0003FA05F52C434E4DF1
:101620002D1D2C602C462568A1F10804022606EB2E
:10163000840402FA04F42543474C241D256088E005
:10164000022844D10824434DAC6108291ADA444CDD
:1016500024688E000F25B540AC43414D2C602C46CC
:1016600024688D0003FA05F52C433D4D2C602C4673
:101670002468022505EB810502FA05F52C43384D57
:101680002C6066E0364C241D2468A1F10805AE00EC
:101690000F25B540AC43324D2D1D2C602C462468DF
:1016A000A1F10805AD0003FA05F52C432C4D2D1DC5
:1016B0002C602C462568A1F10804022606EB840460
:1016C00002FA04F42543264C241D256041E003283A
:1016D0003FD110241F4DAC6108291ADA214C24682F
:1016E0000E010F25B540AC431E4D2C602C462468DE
:1016F0008D0003FA05F52C431A4D2C602C46246806
:10170000022505EB810502FA05F52C43154D2C60E9
:101710001FE0144C6468A1F10805AE000F25B54028
:10172000AC43104D6C602C466468A1F10805AD0017
:1017300003FA05F52C430B4D6C602C466568A1F14E
:101740000804022606EB840402FA04F42543054C3F
:10175000656070BD001002400008014011110B00CF
:10176000000C014000100140ADF5047DFFF730FE94
:1017700000F0B0F80121032000F0B8F8FFF798FD61
:101780001BE003A800F020F8DDE9030183918290BB
:10179000829800F037FD04460D46839800F032FD34
:1017A00006A28DE833004FF4FA7105A8FEF718FD84
:1017B00005A9032000F052F900BFE2E7252E3266AA
:1017C00020252E32660A00002DE9F04F89B004462C
:1017D000FFF758FDFFF71BFD002849D0FFF72BFD51
:1017E0000546FFF728FD0646FFF725FD8146FFF772
:1017F00022FD8246FFF71FFD8346A8194844504446
:10180000C0B2584530D1504600F0AAFB00221D4B13
:10181000CDE9000100F04CFACDE90401484600F0A2
:101820009FFBCDE90201DDE9042300F099F90746A9
:1018300000F064F90690304600F092FB0022114B54
:10184000CDE9000100F034FACDE90201284600F0AC
:1018500087FB0746DDE9022300F082F9CDE90401A8
:1018600000F04CF9079002E007480690079002E06C
:10187000054806900790DDE90601C4E9000109B0BA
:10188000BDE8F08F00005940000080BF02480068AA
:1018900000F001007047000008080140054800689A
:1018A00020F00F00034908600846006840F004007B
:1018B00008607047000801400548006820F00C00EF
:1018C000034908600846006840F006000860704759
:1018D0000008014000204FF0E02108616FF07F40D8
:1018E00048610020886105200861704770B5054691
:1018F0000C465648806940F0010054498861012D2A
:1019000034D10846806940F4804088610323022274
:1019100009210120FFF74CFE002302220A210120A9
:10192000FFF746FE24B941F646504949088005E0D4
:10193000012C03D140F27120454908804448001D24
:10194000008840F008004249091D088008460088C8
:1019500040F0040008800846008840F400500880E9
:101960000846008840F0200008806EE0022D35D146
:101970003648C06940F400303449C861032302226C
:1019800011460120FFF714FE00230222032101204B
:10199000FFF70EFE24B940F6A3602E49088005E04B
:1019A000012C03D14FF49C702A4908802948001D5E
:1019B000008840F008002749091D08800846008873
:1019C00040F0040008800846008840F40050088079
:1019D0000846008840F02000088036E0032D34D10E
:1019E0001A48C06940F480201849C86103230222C4
:1019F0000A211046FFF7DCFD002302220B211046CE
:101A0000FFF7D6FD24B940F6A3601349088005E02E
:101A1000012C03D14FF49C700F4908800E48001D23
:101A2000008840F008000C49091D0880084600881D
:101A300040F0040008800846008840F40050088008
:101A40000846008840F02000088070BD0010024069
:101A500008380140084400400848004030B50546B9
:101A60000B46002404E0195D284600F005F8641CCC
:101A7000185D0028F7D130BD01280AD100BF114AF6
:101A8000128802F04002002AF9D00E4A121D11807D
:101A90000BE0022809D100BF0B4A128802F0400275
:101AA000002AF9D0084A121D1180032809D100BF6D
:101AB000064A128802F04002002AF9D0034A121D99
:101AC0001180704700380140004400400048004049
:101AD00010B500290AD00878002807D005487844B6
:101AE000FEF786FF002801D0002010BD0248784490
:101AF00010BD0000CA080000C208000021F000422A
:101B0000A2F16052B2F5801F01F0004328BFD2F16C
:101B10007F6C0BD95FEA001C43EAC20242EB5070B3
:101B200018BF704728BF20F001007047B2F5801F32
:101B3000BCBF184670474FEA410C1CF5001F02D28B
:101B4000084600F0D0BB70B500F01DFA0000008917
:101B5000FFF7F6BF4FF00040A0F58000704700008F
:101B600010B591EA030F48BF83F0004300F168828B
:101B7000841A71EB030C05D2121943EB0C03001B02
:101B800061EB0C01DFF824E14FEA1154A4EB135C84
:101B90001EEA430F18BF9EEA445F73D023EA0E0388
:101BA000DCF1200E21EA045143F4801332D322FAEF
:101BB0000CFE10EB0E0023FA0CFE41EB0E01CCF1F3
:101BC000200E03FA0EFE10EB0E0051F10001B1F5EC
:101BD000801FCCF1200E32D201EB045112FA0EF22A
:101BE000BDE8104058BF7047401C38BF5FEA420252
:101BF00018BF7047002814BF20F0010041F1000118
:101C00004FEA410313F5001F38BF7047A1F1C041EF
:101C100000F007BA012A43EB0302ACF1200CDCF11F
:101C20001F0E32BF4FF0000E23FA0CF310EB03002F
:101C300041EB0451B4EB115FD0D0A1EB045101F59D
:101C4000801149085FEA300001EB04510ED350F1D6
:101C5000000038BF12FA0EFE08D1BDE81040C9E7F7
:101C6000401C38BF5FEA4202CAD1C3E7BDE810405A
:101C70004FEA410313F5001F38BF7047A1F1C0417F
:101C800000F0CFB99EEA445F08D011EA5E0FBDE8CC
:101C9000104004BF01F0004100207047BDE8104033
:101CA00070B500F070F900BF64FBBE3E0000E0FFBD
:101CB0002DE9C04130B4DFF8A0C23CEA111418BFCE
:101CC0003CEA131400F0EC8081EA03051CEA1114CD
:101CD00044EAD57418BF1CEA131500F0C780A4EBC2
:101CE00005044FF0004545EAC12145EAC32341EA16
:101CF000505143EA525304F17F74994204F5003481
:101D00004FEAC0204FEAC22208BF904200F09C80F8
:101D10004FEA13650FF24016765D4FEA134506FB56
:101D200005F7C7F1807706FB07F74FEAD737A7FB20
:101D300003687642C8F58038A7FB06CE38BFA8F105
:101D4000010807FB08E64FF0000EA6FB028CE6FB3D
:101D500003CEDCF1000CCEF1004E38BFAEF1010E27
:101D6000A6FB0C584FF000074FF00005E6FB0E876E
:101D7000A1FB08C6A0FB07CE16EB0E0645F1000539
:101D8000E1FB076515F1E04E7EBFA4F580345FEA04
:101D900046066D4116F1800745F100054FEA172709
:101DA0004FEA066647EA0567A6F1DE46B6F1805FB0
:101DB0004FEA15251FD9384624F0010C05EBC471F4
:101DC000BCF1FE6F01EB0C1102D8F0BCBDE8008144
:101DD00024425CBF01F5801E9EEAC47F02D4F0BCA1
:101DE000BDE80081244238D4F0BCA1F1C041BDE877
:101DF000004100F016B94FEAD22242EA43524FEABC
:101E0000D323A7FB02864FEAD02040EA415007FBCC
:101E100003661EEA0E0F4FEAD12105FB026658BF8A
:101E2000A6EB0056B6EB00564FEA520E4EEAC37EC2
:101E300018EB0E0E56EB530EBDD518EB02085E41A3
:101E40007F1C55F10005B6E74FF480154FF00007F1
:101E50004FF000064FF00008ADE7F0BC4FF0000077
:101E600001F1C04101F00041BDE8008111EA0C1F01
:101E70000CEA131500D00CE013EA0C1F00F02580CB
:101E80004FF00000F0BC81EA030101F00041BDE821
:101E90000081F0BCBDE8004181EA030100F0C1B857
:101EA000F0BCBDE8004170B500F06DF8097EFC3E65
:101EB00000F007B881EA03014FF0000001F0004193
:101EC000704781EA030100F0ACB8F0BCBDE8004106
:101ED0004FF0000021497047FFFDFBF9F7F5F4F2E0
:101EE000F0EEEDEBE9E8E6E4E3E1E0DEDDDBDAD8B5
:101EF000D7D5D4D3D1D0CFCDCCCBCAC8C7C6C5C413
:101F0000C2C1C0BFBEBDBCBBBAB9B8B7B6B5B4B329
:101F1000B2B1B0AFAEADACABAAA9A8A8A7A6A5A414
:101F2000A3A3A2A1A09F9F9E9D9C9C9B9A999998D8
:101F30009797969595949393929191908F8F8E8E7B
:101F40008D8C8C8B8B8A8989888887878685858408
:101F500084838382828181800000FF070000F87FF4
:101F6000B0FA80F310FA03F10AD0C3F11D0303F5B0
:101F700080634FEA41504FEA035202EBD121704790
:101F80004FF0000070470EF1020E2EF0030E5EF8C7
:101F9000046B364205D4012A43EB030515F5001FF7
:101FA00012D8012841EB010C1CF5001F0CD80ED1F2
:101FB0004FEAD17C15F5001F0CEB4C0C0CF1020C18
:101FC00008BF4CEBD37C04E04FF0080C01E04FEA73
:101FD000D37C0CEB4C0526FA05F606F00706B6F1A5
:101FE000040C06D20EEB860CBDE870404CF0010CE0
:101FF0006047DFE80CF0090B02024FF000414FF0A0
:102000000000A1F5002170BD19461046012851EBD2
:10201000010418BFD4F5001484BF002001F0004172
:1020200070BD0808A0F500114FEA310170470000AB
:1020300010B591EA030F48BF83F000433FF598AD18
:10204000841A71EB030C07D212198CF0004C43EB8D
:102050000C03001B61EB0C01DFF8A4E14FEA115403
:10206000A4EB135C1EEA430F18BF9EEA445F00F026
:10207000B08023EA6E03524221EA0451C3EB6E039F
:1020800038BF5B1EDCF1200E25D322FA0CFE10EBCC
:102090000E0043FA0CFE41EB0E01CCF1200E03FAC8
:1020A0000EFE10EB0E0051F10001CCF1200E29D4F0
:1020B00012FA0EF201EB0451BDE8104058BF704710
:1020C000401C1CBFB2F1004F704700280CBF491CD8
:1020D00020F00100704712EB020E43EB030218BF21
:1020E0004FF0010E4EEA4202ACF1200CDCF11E0E64
:1020F00054D943FA0CFE10EB0E0051F1FF31CCF134
:102100001E0ED5D50EF1010E12FA0EFE404141EB26
:10211000010101EB445C5FEA5C5C10D910EBDE70FE
:1021200001EB045138BFBEF1004FBDE8104018BFAD
:10213000704700280CBF491C20F00100704730D2C6
:102140004FEAD42C11F5001124F400641BD0B1FA2D
:1021500081F20B3AA41AA41ED2F12003914030FA66
:1021600003F31943904001EBCC71002C01EB0451B7
:10217000BDE81040A8BF704701F1C0414FF000001A
:1021800001F000417047B0FA80F310FA03F100D17A
:1021900010BDE41A173C4805C90AE4E701EB0451F5
:1021A00010BD491001EB0451BDE810404FEA30006A
:1021B00002E04FF0000170474A0008BF0042F8D02B
:1021C000B2F5001F28BF704701F000414FF000003A
:1021D00070479EEA445F07D011EA5E0FBDE81040E9
:1021E00004BF002100207047BDE8104070B5FFF724
:1021F000CAFE00BF40DFF63E83F000411046704744
:102200000000E0FF43004FEAD30C4FEA3C0C434090
:102210001FBF40070CF1605113F0FE4F70471CF0D8
:10222000006F03D100200CF0004170470CF0004318
:1022300043EA507010B540EACC0000F00EF800BF41
:10224000000000924FEA0001FFF7EBBE4FF00041A3
:102250004FF00000A1F5002170470EF1020E2EF0A4
:10226000030E5EF8044B244204D44FEA4102B2F15B
:102270007F4F11D84FEA4003B3F17F4F0CD80ED1F6
:102280004FEAD07CB2F17F4F0CEB4C0C0CF1020CFE
:1022900008BF4CEBD17C04E04FF0080C01E04FEAA2
:1022A000D17C0CEB4C0324FA03F404F00704B4F1E2
:1022B000040C06D20EEB840CBDE810404CF0010C6F
:1022C0006047DFE80CF0070802024FF00040A0F57D
:1022D000800010BD0846420018BFD2F1807288BF4E
:1022E00000F0004010BDFF2141EAD050C00570470A
:1022F000FEF7F3B802400000000000A0000000005C
:1023000005400000000000C8000000000C40000074
:102310000000409C00000000194000000020BCBEEE
:102320000000000034400000BFC91B8E0000000404
:10233000B5400000504BCFD06607E2CF010000004F
:102340006C4100003E8251AADFEEA734010000007C
:10235000D9420000DCB5A0E23A301F97FFFFFFFF33
:10236000B4450000FD25A0C8E9A3C14FFFFFFFFF52
:10237000FF3F00000000008000000000FF3F000061
:102380000000008000000000C423000800000020BE
:102390001400000028010008D823000814000020C1
:1023A00064060000440100081C0000004300000017
:1023B000F8FFFFFF0C0000000E0000000F000000FF
:1023C0002E00000000A24A040000000000000000EF
:0823D0000102030406070809DD
:04000005080001A14D
:00000001FF
