:020000040800F2
:10000000780600208901000891010008930100088A
:100010009501000897010008990100080000000000
:100020000000000000000000000000009B0100082C
:100030009D010008000000009F010008A1010008C8
:10004000A3010008A3010008A3010008A301000800
:10005000A3010008A3010008A3010008A3010008F0
:10006000A3010008A3010008A3010008A3010008E0
:10007000A3010008A3010008A3010008A3010008D0
:10008000A3010008A3010008A3010008A3010008C0
:10009000A3010008A3010008A3010008A3010008B0
:1000A000A3010008A3010008A3010008A3010008A0
:1000B000A3010008A3010008A3010008A301000890
:1000C000A3010008A3010008A3010008A301000880
:1000D000A3010008A3010008A3010008A301000870
:1000E000A3010008A3010008A301000800F002F822
:1000F00000F03AF80AA090E8000C82448344AAF188
:100100000107DA4501D100F02FF8AFF2090EBAE885
:100110000F0013F0010F18BFFB1A43F0010318473B
:100120006807000088070000103A24BF78C878C12B
:10013000FAD8520724BF30C830C144BF04680C60ED
:10014000704700000023002400250026103A28BF35
:1001500078C1FBD8520728BF30C148BF0B60704739
:100160001FB51FBD10B510BD00F031F81146FFF7E7
:10017000F7FF00F06DFB00F04FF803B4FFF7F2FF5C
:1001800003BC00F057F800000948804709480047C1
:10019000FEE7FEE7FEE7FEE7FEE7FEE7FEE7FEE737
:1001A000FEE7FEE704480549054A064B7047000094
:1001B000C9040008ED00000878000020780600203F
:1001C000780200207802002070477047704775461B
:1001D00000F02CF8AE4605006946534620F00700B3
:1001E000854618B020B5FFF7DDFFBDE820404FF091
:1001F00000064FF000074FF000084FF0000B21F011
:100200000701AC46ACE8C009ACE8C009ACE8C009DD
:10021000ACE8C0098D46704710B50446AFF30080C6
:100220002046BDE81040FFF7A8BF00000048704717
:100230001400002001491820ABBEFEE72600020092
:10024000704710B5044621464E2000F041F810BD1D
:10025000094800684FF47A71B0FBF1F04FF0E021EB
:1002600048610020886100BF4FF0E020006900F481
:1002700080300028F8D070470000002000B502460A
:1002800002E0FFF7E5FF521E002AFAD100BD00B5DB
:10029000024602E000F004F8521E002AFAD100BD26
:1002A000094800680949B0FBF1F04FF0E0214861CE
:1002B0000020886100BF4FF0E020006900F480302A
:1002C0000028F8D0704700000000002040420F00D6
:1002D00008B5024642EA0100114B188000BF1048E1
:1002E000001D008800F002000028F8D00EE00C4845
:1002F000001D008800900A480830008800900848D7
:10030000001D008800F0020000B906E00448001D4E
:10031000008800F002000028E9D100BF012008BDDC
:1003200010540040014600BF0848008800F08000DB
:100330000028F9D00548001F018000BF034800884D
:1003400000F080000028F9D00120704714540040CC
:1003500070B5044600251248806940F0010010493C
:1003600088610846C06940F40010C86103231A463A
:100370000621022000F0E6F803231A460721022096
:1003800000F0E0F80820074908800648183004808B
:10039000081F008840F00100091F0880012070BD7F
:1003A00000100240045400400748008840F4807068
:1003B0000549088000BF04481430008800F001009F
:1003C0000028F8D0012070470054004003480088FE
:1003D00040F400700149088001207047005400403B
:1003E00010B500F001F810BD0CB500200190009090
:1003F0003348006840F480303149086000BF30481D
:10040000006800F4003000900198401C01900098B2
:1004100018B90198B0F5A06FF1D12948006800F42F
:10042000003010B10120009001E000200090009801
:10043000012843D12348006840F01000214908609A
:100440000846006820F0070008600846006840F091
:10045000020008601A484068194948600846406828
:1004600048600846406840F480604860084640683C
:1004700020F47C1048600846406840F4E81048606A
:100480000846006840F08070086000BF0C480068B3
:1004900000F000700028F9D00948406820F00300FF
:1004A000074948600846406840F00200486000BFC5
:1004B0000348406800F00C000828F9D10CBD00008A
:1004C000001002400020024010B51348006840F0C0
:1004D00001001149086008464068104908400E496B
:1004E0004860084600680E4908400B490860084605
:1004F000006820F4802008600846406820F4FE0070
:1005000048604FF41F008860FFF76AFF4FF00060FB
:100510000449086010BD0000001002400000FFF810
:10052000FFFFF6FE08ED00E010B50446FFF73CFFC4
:100530000020FFF786FE2046FFF7F4FEFFF746FF98
:1005400010BD000070B5012831D10424324DAC61DA
:10055000072912DC314C24688D0003FA05F52C4381
:100560002E4D2C602C462468022505EB810502FAED
:1005700005F52C43294D2C604CE0284C241D2468A3
:10058000A1F10805AD0003FA05F52C43234D2D1DFF
:100590002C602C462568A1F10804022606EB840491
:1005A00002FA04F425431D4C241D256032E0022884
:1005B00030D10824184DAC61072912DC184C24688E
:1005C0008D0003FA05F52C43154D2C602C4624684C
:1005D000022505EB810502FA05F52C43104D2C6030
:1005E00018E00F4C241D2468A1F10805AD0003FAA2
:1005F00005F52C430A4D2D1D2C602C462568A1F1D4
:100600000804022606EB840402FA04F42543044C91
:10061000241D256070BD000000100240000801404C
:10062000000C014010B504460820FFF77DFF0A20AA
:10063000FFF72DFE0C20FFF777FF0520FFF727FEC1
:1006400004F0F00141F00C00FFF76EFF0A20FFF705
:100650001EFE04F0F00141F00800FFF765FF1420D2
:10066000FFF715FE0C20FFF75FFF0520FFF70FFED9
:10067000F02101EA041141F00C00FFF755FF0A20B8
:10068000FFF705FEF02101EA041141F00800FFF731
:100690004BFF10BD10B504460920FFF745FF0A20A7
:1006A000FFF7F5FD0D20FFF73FFF0520FFF7EFFDFA
:1006B00004F0F00141F00D00FFF736FF0A20FFF7CC
:1006C000E6FD04F0F00141F00900FFF72DFF1420D2
:1006D000FFF7DDFD0D20FFF727FF0520FFF7D7FD12
:1006E000F02101EA041141F00D00FFF71DFF0A207F
:1006F000FFF7CDFDF02101EA041141F00900FFF7F9
:1007000013FF10BD10B52D20FFF722FE1420FFF7B8
:10071000B5FD0820FFF708FF0A20FFF7B8FD0C2001
:10072000FFF702FF0520FFF7B2FD3C20FFF7FCFEBC
:100730000A20FFF7ACFD3820FFF7F6FE0A20FFF78E
:100740009DFD0820FFF7F0FE0A20FFF7A0FD0C201A
:10075000FFF7EAFE0520FFF79AFD3C20FFF7E4FED5
:100760000A20FFF794FD3820FFF7DEFE0120FFF797
:1007700085FD0820FFF7D8FE0A20FFF788FD0C2032
:10078000FFF7D2FE0520FFF782FD3C20FFF7CCFEED
:100790000A20FFF77CFD3820FFF7C6FE0120FFF797
:1007A0006DFD0820FFF7C0FE0A20FFF770FD0C204A
:1007B000FFF7BAFE0520FFF76AFD2C20FFF7B4FE15
:1007C0000A20FFF764FD2820FFF7AEFE2C20FFF77C
:1007D00029FF0520FFF752FD0C20FFF723FF05201E
:1007E000FFF74CFD0120FFF71DFF0520FFF746FD39
:1007F0000220FFF717FF0520FFF740FD10BD2DE990
:10080000F04104460D4616460027012C00D102E0B7
:10081000022C00D1402707F180012944C8B2FFF71C
:1008200001FF6420FFF733FD304600F002F8BDE819
:10083000F08170B50446002506E0605DFFF72AFFF1
:100840006D1C6420FFF723FD605D0028F5D170BDAD
:1008500000F00EF8FFF756FF03A200210120FFF77A
:10086000CEFF00BFFEE70000414243787A780000E7
:1008700000204FF0E02108616FF07F4048610020C8
:100880008861052008617047A80800080000002062
:100890001400000028010008BC0800081400002013
:1008A000640600004401000800A24A0400000000A1
:0C08B00000000000010203040607080914
:040000050800018965
:00000001FF
