:020000040800F2
:10000000F806002091010008990100089B010008F2
:100010009D0100089F010008A101000800000000E8
:10002000000000000000000000000000A301000824
:10003000A501000800000000A7010008A9010008B0
:10004000AB010008AB010008AB010008AB010008E0
:10005000AB010008AB010008AB010008AB010008D0
:10006000AB010008AB010008AB010008AB010008C0
:10007000AB010008AB010008AB010008AB010008B0
:10008000AB010008AB010008AB010008AB010008A0
:10009000AB010008AB010008AB010008AB01000890
:1000A000AB01000885080008AB010008AB0100089F
:1000B000AB010008AB010008AB010008AB01000870
:1000C000AB010008AB010008AB010008AB01000860
:1000D000AB010008AB010008AB010008AB01000850
:1000E000AB010008AB010008AB01000800F002F80A
:1000F00000F03FF80AA090E8000C82448344AAF183
:100100000107DA4501D100F034F8AFF2090EBAE880
:100110000F0013F0010F18BFFB1A43F0010318473B
:1001200088280000A8280000103A24BF78C878C1A9
:10013000FAD8520724BF30C830C144BF04680C60ED
:10014000704700000023002400250026103A28BF35
:1001500078C1FBD8520728BF30C148BF0B60704739
:10016000642900F08380002070471FB51FBD10B5C3
:1001700010BD00F038F91146FFF7F7FF01F03AF82B
:1001800000F056F903B4FFF7F2FF03BC00F05EF98C
:100190000948804709480047FEE7FEE7FEE7FEE71B
:1001A000FEE7FEE7FEE7FEE7FEE7FEE70448054957
:1001B000054A064B7047000025080008ED000008BE
:1001C000F8000020F8060020F8020020F8020020C5
:1001D0000FB41CB50C0007AA009001D02044401EAB
:1001E000074B7B4469460190069800F0DCF8002C30
:1001F00003D06946002000F0E9F81CBC5DF814FB50
:10020000F10100002DE9F0410E4604460020206275
:100210002046E168884730B3252805D0D4E901217C
:100220009047206A401CF2E7E16820460027884793
:10023000050018D0A5F14100192802D820354FF447
:1002400000673246294620462760FFF789FF40B104
:10025000012804D0F61D26F007060836D8E7361D1B
:10026000D6E72846DAE7206ABDE8F0812DE9F041BB
:100270000646002410687529314616A510D0AFF344
:100280000080002802DA404213A507E031688A079F
:1002900001D512A502E0490704D511A5012401E00A
:1002A000AFF3008000210A2206F1240709E0B0FB29
:1002B000F2FCB0FBF2F302FB1C003030785418461D
:1002C000491C0028F3D123462A463046BDE8F041B8
:1002D00000F00BB8000000002D0000002B00000013
:1002E000200000007047704770472DE9F0470D4629
:1002F00099469246044600F124080168880604D510
:10030000E06921F01001216000E00120A84201DD38
:10031000471B00E00027A1697A1902EB0900081ABF
:10032000A0612078C00602D42046AFF300800026EA
:1003300008E0D4E901211AF806009047206A401C21
:10034000761C20624E45F4DB2078C0060AD5204694
:10035000AFF3008006E0D4E9012130209047206A05
:10036000401C2062381EA7F10107F4DC07E0D4E945
:10037000012118F805009047206A401C2062281EC1
:10038000A5F10105F3DC2046AFF3008020780006DC
:1003900002D50220BDE8F0870120FBE701694A1C75
:1003A00002610878704700B58FB0CDE901310021B6
:1003B000059105497944CDE9031011466846FFF7D8
:1003C00021FF0FB000BD0000E5FFFFFF0A6802F843
:1003D000010B0A607047D1E900239A4202D2531CF4
:1003E0000B6010707047754600F02CF8AE460500A3
:1003F0006946534620F00700854618B020B5FFF740
:10040000D5FEBDE820404FF000064FF000074FF04A
:1004100000084FF0000B21F00701AC46ACE8C00922
:10042000ACE8C009ACE8C009ACE8C0098D4670472B
:1004300010B50446AFF300802046BDE81040FFF73A
:10044000A1BE000000487047980000200149182014
:10045000ABBEFEE7260002007047000010B5002486
:100460001548006820F00F0013490860084600682E
:1004700040F00800086004E0601CC4B2012000F0F5
:10048000AFFA0E48006808B1642CF5DB642C01DB80
:10049000012010BD002404E0601CC4B2012000F063
:1004A0009FFA0648006808B9642CF5DB642C01DB70
:1004B0000120EEE70020ECE70008014000012142A6
:1004C00008B50121042000F029F90120ADF8000051
:1004D00010208DF8030003208DF8020069460548BE
:1004E00000F090F801200449086000F06BF8FFF775
:1004F000B5FF08BD000801408001214210B500246D
:1005000004E0601CC4B2012000F06AFA0D480068E3
:1005100008B1642CF5DB002404E0601CC4B20120A7
:1005200000F05EFA0748006808B9642CF5DB282063
:1005300000F056FA0348006808B1012010BD002001
:10054000FCE700000001214270B50025002400BF37
:1005500006E06006040EFFF7D1FF0443681CC5B235
:10056000082DF6DB204670BD7CB505460E460024FE
:1005700000F028F8FFF772FFF8B900BF05E0FFF7B9
:10058000E3FF0DF80400601CC4B2052CF7DB9DF8F6
:1005900000009DF8011008449DF8021008449DF8E1
:1005A000031008449DF80410884208D19DF800000B
:1005B00030709DF80200287001E001207CBD002011
:1005C000FCE7000010B50C48006820F00F000A4955
:1005D00008600846006840F00300086000200749F2
:1005E0000860142000F0EFF901200549C1F88001EE
:1005F0001E2000F0F5F910BD0008014080012142E5
:10060000000021422DE9F04102460025002600208D
:1006100000230024002791F803C00CF00F0591F887
:1006200003C00CF0100CBCF1000F03D091F802C015
:100630004CEA050591F800C0BCF1000F31D01468F8
:1006400000202BE04FF0010C0CFA00F3B1F800C0D1
:100650000CEA03069E4220D183004FF00F0C0CFAE7
:1006600003F7BC4305FA03FC4CEA040491F803C009
:10067000BCF1280F06D14FF0010C0CFA00FCC2F8B7
:1006800014C00AE091F803C0BCF1480F05D14FF047
:10069000010C0CFA00FCC2F810C0401C0828D1D391
:1006A0001460B1F800C0BCF1FF0F34DD54680020C5
:1006B0002EE000F1080C4FF0010808FA0CF3B1F835
:1006C00000C00CEA03069E4221D183004FF00F0CBC
:1006D0000CFA03F7BC4305FA03FC4CEA040491F856
:1006E00003C0BCF1280F05D100F1080C08FA0CF882
:1006F000C2F8148091F803C0BCF1480F07D100F193
:10070000080C4FF0010808FA0CF8C2F81080401CE1
:100710000828CED35460BDE8F081000029B1064A14
:1007200092690243044B9A6104E0034A926982434E
:10073000014B9A61704700000010024010B500F0B4
:1007400001F810BD0CB500200190009033480068FE
:1007500040F480303149086000BF3048006800F440
:10076000003000900198401C0190009818B9019841
:10077000B0F5A06FF1D12948006800F4003010B145
:100780000120009001E0002000900098012843D152
:100790002348006840F010002149086008460068BE
:1007A00020F0070008600846006840F0020008607A
:1007B0001A48406819494860084640684860084639
:1007C000406840F4806048600846406820F47C102F
:1007D00048600846406840F4E810486008460068F1
:1007E00040F08070086000BF0C48006800F00070A6
:1007F0000028F9D00948406820F003000749486004
:100800000846406840F00200486000BF0348406866
:1008100000F00C000828F9D10CBD000000100240C7
:100820000020024010B51348006840F00100114953
:10083000086008464068104908400E49486008466C
:1008400000680E4908400B4908600846006820F41B
:10085000802008600846406820F4FE0048604FF49D
:100860001F008860FFF76AFF4FF0006004490860CE
:1008700010BD0000001002400000FFF8FFFFF6FE70
:1008800008ED00E00848008800F0010050B106487B
:10089000008820F001000449088004480068401CDA
:1008A0000249086070470000102C01401800002029
:1008B0002DE9F04107460D4614464FF00008012D82
:1008C00009D1082C02DA8846E6B210E0082C0EDBCB
:1008D0004046BDE8F081022D09D1022C05DA4FF027
:1008E000010804F10800C6B201E04046F1E7A1B2F8
:1008F000A8B200231A4600F0BBF8012F1FD12148EF
:10090000806940F400701F49886100201E4908601A
:100910001D482C3006600846006840F00100086061
:10092000642000F050F81848006840F001001649B3
:1009300008600846006840F00200086020E0022FCE
:100940001ED11048806940F480600E498861002003
:100950000E4908600D482C3006600846006840F0DB
:1009600001000860642000F02EF80848006840F09C
:100970000100064908600846006840F0020008606F
:100980004046A6E700100240082401400828014024
:1009900010B503460020012B02D1044C206803E06F
:1009A000022B01D1024C206810BD00004C240140F4
:1009B0004C28014070B505460C4622464E2128467B
:1009C00000F066F970BD10B50346002404E04FF452
:1009D0007A7000F005F8641C9C42F8D310BD00004A
:1009E0000021044A118000BF024909888142FBD3DB
:1009F00070470000240800402DE9F04104460D46F0
:100A00000020E06165616169606801F08BFE074666
:100A1000216A206801F086FE8046394601F02AFDF1
:100A20000646E16901F026FDE061A169A06801F0D8
:100A300079FE0646E16901F01DFDE061012012E04A
:100A4000411E04F11C0252F8212004F11C0141F85E
:100A50002020411E04F1140252F8212004F1140157
:100A600041F82020401E0028EADCE069BDE8F08162
:100A700070B5012847D16C4CA46944F004046A4D58
:100A8000AC6108291ADA694C24688E000F25B5403C
:100A9000AC43664D2C602C4624688D0003FA05F5A6
:100AA0002C43624D2C602C462468022505EB810501
:100AB00002FA05F52C435D4D2C60B3E05B4C241D20
:100AC0002468A1F10805AE000F25B540AC43574D91
:100AD0002D1D2C602C462468A1F10805AD0003FAF9
:100AE00005F52C43514D2D1D2C602C462568A1F198
:100AF0000804022606EB840402FA04F425434B4C56
:100B0000241D25608EE0022847D1474CA46944F09B
:100B10000804454DAC6108291ADA454C24688E005A
:100B20000F25B540AC43424D2C602C4624688D0007
:100B300003FA05F52C433E4D2C602C462468022513
:100B400005EB810502FA05F52C43394D2C6069E06F
:100B5000374C241D2468A1F10805AE000F25B540CF
:100B6000AC43334D2D1D2C602C462468A1F10805A3
:100B7000AD0003FA05F52C432D4D2D1D2C602C46A0
:100B80002568A1F10804022606EB840402FA04F4A5
:100B90002543274C241D256044E0032842D1224CE4
:100BA000A46944F01004204DAC6108291ADA214CE4
:100BB00024680E010F25B540AC431E4D2C602C4619
:100BC00024688D0003FA05F52C431A4D2C602C4641
:100BD0002468022505EB810502FA05F52C43154D25
:100BE0002C601FE0134C6468A1F10805AE000F25CE
:100BF000B540AC430F4D6C602C466468A1F108050C
:100C0000AD0003FA05F52C430A4D6C602C4665686F
:100C1000A1F10804022606EB840402FA04F4254339
:100C2000044C656070BD00000010024000080140E7
:100C3000000C01400010014002460B46012000FA62
:100C400003F1012A04D0022A0AD0032A18D10FE0A6
:100C50000C480068084008B1012070470020FCE7FC
:100C600009480068084008B10120F6E70020F4E7D1
:100C700006488068084008B10120EEE70020ECE754
:100C80000020EAE708080140080C0140001001407C
:100C900018B503461BBB41EA0200254C208000BF6B
:100CA0002348001D008800F002000028F8D00EE064
:100CB0001F48001D008800901D48083000880090E3
:100CC0001B48001D008800F0020000B906E018482B
:100CD000001D008800F002000028E9D125E0012B6A
:100CE00023D141EA0200134C208000BF1148001DAF
:100CF000008800F002000028F8D00EE00D48001D2A
:100D0000008800900B480830008800900948001DBA
:100D1000008800F0020000B906E00648001D0088C7
:100D200000F002000028E9D100BF012018BD00003A
:100D3000105400401058004002468AB900BF1348C2
:100D4000008800F080000028F9D01048001F0180C2
:100D500000BF0E48008800F080000028F9D012E0A3
:100D6000012A10D100BF0A48008800F08000002846
:100D7000F9D00748001F018000BF0548008800F037
:100D800080000028F9D00120704700001454004072
:100D90001458004070B505460C462348806940F061
:100DA000010021498861EDB90846C06940F400108E
:100DB000C86103231A4606210220FFF759FE0323C8
:100DC0001A4607210220FFF753FE08201749088022
:100DD000164818300480081F008840F00100091FE1
:100DE00008801FE0012D1DD10F48C06940F480002C
:100DF0000D49C86103231A460A210220FFF738FE75
:100E000003231A460B210220FFF732FE082008496F
:100E10000880074818300480081F008840F001004F
:100E2000091F0880012070BD0010024004540040DA
:100E300004580040014671B91048008840F48070A1
:100E40000E4A108000BF0D481430008800F00100E9
:100E50000028F8D00FE001290DD10948008840F49E
:100E60008070074A108000BF05481430008800F0E9
:100E700001000028F8D00120704700000054004015
:100E800000580040014631B90848008840F400701D
:100E9000064A108007E0012905D10548008840F482
:100EA0000070034A10800120704700000054004089
:100EB0000058004002480068C0F3C00070470000BE
:100EC0000808014002480068C0F3001070470000A5
:100ED0000808014010B50C48806940F004000A4938
:100EE00088610023022203210120FFF7C1FD0023B6
:100EF000022204210120FFF7BBFD0448006840F0F6
:100F000018000249086010BD001002400C080140A2
:100F100070B505460C460821284600F00FFE0A2051
:100F2000FFF75EFD0C21284600F008FE0520FFF7C4
:100F300057FD04F0F00040F00C01284600F0FEFDE3
:100F40000A20FFF74DFD04F0F00040F008012846AC
:100F500000F0F4FD1420FFF743FD0C21284600F0BB
:100F6000EDFD0520FFF73CFDF02000EA041040F005
:100F70000C01284600F0E2FD0A20FFF731FDF020C9
:100F800000EA041040F00801284600F0D7FD70BDCB
:100F900070B505460C460921284600F0CFFD0A2011
:100FA000FFF71EFD0D21284600F0C8FD0520FFF7C4
:100FB00017FD04F0F00040F00D01284600F0BEFDE2
:100FC0000A20FFF70DFD04F0F00040F0090128466B
:100FD00000F0B4FD1420FFF703FD0D21284600F0BA
:100FE000ADFD0520FFF7FCFCF02000EA041040F006
:100FF0000D01284600F0A2FD0A20FFF7F1FCF020C9
:1010000000EA041040F00901284600F097FD70BD89
:1010100010B504462D212046FFF7BCFE1420FFF733
:10102000D2FC0821204600F089FD0A20FFF7D8FCF9
:101030000C21204600F082FD0520FFF7D1FC3C2169
:10104000204600F07BFD0A20FFF7CAFC382120462D
:1010500000F074FD0120FFF7B6FC0821204600F0E7
:101060006DFD0A20FFF7BCFC0C21204600F066FD58
:101070000520FFF7B5FC3C21204600F05FFD0A206B
:10108000FFF7AEFC3821204600F058FD0120FFF7A5
:101090009AFC0821204600F051FD0A20FFF7A0FC31
:1010A0000C21204600F04AFD0520FFF799FC3C2169
:1010B000204600F043FD0A20FFF792FC382120462D
:1010C00000F03CFD0120FFF77EFC0821204600F0E7
:1010D00035FD0A20FFF784FC0C21204600F02EFD90
:1010E0000520FFF77DFC2C21204600F027FD0A207B
:1010F000FFF776FC2821204600F020FD2C21204619
:10110000FFF706FF0520FFF75EFC0C212046FFF7E6
:10111000FFFE0520FFF757FC01212046FFF7F8FEF0
:101120000520FFF750FC02212046FFF7F1FE0520C5
:10113000FFF749FC10BD2DE9F04107460C46154666
:101140001E464FF00008012C00D103E0022C01D113
:101150004FF0400808F180002844C1B23846FFF73C
:10116000D7FE6420FFF73CFC3146384600F002F819
:10117000BDE8F08170B506460C46002507E0615DCC
:101180003046FFF705FF6D1C6420FFF729FC605D0A
:101190000028F4D170BD00002DE9F04704468946CF
:1011A0009246484601F03AF90746104A104B00F0C3
:1011B0004DFF054600F0D4FCE06051464FF07E50F4
:1011C00001F0BAF92061002008E0002204F11401C6
:1011D00041F82020083141F82020401C0228F4DB8F
:1011E000204600F086FBBDE8F0870000182D44542F
:1011F000FB2119408EB000F03FFC0221084600F0B0
:1012000025F944F61F620221084600F0CFFB00F0EA
:10121000E7FA0020FFF7FCFE78A300220121104628
:10122000FFF789FF7948037879A203217948FEF70F
:10123000CFFF784B0E2201210020FFF77CFF4FF0FB
:101240008042754905A8FFF7A7FF02220121084641
:10125000FFF72EFB00F004FBFFF73CFE0023022209
:1012600008211046FFF704FC002302220921104642
:10127000FFF7FEFBFFF724F9002000F02BFB6420B2
:10128000FFF7A1FB002004900390B5E063480068DD
:1012900063490968401A7CD0022201210846FFF701
:1012A00077FB604908600846006801F023FA0546AC
:1012B000294605A8FFF7A0FB044601F0FFF95949AC
:1012C00008600846006800F0AAFE80460022564BDF
:1012D00000F020FD06460022544B00F0B7FE044605
:1012E0000022534B00F0B0FF824600F06BFE80B24C
:1012F000024602210290084600F058FB03A904A808
:10130000FFF732F9454800684549086043480068DE
:101310009DF80C10CDE900109DF8103045A2322147
:101320004748FEF755FF464B002202211046FFF7C3
:1013300002FF384B0E2201210020FFF7FCFEFFF7D1
:10134000B9FD60B93F48007848B95A2000F0C2FAA8
:101350006420FFF738FB01203B49087018E0FFF7D5
:10136000A9FDA8B937480078012811D1274800788D
:10137000401E264908700846037825A20321254807
:10138000FEF726FF012000F041FA00202D490870E9
:1013900000E028E0FFF796FDB0B92B48007801285F
:1013A00012D11A480078401C184908700846037882
:1013B00017A203211748FEF70BFF012000F03EFAA9
:1013C0000020214908700EE0FFF77CFD58B91E4847
:1013D000007840B901201B4908705A2000F07AFAC1
:1013E0006420FFF7F0FA09210220FFF725FC18B16D
:1013F00008210220FFF720FC48E700004E756D2011
:101400004F662050656F706C653A20000500002023
:101410002564000008000020CDCCCC3D1800002041
:1014200014000020000000200000B0400088D340DD
:101430000000F03F256420256420256400000000A2
:101440003400002007000020060000202DE9F041B4
:1014500007460D460026002427B1012F7BD0022F1E
:101460007AD119E1D948806940F605010843D74986
:10147000886135B1012D0DD0022D14D0032D24D15A
:101480001AE0012601240323022208210120FFF78C
:10149000EFFA1AE002240323022209210120FFF7B8
:1014A000E7FA012611E00324032302220A21012086
:1014B000FFF7DEFA012608E00424012603230222B6
:1014C0000B210120FFF7D4FA00BF00BF012E5CD131
:1014D000BF480068BF49B0FBF1F0401EBE4908801C
:1014E00044F61F60091D0880012C10D1BA48083845
:1014F000008840F00100B84908390880B648103823
:10150000008840F06000B4491039088035E0022CB2
:1015100010D1B1480838008840F01000AE490839B1
:101520000880AD481038008840F4C040AA491039FE
:10153000088022E0032C10D1A7480838008840F426
:101540008070A54908390880081F008840F06000B5
:10155000091F088011E019E033E1042C0DD19E48E9
:101560000838008840F480509B4908390880081FDB
:10157000008840F4C040091F088097482838008838
:1015800040F001009449283908801AE18F488069A9
:1015900040F005008D4988610846C06940F00100AF
:1015A000C86135B1012D0DD0022D14D0032D24D1E9
:1015B0001AE0012401260323022200210120FFF763
:1015C00057FA1AE002240323022201210846FFF7FA
:1015D0004FFA012611E003240323022211460120C1
:1015E000FFF746FA012608E004240126032302221D
:1015F00019460120FFF73CFA00BF00BF012E4AD177
:10160000734800687349B0FBF1F0401E0906088575
:1016100044F61F608885012C0AD10846008C40F0F2
:10162000010008840846008B40F0600008832AE02F
:10163000022C0BD16007008C40F010006107088479
:101640000846008B40F4C04008831CE0032C0DD1F9
:101650004FF08040008C40F480704FF0804108844F
:101660000846808B40F0600088830CE0042C0AD18F
:101670002007008C40F48050210708840846808BA6
:1016800040F4C04088834FF08040008840F0010063
:101690004FF08041088094E04C48806940F00D0094
:1016A0004A4988610846C06940F00200C86135B106
:1016B000012D0DD0022D14D0032D24D11AE00126C6
:1016C00001240323022206210120FFF7D1F91AE0A9
:1016D0000323022207210120FFF7CAF90126022471
:1016E00011E00323022200211046FFF7C1F9012671
:1016F000032408E0012604240323022201211046CA
:10170000FFF7B6F900BF00BF012E5AD1304800687C
:101710003049B0FBF1F0401E3049088044F61F60AC
:10172000091D0880012C10D12C480838008840F091
:1017300001002A490839088028481038008840F0FC
:10174000600026491039088033E0022C10D123486C
:101750000838008840F010002049083908801F48E8
:101760001038008840F4C0401C491039088020E03F
:10177000032C0ED119480838008840F480701749AE
:1017800008390880081F008840F06000091F0880A1
:101790000FE0042C0DD111480838008840F4805027
:1017A0000E4908390880081F008840F4C040091F0E
:1017B00008800A482838008840F001000749283985
:1017C000088000BF3046BDE8F081000000100240F4
:1017D0002000002040420F00282C01402804004037
:1017E00010B50948806940F0040007498861012369
:1017F000002205211846FFF73BF9012300220621AC
:101800001846FFF735F910BD00100240012802D03C
:1018100002280ED106E00849096841F02001064A75
:10182000116007E00449096841F04001024A116073
:1018300000E000BF00BF704714080140012802D03B
:10184000022808D103E02021044A116004E040216D
:10185000024A116000E000BF00BF7047100801405D
:101860001848806940F00400164988610846C0693C
:1018700040F00100C8611448006820F0F0001249EF
:1018800008600846006840F0A00008600F48006843
:101890000F49B0FBF1F0401E0906088544F61F60B1
:1018A00088850846008B40F4C04008830846008CB9
:1018B00040F0100008840846008840F001000880CD
:1018C0007047000000100240000801402000002086
:1018D00040420F00B42800DDB4204FF4FA624243C6
:1018E000B42392FBF3F202F5FA7291B21A07118750
:1018F00070472DE9FC5F8246DAE9030100F012FF30
:101900008346584600F08AFD064600224FF0804389
:1019100000F058F980468946584600F07FFD06469B
:1019200000224FF0804300F08FFC81F000414246DE
:101930004B46CDE9000100F0EDF9044600F010F946
:10194000CAF80000584600F069FD00224FF08043BD
:10195000CDE9000100F036F906460F46584600F082
:101960005DFD804632463B4600F0D4F9044600F067
:10197000F7F8CAF80400584600F050FD00224FF076
:101980008043CDE9000100F01DF906460F46584698
:1019900000F044FD804632463B4600F0BBF9044669
:1019A00000F0DEF8CAF80800BDE8FC9F10B5034659
:1019B000002023B1012B1FD0022B54D136E031B1CE
:1019C000012908D002290BD0032913D10DE00120F1
:1019D000264C22800EE00120244C241D228009E0A8
:1019E0000120224C0834228004E001201F4C0C34DA
:1019F000228000BF00BF36E031B1012908D00229A2
:101A00000AD0032910D10BE001208407A2860BE045
:101A100001208407228707E001208407A28703E0D2
:101A20000120134C228000BF00BF1CE031B101290E
:101A300008D002290BD0032913D10DE001200D4C51
:101A400022800EE001200B4C241D228009E00120A1
:101A5000084C0834228004E00120064C0C3422801B
:101A600000BF00BF00BF00BF10BD0000342C01400C
:101A700040000040340400402B48C06940F004009E
:101A80002949C8610846806940F400608861274898
:101A900000682749B0FBF1F0401E264908804FF648
:101AA000FF70091D088023482838008840F0010095
:101AB00020492839088000BF1E481838008800F0E7
:101AC00001000028F8D0194800684FF4FA61B0FB13
:101AD000F1F0401E1849088040F2F310091D0880FB
:101AE00015481C38008840F0010013491C39088053
:101AF00011482838008840F001000F492839088033
:101B0000192000280DDB00BF00BF00F01F020121DB
:101B100091404209920002F1E022C2F8001100BF98
:101B200000BF00BF704700000010024020000020EE
:101B300040420F0028080040282C014070B50446A0
:101B40000D462046FFF776F900212046FEF732FFCA
:101B500029462046FFF7F0F82046FFF793F970BDBD
:101B600021F00042A2F16052B2F5801F01F0004363
:101B700028BFD2F17F6C0BD95FEA001C43EAC20296
:101B800042EB507018BF704728BF20F0010070472B
:101B9000B2F5801FBCBF184670474FEA410C1CF5D8
:101BA000001F02D2084600F084BE70B500F0F8FABB
:101BB00000000089FFF7F6BF4FF00040A0F580005D
:101BC0007047000010B591EA030F48BF83F000434F
:101BD00000F14283841A71EB030C05D2121943EB16
:101BE0000C03001B61EB0C01DFF824E14FEA1154F8
:101BF000A4EB135C1EEA430F18BF9EEA445F73D048
:101C000023EA0E03DCF1200E21EA045143F4801391
:101C100032D322FA0CFE10EB0E0023FA0CFE41EB3D
:101C20000E01CCF1200E03FA0EFE10EB0E0051F166
:101C30000001B1F5801FCCF1200E32D201EB04512E
:101C400012FA0EF2BDE8104058BF7047401C38BF72
:101C50005FEA420218BF7047002814BF20F001005D
:101C600041F100014FEA410313F5001F38BF7047EF
:101C7000A1F1C04100F0E2BA012A43EB0302ACF14A
:101C8000200CDCF11F0E32BF4FF0000E23FA0CF3D4
:101C900010EB030041EB0451B4EB115FD0D0A1EB8A
:101CA000045101F5801149085FEA300001EB04514D
:101CB0000ED350F1000038BF12FA0EFE08D1BDE875
:101CC0001040C9E7401C38BF5FEA4202CAD1C3E7EF
:101CD000BDE810404FEA410313F5001F38BF7047BD
:101CE000A1F1C04100F0AABA9EEA445F08D011EA0F
:101CF0005E0FBDE8104004BF01F0004100207047B6
:101D0000BDE8104070B500F04BFA00BF64FBBE3E6A
:101D10000000E0FF2DE9C04130B4DFF8A0C23CEA8A
:101D2000111418BF3CEA131400F0EC8081EA03059B
:101D30001CEA111444EAD57418BF1CEA131500F00C
:101D4000C780A4EB05044FF0004545EAC12145EAF0
:101D5000C32341EA505143EA525304F17F7499423C
:101D600004F500344FEAC0204FEAC22208BF904277
:101D700000F09C804FEA13650FF24016765D4FEA43
:101D8000134506FB05F7C7F1807706FB07F74FEA17
:101D9000D737A7FB03687642C8F58038A7FB06CE85
:101DA00038BFA8F1010807FB08E64FF0000EA6FBBC
:101DB000028CE6FB03CEDCF1000CCEF1004E38BF06
:101DC000AEF1010EA6FB0C584FF000074FF00005D6
:101DD000E6FB0E87A1FB08C6A0FB07CE16EB0E069E
:101DE00045F10005E1FB076515F1E04E7EBFA4F566
:101DF00080345FEA46066D4116F1800745F1000523
:101E00004FEA17274FEA066647EA0567A6F1DE465E
:101E1000B6F1805F4FEA15251FD9384624F0010C32
:101E200005EBC471BCF1FE6F01EB0C1102D8F0BCE4
:101E3000BDE8008124425CBF01F5801E9EEAC47F9C
:101E400002D4F0BCBDE80081244238D4F0BCA1F13A
:101E5000C041BDE8004100F0F1B94FEAD22242EAA8
:101E600043524FEAD323A7FB02864FEAD02040EA31
:101E7000415007FB03661EEA0E0F4FEAD12105FB16
:101E8000026658BFA6EB0056B6EB00564FEA520E5C
:101E90004EEAC37E18EB0E0E56EB530EBDD518EB73
:101EA00002085E417F1C55F10005B6E74FF480152E
:101EB0004FF000074FF000064FF00008ADE7F0BC10
:101EC0004FF0000001F1C04101F00041BDE8008188
:101ED00011EA0C1F0CEA131500D00CE013EA0C1FDA
:101EE00000F025804FF00000F0BC81EA030101F012
:101EF0000041BDE80081F0BCBDE8004181EA03017A
:101F000000F09CB9F0BCBDE8004170B500F048F9A4
:101F1000097EFC3E00F007B881EA03014FF00000A3
:101F200001F00041704781EA030100F087B9F0BC7D
:101F3000BDE800414FF0000021497047FFFDFBF96B
:101F4000F7F5F4F2F0EEEDEBE9E8E6E4E3E1E0DEEC
:101F5000DDDBDAD8D7D5D4D3D1D0CFCDCCCBCAC85E
:101F6000C7C6C5C4C2C1C0BFBEBDBCBBBAB9B8B785
:101F7000B6B5B4B3B2B1B0AFAEADACABAAA9A8A878
:101F8000A7A6A5A4A3A3A2A1A09F9F9E9D9C9C9B46
:101F90009A999998979796959594939392919190F1
:101FA0008F8F8E8E8D8C8C8B8B8A89898888878782
:101FB0008685858484838382828181800000FF07F7
:101FC0000000F87F4FEA1153A3F58063D3F11E039D
:101FD000A8BFD3F1200C08DB4FF0004242EAC12237
:101FE00052EA505232FA03F0704709420BD4102BD8
:101FF000C4BF0020704703F5787CBCF1FF3F05D0DB
:102000004FF0FF3070474FF00000704770B500F0A0
:10201000C7F800BF4992248000207047F0E710F015
:10202000004248BF4042B0FA80F310FA03F10AD0F0
:10203000C3F11D0303F580634FEA415002EB0352E5
:1020400002EBD12170474FF000007047DFF848C124
:1020500070B51CEA111E1EBF1CEA13159EEA0C0F78
:1020600095EA0C0F00F06F8081EA030423EA4C1319
:102070004EEAD47E21EA4C1141F4801143F48013DE
:10208000AE44A1FB024CA0FB0365AEF17F7E361986
:1020900055EB0C05A1FB034C4CF10003A0FB021C0B
:1020A00016EB0C06654153F10003094218BF46F0D8
:1020B000010613F4007F0BD14FEA03314FEA0530DC
:1020C000340341EA155140EA16506FF003020AE06A
:1020D0004FEAC3214FEAC520F40241EA555140EAD4
:1020E00056506FF0020202EB2E4201EB025585EAD8
:1020F000CE710AD05FEA440C18BF24F0004450F1BE
:10210000000041F1000120EAD47040F2FE7C6245FB
:1021100000D270BDA84214BF4FF080444FF040443D
:10212000002E08BF0024BEF1806FA8BFA1F1C041FE
:10213000BDE8704080F282804FF0000001F1C041A4
:1021400001F0004170479EEA0C0F0CEA131518BF0E
:1021500095EA0C0F06D04FF0000081EA030E0EF056
:10216000004170BD00F01CF88900013E00F007B886
:1021700000F009B84FEA430C5FEA5C5C08D081EAE2
:10218000030100F05BB84FEA410C5FEA5C5CF6D1FA
:102190004FF00000014970470000FF070000F87F82
:1021A0000EF1020E2EF0030E5EF8046B364205D4DB
:1021B000012A43EB030515F5001F12D8012841EB56
:1021C000010C1CF5001F0CD80ED14FEAD17C15F57F
:1021D000001F0CEB4C0C0CF1020C08BF4CEBD37C39
:1021E00004E04FF0080C01E04FEAD37C0CEB4C0507
:1021F00026FA05F606F00706B6F1040C06D20EEB39
:10220000860CBDE870404CF0010C6047DFE80CF034
:10221000090B02024FF000414FF00000A1F5002130
:1022200070BD19461046012851EB010418BFD4F5C2
:10223000001484BF002001F0004170BD0808A0F523
:1022400000114FEA3101704710B591EA030F48BF02
:1022500083F000433FF5BEAC841A71EB030C07D248
:1022600012198CF0004C43EB0C03001B61EB0C01CA
:10227000DFF8A4E14FEA1154A4EB135C1EEA430F0C
:1022800018BF9EEA445F00F0B08023EA6E0352421A
:1022900021EA0451C3EB6E0338BF5B1EDCF1200E54
:1022A00025D322FA0CFE10EB0E0043FA0CFE41EB94
:1022B0000E01CCF1200E03FA0EFE10EB0E0051F1D0
:1022C0000001CCF1200E29D412FA0EF201EB0451D8
:1022D000BDE8104058BF7047401C1CBFB2F1004F12
:1022E000704700280CBF491C20F00100704712EB1A
:1022F000020E43EB030218BF4FF0010E4EEA4202FA
:10230000ACF1200CDCF11E0E54D943FA0CFE10EB9C
:102310000E0051F1FF31CCF11E0ED5D50EF1010E9C
:1023200012FA0EFE404141EB010101EB445C5FEA11
:102330005C5C10D910EBDE7001EB045138BFBEF1CC
:10234000004FBDE8104018BF704700280CBF491C63
:1023500020F00100704730D24FEAD42C11F5001163
:1023600024F400641BD0B1FA81F20B3AA41AA41E23
:10237000D2F12003914030FA03F31943904001EB6E
:10238000CC71002C01EB0451BDE81040A8BF704790
:1023900001F1C0414FF0000001F000417047B0FA78
:1023A00080F310FA03F100D110BDE41A173C480580
:1023B000C90AE4E701EB045110BD491001EB0451D7
:1023C000BDE810404FEA300002E04FF000017047D6
:1023D0004A0008BF0042F8D0B2F5001F28BF70477E
:1023E00001F000414FF0000070479EEA445F07D0C3
:1023F00011EA5E0FBDE8104004BF002100207047C5
:10240000BDE8104070B5FFF7CBFE00BF40DFF63EE1
:1024100083F00041104670470000E0FF43004FEAA0
:10242000D30C4FEA3C0C43401FBF40070CF16051F6
:1024300013F0FE4F70471CF0006F03D100200CF02A
:10244000004170470CF0004343EA507010B540EA79
:10245000CC0000F0E8F900BF000000924FEA000154
:10246000FFF7ECBE4FF000414FF00000A1F5002156
:102470007047000090EA010F48BF81F0004100F171
:102480002482421A3CBF801A89184FEAD0524FF07A
:102490007F4C1CEA410FA2EBD15318BF9CEA026F9C
:1024A00000F03B804FF0004C4CEA00204CEA012148
:1024B00021FA03FC10EB0C0C1ED202F1FF325FEA92
:1024C0001C2040EBC25038BF70471CF07F0F4FEA12
:1024D000400C18BFBCF17F4F38BF7047C3F12003D9
:1024E000994008BF20F00100BCF17F4F38BF704712
:1024F000A0F1C04000F0DDB94FEA3C00000A40EB1B
:10250000C25028BF1CF0FF0F4FEA400CE6D018BFA6
:10251000BCF17F4F38BF7047EAE79CEA026F05D0F5
:1025200010EA5C0F08BF00F00040704710B500F0E3
:102530007AF900BF64FBBE3E4FF47F0C1CEAD01258
:102540001EBF1CEAD11392EA0C0F93EA0C0F00F0A5
:10255000858090EA010F48BF42F4807240F4000C7D
:1025600041F400002CF07F4120F07F4000B5814213
:10257000A2EB03020FF2081CACEB504EC0F10000BE
:102580009EF800E04FEA4E0E00FB0EFC38BF4900FB
:102590004FEA2C1C02F5FA020CFB0EF34FEACE1E9A
:1025A0004FEA112C4FEAC1210EEB635E42EB22424F
:1025B0000EFB0CFC4FEA1C5300FB03114FEA112CDD
:1025C0004FEA01310EFB0CFC4FEADC4C00FB0C1116
:1025D000C14228BF09184CEB03335DF804EB10EB44
:1025E000410143EBC250B2F57C0F38BF704729D58B
:1025F00012F0F00F1CBF00F1C04000F00040704727
:10260000008182838485868788898B8C8D8E8F91CB
:102610009293959697999A9C9D9FA0A2A3A5A7A8EF
:10262000AAACAEB0B2B3B5B7B9BCBEC0C2C5C7C91B
:10263000CCCED1D4D7D9DCDFE2E6E9ECF0F3F7FA7F
:10264000FE0000004FEA400C0CF1807CBCF17E4F94
:1026500028BF7047B0F1C04000F02BB990EA010FDD
:102660000CEAD11348BF42F48072624538BF63451B
:1026700007D213F47F0F16D080EA010000F000406B
:10268000704710B500F0CFF8097EFC3E00F005B8A9
:1026900080EA010000F00040704780EA010000F08D
:1026A000004000F006B912F47F0F04BF02487047E3
:1026B00080EA010000F0FDB80000C07F41000B0E71
:1026C000D3F19E0208D950F400034FEA032323FA02
:1026D00002F048BF4042704710B500F0A4F800BFB8
:1026E00049922480002070476FF0004282EA200067
:1026F0007047000010F0004148BF4042B0FA80F33C
:1027000010FA03F2C3F19D030BD051EAC35101EB60
:102710001220530638BF704700F1010008BF20F0B7
:10272000010070474FF47F0C1CEAD0121EBF1CEA58
:10273000D11392EA0C0F93EA0C0F00F0478090EA55
:10274000010F48BF42F480724FF0004C4CEA002069
:102750004CEA012102EB0302A0FB0113A2F50002E7
:10276000002918BF43F001035B0028BF4FEA330381
:1027700042EB22425FEA132C4CEBC2502EBFBCEB63
:10278000436FB2F57C0F70474FEA036CBCF1004F0A
:1027900008BF20F00100B2F57C0F38BF70470BD5A1
:1027A00082F0FF0212F5803FC8BF704700F1C040C1
:1027B000D8BF00F00040704700F5000C5FEA4C0CF9
:1027C00048BF7047B0F1C04000F073B890EA010F05
:1027D0000CEAD11348BF42F48072624538BF6345AA
:1027E00004D280EA010000F00040704710B500F00C
:1027F0001AF800BF8900013E00F007B800F009B8E0
:102800005FEA410C5FEA1C6C08D080EA010000F02E
:1028100050B85FEA400C5FEA1C6CF6D14FF0004004
:10282000A0F5800070470EF1020E2EF0030E5EF848
:10283000044B244204D44FEA4102B2F17F4F11D835
:102840004FEA4003B3F17F4F0CD80ED14FEAD07C52
:10285000B2F17F4F0CEB4C0C0CF1020C08BF4CEBAF
:10286000D17C04E04FF0080C01E04FEAD17C0CEB86
:102870004C0324FA03F404F00704B4F1040C06D268
:102880000EEB840CBDE810404CF0010C6047DFE813
:102890000CF0070802024FF00040A0F5800010BDC8
:1028A0000846420018BFD2F1807288BF00F0004095
:1028B00010BDFF2141EAD050C005704790EA010FDA
:1028C00048BF81F000413FF5DCAD421A04D882F0E8
:1028D0000042A0EB020011444FEAD0524FF07F4C6F
:1028E0001CEA410FA2EBD15318BF9CEA026F4AD0F9
:1028F0004FF0004C4CEA00204CEA012121FA03FC85
:10290000B0EB0C0C0FD412F0FE0F36D05FEA4C0087
:102910001DD5001240EBC25038BF70471CF03F0F6E
:1029200018BF70470BE0A2F101025FEA1C2040EBE8
:10293000C25038BF70471CF07F0F18BF7047C3F1FB
:102940002003994014BF401E20F00100704780080A
:102950004FEA122308BF7047B0FA80FCA2EB0C02CA
:10296000CCF1280C60FA0CF093EA122F04BF00EBB4
:10297000C25070474FEAC3707047130A5FEADC1019
:1029800008BF7047F6E79CEA026F04D010EA5C0FBC
:1029900008BF0020704710B5FFF745FF40DFF63E47
:1029A00081F0004070470000C829000800000020A6
:1029B0003400000028010008FC2900083400002031
:1029C000C4060000440100080000000000000000F0
:1029D00000000000000000000000000000000000F7
:1029E000000000000000000000A24A0400000000F7
:0C29F000000000000102030406070809B3
:04000005080001915D
:00000001FF
