:020000040800F2
:10000000780600208901000891010008930100088A
:100010009501000897010008990100080000000000
:100020000000000000000000000000009B0100082C
:100030009D010008000000009F010008A1010008C8
:10004000A3010008A3010008A3010008A301000800
:10005000A3010008A3010008A3010008A3010008F0
:10006000A3010008A3010008A3010008A3010008E0
:10007000A3010008A3010008A3010008A3010008D0
:10008000A3010008A3010008A3010008A3010008C0
:10009000A3010008A3010008A3010008A3010008B0
:1000A000A3010008A3010008A3010008A3010008A0
:1000B000A3010008A3010008A3010008A301000890
:1000C000A3010008A3010008A3010008A301000880
:1000D000A3010008A3010008A3010008A301000870
:1000E000A3010008A3010008A301000800F002F822
:1000F00000F03AF80AA090E8000C82448344AAF188
:100100000107DA4501D100F02FF8AFF2090EBAE885
:100110000F0013F0010F18BFFB1A43F0010318473B
:10012000F80A0000180B0000103A24BF78C878C104
:10013000FAD8520724BF30C830C144BF04680C60ED
:10014000704700000023002400250026103A28BF35
:1001500078C1FBD8520728BF30C148BF0B60704739
:100160001FB51FBD10B510BD00F031F81146FFF7E7
:10017000F7FF00F01BFC00F04FF803B4FFF7F2FFAD
:1001800003BC00F057F800000948804709480047C1
:10019000FEE7FEE7FEE7FEE7FEE7FEE7FEE7FEE737
:1001A000FEE7FEE704480549054A064B7047000094
:1001B00089030008ED000008780000207806002080
:1001C000780200207802002070477047704775461B
:1001D00000F02CF8AE4605006946534620F00700B3
:1001E000854618B020B5FFF7DDFFBDE820404FF091
:1001F00000064FF000074FF000084FF0000B21F011
:100200000701AC46ACE8C009ACE8C009ACE8C009DD
:10021000ACE8C0098D46704710B50446AFF30080C6
:100220002046BDE81040FFF7A8BF00000048704717
:100230001400002001491820ABBEFEE72600020092
:1002400070470000094800684FF47A71B0FBF1F084
:100250004FF0E02148610020886100BF4FF0E020AE
:10026000006900F480300028F8D0704700000020BA
:10027000094800680949B0FBF1F04FF0E0214861FE
:100280000020886100BF4FF0E020006900F480305A
:100290000028F8D0704700000000002040420F0006
:1002A00010B500F001F810BD0CB5002001900090D1
:1002B0003348006840F480303149086000BF30485E
:1002C000006800F4003000900198401C01900098F4
:1002D00018B90198B0F5A06FF1D12948006800F471
:1002E000003010B10120009001E000200090009843
:1002F000012843D12348006840F0100021490860DC
:100300000846006820F0070008600846006840F0D2
:10031000020008601A484068194948600846406869
:1003200048600846406840F480604860084640687D
:1003300020F47C1048600846406840F4E8104860AB
:100340000846006840F08070086000BF0C480068F4
:1003500000F000700028F9D00948406820F0030040
:10036000074948600846406840F00200486000BF06
:100370000348406800F00C000828F9D10CBD0000CB
:10038000001002400020024010B51348006840F001
:1003900001001149086008464068104908400E49AC
:1003A0004860084600680E4908400B490860084646
:1003B000006820F4802008600846406820F4FE00B1
:1003C00048604FF41F008860FFF76AFF4FF000603D
:1003D0000449086010BD0000001002400000FFF852
:1003E000FFFFF6FE08ED00E070B505460C4622461C
:1003F0004E21284600F084F870BD10B5044602E096
:10040000FFF720FF641E002CFAD110BD10B5044682
:1004100002E0FFF72DFF641E002CFAD110BD000092
:1004200070B5012831D10424324DAC61082912DAAB
:10043000314C24688D0003FA05F52C432E4D2C60B9
:100440002C462468022505EB810502FA05F52C43AC
:10045000294D2C604CE0284C241D2468A1F108058E
:10046000AD0003FA05F52C43234D2D1D2C602C46C1
:100470002568A1F10804022606EB840402FA04F4BC
:1004800025431D4C241D256032E0022830D108246C
:10049000184DAC61082912DA184C24688D0003FA53
:1004A00005F52C43154D2C602C462468022505EBE0
:1004B000810502FA05F52C43104D2C6018E00F4C15
:1004C000241D2468A1F10805AD0003FA05F52C43AD
:1004D0000A4D2D1D2C602C462568A1F1080402262A
:1004E00006EB840402FA04F42543044C241D256021
:1004F00070BD00000010024000080140000C0140E7
:1005000018B503461BBB41EA0200254C208000BF02
:100510002348001D008800F002000028F8D00EE0FB
:100520001F48001D008800901D480830008800907A
:100530001B48001D008800F0020000B906E01848C2
:10054000001D008800F002000028E9D125E0012B01
:1005500023D141EA0200134C208000BF1148001D46
:10056000008800F002000028F8D00EE00D48001DC1
:10057000008800900B480830008800900948001D52
:10058000008800F0020000B906E00648001D00885F
:1005900000F002000028E9D100BF012018BD0000D2
:1005A000105400401058004002468AB900BF13485A
:1005B000008800F080000028F9D01048001F01805A
:1005C00000BF0E48008800F080000028F9D012E03B
:1005D000012A10D100BF0A48008800F080000028DE
:1005E000F9D00748001F018000BF0548008800F0CF
:1005F00080000028F9D0012070470000145400400A
:100600001458004070B505460C462348806940F0F8
:10061000010021498861EDB90846C06940F4001025
:10062000C86103231A4606210220FFF7F9FE0323BF
:100630001A4607210220FFF7F3FE08201749088019
:10064000164818300480081F008840F00100091F78
:1006500008801FE0012D1DD10F48C06940F48000C3
:100660000D49C86103231A460A210220FFF7D8FE6C
:1006700003231A460B210220FFF7D2FE0820084967
:100680000880074818300480081F008840F00100E7
:10069000091F0880012070BD001002400454004072
:1006A00004580040014671B91048008840F4807039
:1006B0000E4A108000BF0D481430008800F0010081
:1006C0000028F8D00FE001290DD10948008840F436
:1006D0008070074A108000BF05481430008800F081
:1006E00001000028F8D001207047000000540040AD
:1006F00000580040014631B90848008840F40070B5
:10070000064A108007E0012905D10548008840F419
:100710000070034A10800120704700000054004020
:100720000058004070B505460C460821284600F0E8
:100730006FF90A20FFF76AFE0C21284600F068F9DD
:100740000520FFF763FE04F0F00040F00C0128469E
:1007500000F05EF90A20FFF759FE04F0F00040F0C7
:100760000801284600F054F91420FFF74FFE0C2131
:10077000284600F04DF90520FFF748FEF02000EA7A
:10078000041040F00C01284600F042F90A20FFF75F
:100790003DFEF02000EA041040F00801284600F079
:1007A00037F970BD70B505460C460921284600F0A2
:1007B0002FF90A20FFF72AFE0D21284600F028F91C
:1007C0000520FFF723FE04F0F00040F00D0128465D
:1007D00000F01EF90A20FFF719FE04F0F00040F0C7
:1007E0000901284600F014F91420FFF70FFE0D212F
:1007F000284600F00DF90520FFF708FEF02000EA7A
:10080000041040F00D01284600F002F90A20FFF71D
:10081000FDFDF02000EA041040F00901284600F038
:10082000F7F870BD10B504462D212046FFF7EAFE0B
:100830001420FFF7E2FD0821204600F0E9F80A2025
:10084000FFF7E4FD0C21204600F0E2F80520FFF759
:10085000DDFD3C21204600F0DBF80A20FFF7D6FD45
:100860003821204600F0D4F80120FFF7C6FD08210A
:10087000204600F0CDF80A20FFF7C8FD0C212046E5
:1008800000F0C6F80520FFF7C1FD3C21204600F02E
:10089000BFF80A20FFF7BAFD3821204600F0B8F86B
:1008A0000120FFF7AAFD0821204600F0B1F80A2038
:1008B000FFF7ACFD0C21204600F0AAF80520FFF759
:1008C000A5FD3C21204600F0A3F80A20FFF79EFD7D
:1008D0003821204600F09CF80120FFF78EFD08210A
:1008E000204600F095F80A20FFF790FD0C212046E5
:1008F00000F08EF80520FFF789FD2C21204600F03E
:1009000087F80A20FFF782FD2821204600F080F8B2
:100910002C212046FFF706FF0520FFF76EFD0C2176
:100920002046FFF7FFFE0520FFF767FD0121204667
:10093000FFF7F8FE0520FFF760FD02212046FFF7D4
:10094000F1FE0520FFF759FD10BD2DE9F0410746E6
:100950000C4615461E464FF00008012C00D103E05E
:10096000022C01D14FF0400808F180002844C1B2A8
:100970003846FFF7D7FE6420FFF748FD314638467A
:1009800000F002F8BDE8F08170B506460C4600257F
:1009900007E0615D3046FFF705FF6D1C6420FFF73F
:1009A00035FD605D0028F4D170BD000000F024F832
:1009B0000020FFF737FF0AA3002201211046FFF7AE
:1009C000C4FF0121032000F035F807E008A103204F
:1009D00000F0E8F84FF4FA70FFF70FFDF6E70000BB
:1009E0004161424364646464787A447A7A780000AE
:1009F000744465437374440000204FF0E0210861A3
:100A00006FF07F40486100208861052008617047D1
:100A100070B504460D462046FFF744FE00212046EF
:100A2000FFF7E2FC29462046FFF7BEFD2046FFF710
:100A300061FE70BD70B505460C465648806940F0B1
:100A4000010054498861012D34D10846806940F481
:100A5000804088610223032209210120FFF7E0FC86
:100A6000022300220A210120FFF7DAFC24B941F613
:100A700046504949088005E0012C03D140F271201D
:100A8000454908804448001D008840F0080042495C
:100A9000091D08800846008840F0040008800846C8
:100AA000008840F4005008800846008840F020008C
:100AB00008806EE0022D35D13648C06940F4003020
:100AC0003449C8610223032219460120FFF7A8FC1C
:100AD0000223002203210120FFF7A2FC24B940F6E3
:100AE000A3602E49088005E0012C03D14FF49C70CF
:100AF0002A4908802948001D008840F0080027493D
:100B0000091D08800846008840F004000880084657
:100B1000008840F4005008800846008840F020001B
:100B2000088036E0032D34D11A48C06940F4802093
:100B30001849C861022303220A211846FFF770FCF6
:100B4000022300220B211846FFF76AFC24B940F665
:100B5000A3601349088005E0012C03D14FF49C7079
:100B60000F4908800E48001D008840F008000C491D
:100B7000091D08800846008840F0040008800846E7
:100B8000008840F4005008800846008840F02000AB
:100B9000088070BD00100240083801400844004041
:100BA0000848004030B505460B46002404E0195DB6
:100BB000284600F005F8641C185D0028F7D130BD08
:100BC00001280AD100BF114A128802F04002002A0F
:100BD000F9D00E4A121D11800BE0022809D100BF86
:100BE0000B4A128802F04002002AF9D0084A121D6E
:100BF0001180032809D100BF064A128802F0400282
:100C0000002AF9D0034A121D1180704700380140B4
:100C10000044004000480040380C0008000000205C
:100C200014000000280100084C0C000814000020EB
:100C3000640600004401000800A24A04000000000D
:0C0C400000000000010203040607080980
:040000050800018965
:00000001FF
