:020000040800F2
:10000000600600206D0100087501000877010008F6
:10001000790100087B0100087D0100080000000054
:100020000000000000000000000000007F01000848
:10003000810100080000000083010008850100081C
:100040008701000887010008870100088701000870
:100050008701000887010008870100088701000860
:100060008701000887010008870100088701000850
:100070008701000887010008870100088701000840
:100080008701000887010008870100088701000830
:100090008701000887010008870100088701000820
:1000A0008701000887010008870100088701000810
:1000B0008701000887010008870100088701000800
:1000C00087010008870100088701000887010008F0
:1000D00087010008870100088701000887010008E0
:1000E00087010008870100088701000800F002F876
:1000F00000F02CF80AA090E8000C82448344AAF196
:100100000107DA4501D100F021F8AFF2090EBAE893
:100110000F0013F0010F18BFFB1A43F0010318473B
:100120008806000098060000002300240025002611
:10013000103A28BF78C1FBD8520728BF30C148BF4A
:100140000B6070471FB51FBD10B510BD00F031F832
:100150001146FFF7F7FF00F00BFB00F04FF803B478
:10016000FFF7F2FF03BC00F057F800000948804792
:1001700009480047FEE7FEE7FEE7FEE7FEE7FEE789
:10018000FEE7FEE7FEE7FEE704480549054A064BA1
:1001900070470000C9040008ED000008600000205E
:1001A0006006002060020020600200207047704757
:1001B0007047754600F02CF8AE4605006946534678
:1001C00020F00700854618B020B5FFF7DDFFBDE839
:1001D00020404FF000064FF000074FF000084FF0AE
:1001E000000B21F00701AC46ACE8C009ACE8C0093F
:1001F000ACE8C009ACE8C0098D46704710B50446AC
:10020000AFF300802046BDE81040FFF7A8BF000014
:10021000004870470000002001491820ABBEFEE7EF
:1002200026000200704710B5044621464E2000F01B
:1002300035F810BD07484FF0E02148610020886183
:1002400000BF4FF0E020006900F480300028F8D0B3
:10025000704700004019010000B5024602E0FFF7B8
:10026000E9FF521E002AFAD100BD00B5024602E0A5
:1002700000F004F8521E002AFAD100BD48204FF0C9
:10028000E02148610020886100BF4FF0E020006954
:1002900000F480300028F8D07047000008B502460E
:1002A00042EA0100114B188000BF1048001D008871
:1002B00000F002000028F8D00EE00C48001D008875
:1002C00000900A480830008800900848001D008807
:1002D00000F0020000B906E00448001D008800F0AC
:1002E00002000028E9D100BF012008BD10540040E1
:1002F000014600BF0848008800F080000028F9D0BF
:100300000548001F018000BF0348008800F08000FE
:100310000028F9D0012070471454004010B502465F
:1003200000231E48806940F001001C4CA06120465B
:10033000C06940F40010E0612046806940F0080088
:10034000A061174800EB8301086820F07060086026
:10035000086840F070600860086820F0704008602D
:10036000086840F0704008600E48008840F4004083
:100370000C4C20802046008820F40040208008207B
:10038000241D208007481C300280201F008840F078
:100390000100241F2080012010BD00000010024039
:1003A000000C0140005400400748008840F4807071
:1003B0000549088000BF04481430008800F001009F
:1003C0000028F8D0012070470054004003480088FE
:1003D00040F400700149088001207047005400403B
:1003E00010B500F001F810BD0CB500200190009090
:1003F0003348006840F480303149086000BF30481D
:10040000006800F4003000900198401C01900098B2
:1004100018B90198B0F5A06FF1D12948006800F42F
:10042000003010B10120009001E000200090009801
:10043000012843D12348006840F01000214908609A
:100440000846006820F0070008600846006840F091
:10045000020008601A484068194948600846406828
:1004600048600846406840F480604860084640683C
:1004700020F47C1048600846406840F4E81048606A
:100480000846006840F08070086000BF0C480068B3
:1004900000F000700028F9D00948406820F00300FF
:1004A000074948600846406840F00200486000BFC5
:1004B0000348406800F00C000828F9D10CBD00008A
:1004C000001002400020024010B51348006840F0C0
:1004D00001001149086008464068104908400E496B
:1004E0004860084600680E4908400B490860084605
:1004F000006820F4802008600846406820F4FE0070
:1005000048604FF41F008860FFF76AFF4FF00060FB
:100510000449086010BD0000001002400000FFF810
:10052000FFFFF6FE08ED00E010B50446FFF73CFFC4
:100530000020FFF778FE2046FFF7DAFEFFF746FFC0
:1005400010BD10B504460820FFF7EEFF0A20FFF7A4
:100550008CFE0C20FFF7E8FF0520FFF786FE04F075
:10056000F00141F00C00FFF7DFFF0A20FFF77DFEEE
:1005700004F0F00141F00800FFF7D6FF1420FFF768
:1005800074FE0C20FFF7D0FF0520FFF76EFEF02170
:1005900001EA041141F00C00FFF7C6FF0A20FFF743
:1005A00064FEF02101EA041141F00800FFF7BCFFEE
:1005B00010BD10B504460920FFF7B6FF0A20FFF76B
:1005C00054FE0D20FFF7B0FF0520FFF74EFE04F0AC
:1005D000F00141F00D00FFF7A7FF0A20FFF745FEED
:1005E00004F0F00141F00900FFF79EFF1420FFF72F
:1005F0003CFE0D20FFF798FF0520FFF736FEF021A7
:1006000001EA041141F00D00FFF78EFF0A20FFF709
:100610002CFEF02101EA041141F00900FFF784FFEC
:1006200010BD10B52D20FFF779FE1420FFF714FE42
:100630000820FFF779FF0A20FFF717FE0C20FFF7CD
:1006400073FF0520FFF711FE3C20FFF76DFF0A2026
:10065000FFF70BFE3820FFF767FF0A20FFF7FCFDCE
:100660000820FFF761FF0A20FFF7FFFD0C20FFF7CE
:100670005BFF0520FFF7F9FD3C20FFF755FF0A203F
:10068000FFF7F3FD3820FFF74FFF0120FFF7E4FDF0
:100690000820FFF749FF0A20FFF7E7FD0C20FFF7CE
:1006A00043FF0520FFF7E1FD3C20FFF73DFF0A2057
:1006B000FFF7DBFD3820FFF737FF0120FFF7CCFD08
:1006C0000820FFF731FF0A20FFF7CFFD0C20FFF7CE
:1006D0002BFF0520FFF7C9FD2C20FFF725FF0A207F
:1006E000FFF7C3FD2820FFF71FFF2C20FFF729FF8E
:1006F0000520FFF7B1FD0C20FFF723FF0520FFF7D2
:10070000ABFD0120FFF71DFF0520FFF7A5FD02202F
:10071000FFF717FF0520FFF79FFD10BD2DE9F04102
:1007200004460D4616460027012C00D102E0022C9B
:1007300000D1402707F180012944C8B2FFF701FF2B
:100740006420FFF792FD304600F002F8BDE8F0812A
:1007500070B50446002506E0605DFFF72AFF6D1CBA
:100760006420FFF782FD605D0028F5D170BD0000B8
:1007700000F00EF8FFF755FF03A200210120FFF75C
:10078000CDFF00BFFEE70000756574650000000046
:1007900000204FF0E02108616FF07F4048610020A9
:1007A0008861052008617047B80700080000002034
:0807B0006006000028010008AA
:040000050800016D81
:00000001FF
